{
  "_format": "hh-sol-artifact-1",
  "contractName": "SVGovernor",
  "sourceName": "contracts/SVGovernor.sol",
  "abi": [
    {
      "inputs": [
        {
          "internalType": "contract IVotes",
          "name": "_token",
          "type": "address"
        },
        {
          "internalType": "contract TimelockController",
          "name": "_timelock",
          "type": "address"
        }
      ],
      "stateMutability": "nonpayable",
      "type": "constructor"
    },
    {
      "inputs": [],
      "name": "Empty",
      "type": "error"
    },
    {
      "anonymous": false,
      "inputs": [
        {
          "indexed": false,
          "internalType": "uint256",
          "name": "proposalId",
          "type": "uint256"
        }
      ],
      "name": "ProposalCanceled",
      "type": "event"
    },
    {
      "anonymous": false,
      "inputs": [
        {
          "indexed": false,
          "internalType": "uint256",
          "name": "proposalId",
          "type": "uint256"
        },
        {
          "indexed": false,
          "internalType": "address",
          "name": "proposer",
          "type": "address"
        },
        {
          "indexed": false,
          "internalType": "address[]",
          "name": "targets",
          "type": "address[]"
        },
        {
          "indexed": false,
          "internalType": "uint256[]",
          "name": "values",
          "type": "uint256[]"
        },
        {
          "indexed": false,
          "internalType": "string[]",
          "name": "signatures",
          "type": "string[]"
        },
        {
          "indexed": false,
          "internalType": "bytes[]",
          "name": "calldatas",
          "type": "bytes[]"
        },
        {
          "indexed": false,
          "internalType": "uint256",
          "name": "startBlock",
          "type": "uint256"
        },
        {
          "indexed": false,
          "internalType": "uint256",
          "name": "endBlock",
          "type": "uint256"
        },
        {
          "indexed": false,
          "internalType": "string",
          "name": "description",
          "type": "string"
        }
      ],
      "name": "ProposalCreated",
      "type": "event"
    },
    {
      "anonymous": false,
      "inputs": [
        {
          "indexed": false,
          "internalType": "uint256",
          "name": "proposalId",
          "type": "uint256"
        }
      ],
      "name": "ProposalExecuted",
      "type": "event"
    },
    {
      "anonymous": false,
      "inputs": [
        {
          "indexed": false,
          "internalType": "uint256",
          "name": "proposalId",
          "type": "uint256"
        },
        {
          "indexed": false,
          "internalType": "uint256",
          "name": "eta",
          "type": "uint256"
        }
      ],
      "name": "ProposalQueued",
      "type": "event"
    },
    {
      "anonymous": false,
      "inputs": [
        {
          "indexed": false,
          "internalType": "uint256",
          "name": "oldQuorumNumerator",
          "type": "uint256"
        },
        {
          "indexed": false,
          "internalType": "uint256",
          "name": "newQuorumNumerator",
          "type": "uint256"
        }
      ],
      "name": "QuorumNumeratorUpdated",
      "type": "event"
    },
    {
      "anonymous": false,
      "inputs": [
        {
          "indexed": false,
          "internalType": "address",
          "name": "oldTimelock",
          "type": "address"
        },
        {
          "indexed": false,
          "internalType": "address",
          "name": "newTimelock",
          "type": "address"
        }
      ],
      "name": "TimelockChange",
      "type": "event"
    },
    {
      "anonymous": false,
      "inputs": [
        {
          "indexed": true,
          "internalType": "address",
          "name": "voter",
          "type": "address"
        },
        {
          "indexed": false,
          "internalType": "uint256",
          "name": "proposalId",
          "type": "uint256"
        },
        {
          "indexed": false,
          "internalType": "uint8",
          "name": "support",
          "type": "uint8"
        },
        {
          "indexed": false,
          "internalType": "uint256",
          "name": "weight",
          "type": "uint256"
        },
        {
          "indexed": false,
          "internalType": "string",
          "name": "reason",
          "type": "string"
        }
      ],
      "name": "VoteCast",
      "type": "event"
    },
    {
      "anonymous": false,
      "inputs": [
        {
          "indexed": true,
          "internalType": "address",
          "name": "voter",
          "type": "address"
        },
        {
          "indexed": false,
          "internalType": "uint256",
          "name": "proposalId",
          "type": "uint256"
        },
        {
          "indexed": false,
          "internalType": "uint8",
          "name": "support",
          "type": "uint8"
        },
        {
          "indexed": false,
          "internalType": "uint256",
          "name": "weight",
          "type": "uint256"
        },
        {
          "indexed": false,
          "internalType": "string",
          "name": "reason",
          "type": "string"
        },
        {
          "indexed": false,
          "internalType": "bytes",
          "name": "params",
          "type": "bytes"
        }
      ],
      "name": "VoteCastWithParams",
      "type": "event"
    },
    {
      "inputs": [],
      "name": "BALLOT_TYPEHASH",
      "outputs": [
        {
          "internalType": "bytes32",
          "name": "",
          "type": "bytes32"
        }
      ],
      "stateMutability": "view",
      "type": "function"
    },
    {
      "inputs": [],
      "name": "COUNTING_MODE",
      "outputs": [
        {
          "internalType": "string",
          "name": "",
          "type": "string"
        }
      ],
      "stateMutability": "pure",
      "type": "function"
    },
    {
      "inputs": [],
      "name": "EXTENDED_BALLOT_TYPEHASH",
      "outputs": [
        {
          "internalType": "bytes32",
          "name": "",
          "type": "bytes32"
        }
      ],
      "stateMutability": "view",
      "type": "function"
    },
    {
      "inputs": [
        {
          "internalType": "uint256",
          "name": "proposalId",
          "type": "uint256"
        },
        {
          "internalType": "uint8",
          "name": "support",
          "type": "uint8"
        }
      ],
      "name": "castVote",
      "outputs": [
        {
          "internalType": "uint256",
          "name": "",
          "type": "uint256"
        }
      ],
      "stateMutability": "nonpayable",
      "type": "function"
    },
    {
      "inputs": [
        {
          "internalType": "uint256",
          "name": "proposalId",
          "type": "uint256"
        },
        {
          "internalType": "uint8",
          "name": "support",
          "type": "uint8"
        },
        {
          "internalType": "uint8",
          "name": "v",
          "type": "uint8"
        },
        {
          "internalType": "bytes32",
          "name": "r",
          "type": "bytes32"
        },
        {
          "internalType": "bytes32",
          "name": "s",
          "type": "bytes32"
        }
      ],
      "name": "castVoteBySig",
      "outputs": [
        {
          "internalType": "uint256",
          "name": "",
          "type": "uint256"
        }
      ],
      "stateMutability": "nonpayable",
      "type": "function"
    },
    {
      "inputs": [
        {
          "internalType": "uint256",
          "name": "proposalId",
          "type": "uint256"
        },
        {
          "internalType": "uint8",
          "name": "support",
          "type": "uint8"
        },
        {
          "internalType": "string",
          "name": "reason",
          "type": "string"
        }
      ],
      "name": "castVoteWithReason",
      "outputs": [
        {
          "internalType": "uint256",
          "name": "",
          "type": "uint256"
        }
      ],
      "stateMutability": "nonpayable",
      "type": "function"
    },
    {
      "inputs": [
        {
          "internalType": "uint256",
          "name": "proposalId",
          "type": "uint256"
        },
        {
          "internalType": "uint8",
          "name": "support",
          "type": "uint8"
        },
        {
          "internalType": "string",
          "name": "reason",
          "type": "string"
        },
        {
          "internalType": "bytes",
          "name": "params",
          "type": "bytes"
        }
      ],
      "name": "castVoteWithReasonAndParams",
      "outputs": [
        {
          "internalType": "uint256",
          "name": "",
          "type": "uint256"
        }
      ],
      "stateMutability": "nonpayable",
      "type": "function"
    },
    {
      "inputs": [
        {
          "internalType": "uint256",
          "name": "proposalId",
          "type": "uint256"
        },
        {
          "internalType": "uint8",
          "name": "support",
          "type": "uint8"
        },
        {
          "internalType": "string",
          "name": "reason",
          "type": "string"
        },
        {
          "internalType": "bytes",
          "name": "params",
          "type": "bytes"
        },
        {
          "internalType": "uint8",
          "name": "v",
          "type": "uint8"
        },
        {
          "internalType": "bytes32",
          "name": "r",
          "type": "bytes32"
        },
        {
          "internalType": "bytes32",
          "name": "s",
          "type": "bytes32"
        }
      ],
      "name": "castVoteWithReasonAndParamsBySig",
      "outputs": [
        {
          "internalType": "uint256",
          "name": "",
          "type": "uint256"
        }
      ],
      "stateMutability": "nonpayable",
      "type": "function"
    },
    {
      "inputs": [
        {
          "internalType": "address[]",
          "name": "targets",
          "type": "address[]"
        },
        {
          "internalType": "uint256[]",
          "name": "values",
          "type": "uint256[]"
        },
        {
          "internalType": "bytes[]",
          "name": "calldatas",
          "type": "bytes[]"
        },
        {
          "internalType": "bytes32",
          "name": "descriptionHash",
          "type": "bytes32"
        }
      ],
      "name": "execute",
      "outputs": [
        {
          "internalType": "uint256",
          "name": "",
          "type": "uint256"
        }
      ],
      "stateMutability": "payable",
      "type": "function"
    },
    {
      "inputs": [
        {
          "internalType": "address",
          "name": "account",
          "type": "address"
        },
        {
          "internalType": "uint256",
          "name": "blockNumber",
          "type": "uint256"
        }
      ],
      "name": "getVotes",
      "outputs": [
        {
          "internalType": "uint256",
          "name": "",
          "type": "uint256"
        }
      ],
      "stateMutability": "view",
      "type": "function"
    },
    {
      "inputs": [
        {
          "internalType": "address",
          "name": "account",
          "type": "address"
        },
        {
          "internalType": "uint256",
          "name": "blockNumber",
          "type": "uint256"
        },
        {
          "internalType": "bytes",
          "name": "params",
          "type": "bytes"
        }
      ],
      "name": "getVotesWithParams",
      "outputs": [
        {
          "internalType": "uint256",
          "name": "",
          "type": "uint256"
        }
      ],
      "stateMutability": "view",
      "type": "function"
    },
    {
      "inputs": [
        {
          "internalType": "uint256",
          "name": "proposalId",
          "type": "uint256"
        },
        {
          "internalType": "address",
          "name": "account",
          "type": "address"
        }
      ],
      "name": "hasVoted",
      "outputs": [
        {
          "internalType": "bool",
          "name": "",
          "type": "bool"
        }
      ],
      "stateMutability": "view",
      "type": "function"
    },
    {
      "inputs": [
        {
          "internalType": "address[]",
          "name": "targets",
          "type": "address[]"
        },
        {
          "internalType": "uint256[]",
          "name": "values",
          "type": "uint256[]"
        },
        {
          "internalType": "bytes[]",
          "name": "calldatas",
          "type": "bytes[]"
        },
        {
          "internalType": "bytes32",
          "name": "descriptionHash",
          "type": "bytes32"
        }
      ],
      "name": "hashProposal",
      "outputs": [
        {
          "internalType": "uint256",
          "name": "",
          "type": "uint256"
        }
      ],
      "stateMutability": "pure",
      "type": "function"
    },
    {
      "inputs": [],
      "name": "name",
      "outputs": [
        {
          "internalType": "string",
          "name": "",
          "type": "string"
        }
      ],
      "stateMutability": "view",
      "type": "function"
    },
    {
      "inputs": [
        {
          "internalType": "address",
          "name": "",
          "type": "address"
        },
        {
          "internalType": "address",
          "name": "",
          "type": "address"
        },
        {
          "internalType": "uint256[]",
          "name": "",
          "type": "uint256[]"
        },
        {
          "internalType": "uint256[]",
          "name": "",
          "type": "uint256[]"
        },
        {
          "internalType": "bytes",
          "name": "",
          "type": "bytes"
        }
      ],
      "name": "onERC1155BatchReceived",
      "outputs": [
        {
          "internalType": "bytes4",
          "name": "",
          "type": "bytes4"
        }
      ],
      "stateMutability": "nonpayable",
      "type": "function"
    },
    {
      "inputs": [
        {
          "internalType": "address",
          "name": "",
          "type": "address"
        },
        {
          "internalType": "address",
          "name": "",
          "type": "address"
        },
        {
          "internalType": "uint256",
          "name": "",
          "type": "uint256"
        },
        {
          "internalType": "uint256",
          "name": "",
          "type": "uint256"
        },
        {
          "internalType": "bytes",
          "name": "",
          "type": "bytes"
        }
      ],
      "name": "onERC1155Received",
      "outputs": [
        {
          "internalType": "bytes4",
          "name": "",
          "type": "bytes4"
        }
      ],
      "stateMutability": "nonpayable",
      "type": "function"
    },
    {
      "inputs": [
        {
          "internalType": "address",
          "name": "",
          "type": "address"
        },
        {
          "internalType": "address",
          "name": "",
          "type": "address"
        },
        {
          "internalType": "uint256",
          "name": "",
          "type": "uint256"
        },
        {
          "internalType": "bytes",
          "name": "",
          "type": "bytes"
        }
      ],
      "name": "onERC721Received",
      "outputs": [
        {
          "internalType": "bytes4",
          "name": "",
          "type": "bytes4"
        }
      ],
      "stateMutability": "nonpayable",
      "type": "function"
    },
    {
      "inputs": [
        {
          "internalType": "uint256",
          "name": "proposalId",
          "type": "uint256"
        }
      ],
      "name": "proposalDeadline",
      "outputs": [
        {
          "internalType": "uint256",
          "name": "",
          "type": "uint256"
        }
      ],
      "stateMutability": "view",
      "type": "function"
    },
    {
      "inputs": [
        {
          "internalType": "uint256",
          "name": "proposalId",
          "type": "uint256"
        }
      ],
      "name": "proposalEta",
      "outputs": [
        {
          "internalType": "uint256",
          "name": "",
          "type": "uint256"
        }
      ],
      "stateMutability": "view",
      "type": "function"
    },
    {
      "inputs": [
        {
          "internalType": "uint256",
          "name": "proposalId",
          "type": "uint256"
        }
      ],
      "name": "proposalSnapshot",
      "outputs": [
        {
          "internalType": "uint256",
          "name": "",
          "type": "uint256"
        }
      ],
      "stateMutability": "view",
      "type": "function"
    },
    {
      "inputs": [],
      "name": "proposalThreshold",
      "outputs": [
        {
          "internalType": "uint256",
          "name": "",
          "type": "uint256"
        }
      ],
      "stateMutability": "view",
      "type": "function"
    },
    {
      "inputs": [
        {
          "internalType": "uint256",
          "name": "proposalId",
          "type": "uint256"
        }
      ],
      "name": "proposalVotes",
      "outputs": [
        {
          "internalType": "uint256",
          "name": "againstVotes",
          "type": "uint256"
        },
        {
          "internalType": "uint256",
          "name": "forVotes",
          "type": "uint256"
        },
        {
          "internalType": "uint256",
          "name": "abstainVotes",
          "type": "uint256"
        }
      ],
      "stateMutability": "view",
      "type": "function"
    },
    {
      "inputs": [
        {
          "internalType": "address[]",
          "name": "targets",
          "type": "address[]"
        },
        {
          "internalType": "uint256[]",
          "name": "values",
          "type": "uint256[]"
        },
        {
          "internalType": "bytes[]",
          "name": "calldatas",
          "type": "bytes[]"
        },
        {
          "internalType": "string",
          "name": "description",
          "type": "string"
        }
      ],
      "name": "propose",
      "outputs": [
        {
          "internalType": "uint256",
          "name": "",
          "type": "uint256"
        }
      ],
      "stateMutability": "nonpayable",
      "type": "function"
    },
    {
      "inputs": [
        {
          "internalType": "address[]",
          "name": "targets",
          "type": "address[]"
        },
        {
          "internalType": "uint256[]",
          "name": "values",
          "type": "uint256[]"
        },
        {
          "internalType": "bytes[]",
          "name": "calldatas",
          "type": "bytes[]"
        },
        {
          "internalType": "bytes32",
          "name": "descriptionHash",
          "type": "bytes32"
        }
      ],
      "name": "queue",
      "outputs": [
        {
          "internalType": "uint256",
          "name": "",
          "type": "uint256"
        }
      ],
      "stateMutability": "nonpayable",
      "type": "function"
    },
    {
      "inputs": [
        {
          "internalType": "uint256",
          "name": "blockNumber",
          "type": "uint256"
        }
      ],
      "name": "quorum",
      "outputs": [
        {
          "internalType": "uint256",
          "name": "",
          "type": "uint256"
        }
      ],
      "stateMutability": "view",
      "type": "function"
    },
    {
      "inputs": [],
      "name": "quorumDenominator",
      "outputs": [
        {
          "internalType": "uint256",
          "name": "",
          "type": "uint256"
        }
      ],
      "stateMutability": "view",
      "type": "function"
    },
    {
      "inputs": [],
      "name": "quorumNumerator",
      "outputs": [
        {
          "internalType": "uint256",
          "name": "",
          "type": "uint256"
        }
      ],
      "stateMutability": "view",
      "type": "function"
    },
    {
      "inputs": [
        {
          "internalType": "address",
          "name": "target",
          "type": "address"
        },
        {
          "internalType": "uint256",
          "name": "value",
          "type": "uint256"
        },
        {
          "internalType": "bytes",
          "name": "data",
          "type": "bytes"
        }
      ],
      "name": "relay",
      "outputs": [],
      "stateMutability": "nonpayable",
      "type": "function"
    },
    {
      "inputs": [
        {
          "internalType": "uint256",
          "name": "proposalId",
          "type": "uint256"
        }
      ],
      "name": "state",
      "outputs": [
        {
          "internalType": "enum IGovernor.ProposalState",
          "name": "",
          "type": "uint8"
        }
      ],
      "stateMutability": "view",
      "type": "function"
    },
    {
      "inputs": [
        {
          "internalType": "bytes4",
          "name": "interfaceId",
          "type": "bytes4"
        }
      ],
      "name": "supportsInterface",
      "outputs": [
        {
          "internalType": "bool",
          "name": "",
          "type": "bool"
        }
      ],
      "stateMutability": "view",
      "type": "function"
    },
    {
      "inputs": [],
      "name": "timelock",
      "outputs": [
        {
          "internalType": "address",
          "name": "",
          "type": "address"
        }
      ],
      "stateMutability": "view",
      "type": "function"
    },
    {
      "inputs": [],
      "name": "token",
      "outputs": [
        {
          "internalType": "contract IVotes",
          "name": "",
          "type": "address"
        }
      ],
      "stateMutability": "view",
      "type": "function"
    },
    {
      "inputs": [
        {
          "internalType": "uint256",
          "name": "newQuorumNumerator",
          "type": "uint256"
        }
      ],
      "name": "updateQuorumNumerator",
      "outputs": [],
      "stateMutability": "nonpayable",
      "type": "function"
    },
    {
      "inputs": [
        {
          "internalType": "contract TimelockController",
          "name": "newTimelock",
          "type": "address"
        }
      ],
      "name": "updateTimelock",
      "outputs": [],
      "stateMutability": "nonpayable",
      "type": "function"
    },
    {
      "inputs": [],
      "name": "version",
      "outputs": [
        {
          "internalType": "string",
          "name": "",
          "type": "string"
        }
      ],
      "stateMutability": "view",
      "type": "function"
    },
    {
      "inputs": [],
      "name": "votingDelay",
      "outputs": [
        {
          "internalType": "uint256",
          "name": "",
          "type": "uint256"
        }
      ],
      "stateMutability": "pure",
      "type": "function"
    },
    {
      "inputs": [],
      "name": "votingPeriod",
      "outputs": [
        {
          "internalType": "uint256",
          "name": "",
          "type": "uint256"
        }
      ],
      "stateMutability": "pure",
      "type": "function"
    },
    {
      "stateMutability": "payable",
      "type": "receive"
    }
  ],
  "bytecode": "0x6101606040523480156200001257600080fd5b50604051620067523803806200675283398181016040528101906200003891906200045a565b806033836040518060400160405280600a81526020017f5356476f7665726e6f72000000000000000000000000000000000000000000008152508062000083620001b760201b60201c565b60008280519060200120905060008280519060200120905060007f8b73c3c69bb8fe3d512ecc4cf759cc79239f7b179b0ffacaa9a75d522b39400f90508260e081815250508161010081815250504660a08181525050620000ec818484620001f460201b60201c565b608081815250503073ffffffffffffffffffffffffffffffffffffffff1660c08173ffffffffffffffffffffffffffffffffffffffff1660601b8152505080610120818152505050505050508060009080519060200190620001509291906200037c565b50508073ffffffffffffffffffffffffffffffffffffffff166101408173ffffffffffffffffffffffffffffffffffffffff1660601b81525050506200019c816200023060201b60201c565b50620001ae81620002d260201b60201c565b50505062000771565b60606040518060400160405280600181526020017f3100000000000000000000000000000000000000000000000000000000000000815250905090565b600083838346306040516020016200021195949392919062000522565b6040516020818303038152906040528051906020012090509392505050565b620002406200037360201b60201c565b81111562000285576040517f08c379a00000000000000000000000000000000000000000000000000000000081526004016200027c906200057f565b60405180910390fd5b60006005549050816005819055507f0553476bf02ef2726e8ce5ced78d63e26e602e4a2257b1f559418e24b46339978183604051620002c6929190620005a1565b60405180910390a15050565b7f08f74ea46ef7894f65eabfb5e6e695de773a000b47c529ab559178069b226401600660009054906101000a900473ffffffffffffffffffffffffffffffffffffffff168260405162000327929190620004f5565b60405180910390a180600660006101000a81548173ffffffffffffffffffffffffffffffffffffffff021916908373ffffffffffffffffffffffffffffffffffffffff16021790555050565b60006064905090565b8280546200038a9062000663565b90600052602060002090601f016020900481019282620003ae5760008555620003fa565b82601f10620003c957805160ff1916838001178555620003fa565b82800160010185558215620003fa579182015b82811115620003f9578251825591602001919060010190620003dc565b5b5090506200040991906200040d565b5090565b5b80821115620004285760008160009055506001016200040e565b5090565b6000815190506200043d816200073d565b92915050565b600081519050620004548162000757565b92915050565b600080604083850312156200046e57600080fd5b60006200047e858286016200042c565b9250506020620004918582860162000443565b9150509250929050565b620004a681620005df565b82525050565b620004b78162000607565b82525050565b6000620004cc604383620005ce565b9150620004d982620006c8565b606082019050919050565b620004ef8162000659565b82525050565b60006040820190506200050c60008301856200049b565b6200051b60208301846200049b565b9392505050565b600060a082019050620005396000830188620004ac565b620005486020830187620004ac565b620005576040830186620004ac565b620005666060830185620004e4565b6200057560808301846200049b565b9695505050505050565b600060208201905081810360008301526200059a81620004bd565b9050919050565b6000604082019050620005b86000830185620004e4565b620005c76020830184620004e4565b9392505050565b600082825260208201905092915050565b6000620005ec8262000639565b9050919050565b6000620006008262000639565b9050919050565b6000819050919050565b60006200061e82620005df565b9050919050565b60006200063282620005f3565b9050919050565b600073ffffffffffffffffffffffffffffffffffffffff82169050919050565b6000819050919050565b600060028204905060018216806200067c57607f821691505b6020821081141562000693576200069262000699565b5b50919050565b7f4e487b7100000000000000000000000000000000000000000000000000000000600052602260045260246000fd5b7f476f7665726e6f72566f74657351756f72756d4672616374696f6e3a2071756f60008201527f72756d4e756d657261746f72206f7665722071756f72756d44656e6f6d696e6160208201527f746f720000000000000000000000000000000000000000000000000000000000604082015250565b620007488162000611565b81146200075457600080fd5b50565b620007628162000625565b81146200076e57600080fd5b50565b60805160a05160c05160601c60e05161010051610120516101405160601c615f72620007e0600039600081816119e2015281816125b8015261276301526000612a3801526000612a7a01526000612a590152600061298e015260006129e401526000612a0d0152615f726000f3fe60806040526004361061021e5760003560e01c80637b3c71d311610123578063c01f9e37116100ab578063deaaa7cc1161006f578063deaaa7cc1461090e578063eb9019d414610939578063f23a6e6114610976578063f8ce560a146109b3578063fc0c546a146109f057610264565b8063c01f9e3714610815578063c28bc2fa14610852578063c59057e41461087b578063d33219b4146108b8578063dd4e2ba5146108e357610264565b8063a7713a70116100f2578063a7713a701461071c578063a890c91014610747578063ab58fb8e14610770578063b58131b0146107ad578063bc197c81146107d857610264565b80637b3c71d31461063a5780637d5e81e21461067757806397c3d334146106b45780639a802a6d146106df57610264565b80632fe3e261116101a657806343859632116101755780634385963214610519578063544ffc9c1461055657806354fd4d501461059557806356781388146105c05780635f398a14146105fd57610264565b80632fe3e261146104495780633932abb1146104745780633bccf4fd1461049f5780633e4f49e6146104dc57610264565b806306fdde03116101ed57806306fdde0314610337578063150b7a0214610362578063160cbed71461039f5780632656227d146103dc5780632d63f6931461040c57610264565b806301ffc9a71461026957806302a251a3146102a657806303420181146102d157806306f3f9e61461030e57610264565b36610264573073ffffffffffffffffffffffffffffffffffffffff16610242610a1b565b73ffffffffffffffffffffffffffffffffffffffff161461026257600080fd5b005b600080fd5b34801561027557600080fd5b50610290600480360381019061028b919061407c565b610a2a565b60405161029d9190614c8d565b60405180910390f35b3480156102b257600080fd5b506102bb610a3c565b6040516102c89190615098565b60405180910390f35b3480156102dd57600080fd5b506102f860048036038101906102f3919061429c565b610a45565b6040516103059190615098565b60405180910390f35b34801561031a57600080fd5b50610335600480360381019061033091906140ce565b610b2a565b005b34801561034357600080fd5b5061034c610c26565b6040516103599190614e36565b60405180910390f35b34801561036e57600080fd5b5061038960048036038101906103849190613ca3565b610cb8565b6040516103969190614de5565b60405180910390f35b3480156103ab57600080fd5b506103c660048036038101906103c19190613ebc565b610ccc565b6040516103d39190615098565b60405180910390f35b6103f660048036038101906103f19190613ebc565b610ff0565b6040516104039190615098565b60405180910390f35b34801561041857600080fd5b50610433600480360381019061042e91906140ce565b6111d5565b6040516104409190615098565b60405180910390f35b34801561045557600080fd5b5061045e611243565b60405161046b9190614ca8565b60405180910390f35b34801561048057600080fd5b50610489611267565b6040516104969190615098565b60405180910390f35b3480156104ab57600080fd5b506104c660048036038101906104c1919061436e565b611270565b6040516104d39190615098565b60405180910390f35b3480156104e857600080fd5b5061050360048036038101906104fe91906140ce565b6112fa565b6040516105109190614e1b565b60405180910390f35b34801561052557600080fd5b50610540600480360381019061053b9190614120565b61130c565b60405161054d9190614c8d565b60405180910390f35b34801561056257600080fd5b5061057d600480360381019061057891906140ce565b611377565b60405161058c9392919061518c565b60405180910390f35b3480156105a157600080fd5b506105aa6113af565b6040516105b79190614e36565b60405180910390f35b3480156105cc57600080fd5b506105e760048036038101906105e2919061415c565b6113ec565b6040516105f49190615098565b60405180910390f35b34801561060957600080fd5b50610624600480360381019061061f9190614204565b61141d565b6040516106319190615098565b60405180910390f35b34801561064657600080fd5b50610661600480360381019061065c9190614198565b611487565b60405161066e9190615098565b60405180910390f35b34801561068357600080fd5b5061069e60048036038101906106999190613f67565b6114ef565b6040516106ab9190615098565b60405180910390f35b3480156106c057600080fd5b506106c9611507565b6040516106d69190615098565b60405180910390f35b3480156106eb57600080fd5b5061070660048036038101906107019190613e55565b611510565b6040516107139190615098565b60405180910390f35b34801561072857600080fd5b50610731611526565b60405161073e9190615098565b60405180910390f35b34801561075357600080fd5b5061076e600480360381019061076991906140a5565b611530565b005b34801561077c57600080fd5b50610797600480360381019061079291906140ce565b61162c565b6040516107a49190615098565b60405180910390f35b3480156107b957600080fd5b506107c2611708565b6040516107cf9190615098565b60405180910390f35b3480156107e457600080fd5b506107ff60048036038101906107fa9190613be4565b61170d565b60405161080c9190614de5565b60405180910390f35b34801561082157600080fd5b5061083c600480360381019061083791906140ce565b611722565b6040516108499190615098565b60405180910390f35b34801561085e57600080fd5b5061087960048036038101906108749190613de9565b611790565b005b34801561088757600080fd5b506108a2600480360381019061089d9190613ebc565b6118d6565b6040516108af9190615098565b60405180910390f35b3480156108c457600080fd5b506108cd611912565b6040516108da9190614ae8565b60405180910390f35b3480156108ef57600080fd5b506108f861193c565b6040516109059190614e36565b60405180910390f35b34801561091a57600080fd5b50610923611979565b6040516109309190614ca8565b60405180910390f35b34801561094557600080fd5b50610960600480360381019061095b9190613dad565b61199d565b60405161096d9190615098565b60405180910390f35b34801561098257600080fd5b5061099d60048036038101906109989190613d1e565b6119b9565b6040516109aa9190614de5565b60405180910390f35b3480156109bf57600080fd5b506109da60048036038101906109d591906140ce565b6119ce565b6040516109e79190615098565b60405180910390f35b3480156109fc57600080fd5b50610a056119e0565b604051610a129190614e00565b60405180910390f35b6000610a25611a04565b905090565b6000610a3582611a2e565b9050919050565b60006044905090565b600080610ac8610ac07fb3b3f3b703cd84ce352197dcff232b1b5d3cfb2025ce47cf04742d0651f1af888c8c8c8c604051610a81929190614a81565b60405180910390208b80519060200120604051602001610aa5959493929190614d4d565b60405160208183030381529060405280519060200120611aa8565b868686611ac2565b9050610b1b8a828b8b8b8080601f016020809104026020016040519081016040528093929190818152602001838380828437600081840152601f19601f820116905080830192505050505050508a611aed565b91505098975050505050505050565b610b32610a1b565b73ffffffffffffffffffffffffffffffffffffffff16610b50611cf6565b73ffffffffffffffffffffffffffffffffffffffff1614610ba6576040517f08c379a0000000000000000000000000000000000000000000000000000000008152600401610b9d90614e78565b60405180910390fd5b3073ffffffffffffffffffffffffffffffffffffffff16610bc5610a1b565b73ffffffffffffffffffffffffffffffffffffffff1614610c1a576000610bea611cfe565b604051610bf8929190614a81565b604051809103902090505b80610c0e6002611d0b565b14610c1857610c03565b505b610c2381611de7565b50565b606060008054610c35906157a6565b80601f0160208091040260200160405190810160405280929190818152602001828054610c61906157a6565b8015610cae5780601f10610c8357610100808354040283529160200191610cae565b820191906000526020600020905b815481529060010190602001808311610c9157829003601f168201915b5050505050905090565b600063150b7a0260e01b9050949350505050565b600080610cdb868686866118d6565b905060046007811115610d17577f4e487b7100000000000000000000000000000000000000000000000000000000600052602160045260246000fd5b610d20826112fa565b6007811115610d58577f4e487b7100000000000000000000000000000000000000000000000000000000600052602160045260246000fd5b14610d98576040517f08c379a0000000000000000000000000000000000000000000000000000000008152600401610d8f90614fd8565b60405180910390fd5b6000600660009054906101000a900473ffffffffffffffffffffffffffffffffffffffff1673ffffffffffffffffffffffffffffffffffffffff1663f27a0c926040518163ffffffff1660e01b815260040160206040518083038186803b158015610e0257600080fd5b505afa158015610e16573d6000803e3d6000fd5b505050506040513d601f19601f82011682018060405250810190610e3a91906140f7565b9050600660009054906101000a900473ffffffffffffffffffffffffffffffffffffffff1673ffffffffffffffffffffffffffffffffffffffff1663b1c5f4278888886000896040518663ffffffff1660e01b8152600401610ea0959493929190614baf565b60206040518083038186803b158015610eb857600080fd5b505afa158015610ecc573d6000803e3d6000fd5b505050506040513d601f19601f82011682018060405250810190610ef09190614053565b6007600084815260200190815260200160002081905550600660009054906101000a900473ffffffffffffffffffffffffffffffffffffffff1673ffffffffffffffffffffffffffffffffffffffff16638f2a0bb0888888600089876040518763ffffffff1660e01b8152600401610f6d96959493929190614c17565b600060405180830381600087803b158015610f8757600080fd5b505af1158015610f9b573d6000803e3d6000fd5b505050507f9a2e42fd6722813d69113e7d0079d3d940171428df7373df9c7f7617cfda2892828242610fcd91906154cf565b604051610fdb929190615163565b60405180910390a18192505050949350505050565b600080610fff868686866118d6565b9050600061100c826112fa565b905060046007811115611048577f4e487b7100000000000000000000000000000000000000000000000000000000600052602160045260246000fd5b816007811115611081577f4e487b7100000000000000000000000000000000000000000000000000000000600052602160045260246000fd5b14806110fd5750600560078111156110c2577f4e487b7100000000000000000000000000000000000000000000000000000000600052602160045260246000fd5b8160078111156110fb577f4e487b7100000000000000000000000000000000000000000000000000000000600052602160045260246000fd5b145b61113c576040517f08c379a000000000000000000000000000000000000000000000000000000000815260040161113390614fd8565b60405180910390fd5b600180600084815260200190815260200160002060020160006101000a81548160ff0219169083151502179055507f712ae1383f79ac853f8d882153778e0260ef8f03b504e2866e0593e04d2b291f826040516111999190615098565b60405180910390a16111ae8288888888611e7c565b6111bb8288888888611fac565b6111c88288888888611fc0565b8192505050949350505050565b6000611232600160008481526020019081526020016000206000016040518060200160405290816000820160009054906101000a900467ffffffffffffffff1667ffffffffffffffff1667ffffffffffffffff168152505061201b565b67ffffffffffffffff169050919050565b7fb3b3f3b703cd84ce352197dcff232b1b5d3cfb2025ce47cf04742d0651f1af8881565b60006001905090565b6000806112d16112c97f150214d74d59b7d1e90c73fc22ef3d991dd0a76b046543d4d80ab92d2a50328f89896040516020016112ae93929190614d16565b60405160208183030381529060405280519060200120611aa8565b868686611ac2565b90506112ee87828860405180602001604052806000815250612029565b91505095945050505050565b600061130582612049565b9050919050565b60006004600084815260200190815260200160002060030160008373ffffffffffffffffffffffffffffffffffffffff1673ffffffffffffffffffffffffffffffffffffffff16815260200190815260200160002060009054906101000a900460ff16905092915050565b600080600080600460008681526020019081526020016000209050806000015481600101548260020154935093509350509193909250565b60606040518060400160405280600181526020017f3100000000000000000000000000000000000000000000000000000000000000815250905090565b6000806113f7611cf6565b905061141484828560405180602001604052806000815250612029565b91505092915050565b600080611428611cf6565b905061147b87828888888080601f016020809104026020016040519081016040528093929190818152602001838380828437600081840152601f19601f8201169050808301925050505050505087611aed565b91505095945050505050565b600080611492611cf6565b90506114e486828787878080601f016020809104026020016040519081016040528093929190818152602001838380828437600081840152601f19601f82011690508083019250505050505050612029565b915050949350505050565b60006114fd85858585612287565b9050949350505050565b60006064905090565b600061151d8484846125b4565b90509392505050565b6000600554905090565b611538610a1b565b73ffffffffffffffffffffffffffffffffffffffff16611556611cf6565b73ffffffffffffffffffffffffffffffffffffffff16146115ac576040517f08c379a00000000000000000000000000000000000000000000000000000000081526004016115a390614e78565b60405180910390fd5b3073ffffffffffffffffffffffffffffffffffffffff166115cb610a1b565b73ffffffffffffffffffffffffffffffffffffffff16146116205760006115f0611cfe565b6040516115fe929190614a81565b604051809103902090505b806116146002611d0b565b1461161e57611609565b505b6116298161266a565b50565b600080600660009054906101000a900473ffffffffffffffffffffffffffffffffffffffff1673ffffffffffffffffffffffffffffffffffffffff1663d45c443560076000868152602001908152602001600020546040518263ffffffff1660e01b815260040161169d9190614ca8565b60206040518083038186803b1580156116b557600080fd5b505afa1580156116c9573d6000803e3d6000fd5b505050506040513d601f19601f820116820180604052508101906116ed91906140f7565b9050600181146116fd5780611700565b60005b915050919050565b600090565b600063bc197c8160e01b905095945050505050565b600061177f600160008481526020019081526020016000206001016040518060200160405290816000820160009054906101000a900467ffffffffffffffff1667ffffffffffffffff1667ffffffffffffffff168152505061201b565b67ffffffffffffffff169050919050565b611798610a1b565b73ffffffffffffffffffffffffffffffffffffffff166117b6611cf6565b73ffffffffffffffffffffffffffffffffffffffff161461180c576040517f08c379a000000000000000000000000000000000000000000000000000000000815260040161180390614e78565b60405180910390fd5b3073ffffffffffffffffffffffffffffffffffffffff1661182b610a1b565b73ffffffffffffffffffffffffffffffffffffffff1614611880576000611850611cfe565b60405161185e929190614a81565b604051809103902090505b806118746002611d0b565b1461187e57611869565b505b6118cf8483838080601f016020809104026020016040519081016040528093929190818152602001838380828437600081840152601f19601f8201169050808301925050505050505085612709565b5050505050565b6000848484846040516020016118ef9493929190614b55565b6040516020818303038152906040528051906020012060001c9050949350505050565b6000600660009054906101000a900473ffffffffffffffffffffffffffffffffffffffff16905090565b60606040518060400160405280602081526020017f737570706f72743d627261766f2671756f72756d3d666f722c6162737461696e815250905090565b7f150214d74d59b7d1e90c73fc22ef3d991dd0a76b046543d4d80ab92d2a50328f81565b60006119b183836119ac612738565b6125b4565b905092915050565b600063f23a6e6160e01b905095945050505050565b60006119d98261274f565b9050919050565b7f000000000000000000000000000000000000000000000000000000000000000081565b6000600660009054906101000a900473ffffffffffffffffffffffffffffffffffffffff16905090565b60007f6e665ced000000000000000000000000000000000000000000000000000000007bffffffffffffffffffffffffffffffffffffffffffffffffffffffff1916827bffffffffffffffffffffffffffffffffffffffffffffffffffffffff19161480611aa15750611aa082612825565b5b9050919050565b6000611abb611ab561298a565b83612aa4565b9050919050565b6000806000611ad387878787612ad7565b91509150611ae081612be4565b8192505050949350505050565b60008060016000888152602001908152602001600020905060016007811115611b3f577f4e487b7100000000000000000000000000000000000000000000000000000000600052602160045260246000fd5b611b48886112fa565b6007811115611b80577f4e487b7100000000000000000000000000000000000000000000000000000000600052602160045260246000fd5b14611bc0576040517f08c379a0000000000000000000000000000000000000000000000000000000008152600401611bb790614f58565b60405180910390fd5b6000611c1f87611c0f846000016040518060200160405290816000820160009054906101000a900467ffffffffffffffff1667ffffffffffffffff1667ffffffffffffffff168152505061201b565b67ffffffffffffffff16866125b4565b9050611c2e8888888488612f35565b600084511415611c91578673ffffffffffffffffffffffffffffffffffffffff167fb8e138887d0aa13bab447e82de9d5c1777041ecd21ca36ba824ff1e6c07ddda489888489604051611c8494939291906151c3565b60405180910390a2611ce8565b8673ffffffffffffffffffffffffffffffffffffffff167fe2babfbac5889a709b63bb7f598b324e08bc5a4fb9ec647fb3cbc9ec07eb87128988848989604051611cdf95949392919061520f565b60405180910390a25b809250505095945050505050565b600033905090565b3660008036915091509091565b6000611d16826131ae565b15611d4d576040517f3db2a12a00000000000000000000000000000000000000000000000000000000815260040160405180910390fd5b60008260000160009054906101000a9004600f0b905082600101600082600f0b600f0b815260200190815260200160002054915082600101600082600f0b600f0b815260200190815260200160002060009055600181018360000160006101000a8154816fffffffffffffffffffffffffffffffff0219169083600f0b6fffffffffffffffffffffffffffffffff16021790555050919050565b611def611507565b811115611e31576040517f08c379a0000000000000000000000000000000000000000000000000000000008152600401611e2890614e98565b60405180910390fd5b60006005549050816005819055507f0553476bf02ef2726e8ce5ced78d63e26e602e4a2257b1f559418e24b46339978183604051611e70929190615163565b60405180910390a15050565b3073ffffffffffffffffffffffffffffffffffffffff16611e9b610a1b565b73ffffffffffffffffffffffffffffffffffffffff1614611fa55760005b8451811015611fa3573073ffffffffffffffffffffffffffffffffffffffff16858281518110611f12577f4e487b7100000000000000000000000000000000000000000000000000000000600052603260045260246000fd5b602002602001015173ffffffffffffffffffffffffffffffffffffffff161415611f9257611f91838281518110611f72577f4e487b7100000000000000000000000000000000000000000000000000000000600052603260045260246000fd5b60200260200101518051906020012060026131e390919063ffffffff16565b5b80611f9c90615809565b9050611eb9565b505b5050505050565b611fb9858585858561325f565b5050505050565b3073ffffffffffffffffffffffffffffffffffffffff16611fdf610a1b565b73ffffffffffffffffffffffffffffffffffffffff16146120145761200460026131ae565b6120135761201260026132fd565b5b5b5050505050565b600081600001519050919050565b600061203f8585858561203a612738565b611aed565b9050949350505050565b6000806120558361337e565b905060046007811115612091577f4e487b7100000000000000000000000000000000000000000000000000000000600052602160045260246000fd5b8160078111156120ca577f4e487b7100000000000000000000000000000000000000000000000000000000600052602160045260246000fd5b146120d85780915050612282565b6000600760008581526020019081526020016000205490506000801b811415612105578192505050612282565b600660009054906101000a900473ffffffffffffffffffffffffffffffffffffffff1673ffffffffffffffffffffffffffffffffffffffff16632ab0f529826040518263ffffffff1660e01b81526004016121609190614ca8565b60206040518083038186803b15801561217857600080fd5b505afa15801561218c573d6000803e3d6000fd5b505050506040513d601f19601f820116820180604052508101906121b0919061402a565b156121c057600792505050612282565b600660009054906101000a900473ffffffffffffffffffffffffffffffffffffffff1673ffffffffffffffffffffffffffffffffffffffff1663584b153e826040518263ffffffff1660e01b815260040161221b9190614ca8565b60206040518083038186803b15801561223357600080fd5b505afa158015612247573d6000803e3d6000fd5b505050506040513d601f19601f8201168201806040525081019061226b919061402a565b1561227b57600592505050612282565b6002925050505b919050565b6000612291611708565b6122ae61229c611cf6565b6001436122a991906155ee565b61199d565b10156122ef576040517f08c379a00000000000000000000000000000000000000000000000000000000081526004016122e690615078565b60405180910390fd5b600061230486868686805190602001206118d6565b9050845186511461234a576040517f08c379a000000000000000000000000000000000000000000000000000000000815260040161234190614ed8565b60405180910390fd5b835186511461238e576040517f08c379a000000000000000000000000000000000000000000000000000000000815260040161238590614ed8565b60405180910390fd5b60008651116123d2576040517f08c379a00000000000000000000000000000000000000000000000000000000081526004016123c990614f78565b60405180910390fd5b6000600160008381526020019081526020016000209050612432816000016040518060200160405290816000820160009054906101000a900467ffffffffffffffff1667ffffffffffffffff1667ffffffffffffffff1681525050613493565b612471576040517f08c379a000000000000000000000000000000000000000000000000000000000815260040161246890615038565b60405180910390fd5b600061248361247e611267565b6134ad565b61248c436134ad565b6124969190615525565b905060006124aa6124a5610a3c565b6134ad565b826124b59190615525565b90506124cd828460000161350490919063ffffffff16565b6124e3818460010161350490919063ffffffff16565b7f7d84a6263ae0d98d3329bd7b46bb4e8d6f98cd35a7adb45c274c8b7fd5ebd5e08461250d611cf6565b8b8b8d5167ffffffffffffffff811115612550577f4e487b7100000000000000000000000000000000000000000000000000000000600052604160045260246000fd5b60405190808252806020026020018201604052801561258357816020015b606081526020019060019003908161256e5790505b508c88888e60405161259d999897969594939291906150b3565b60405180910390a183945050505050949350505050565b60007f000000000000000000000000000000000000000000000000000000000000000073ffffffffffffffffffffffffffffffffffffffff16633a46b1a885856040518363ffffffff1660e01b8152600401612611929190614b2c565b60206040518083038186803b15801561262957600080fd5b505afa15801561263d573d6000803e3d6000fd5b505050506040513d601f19601f8201168201806040525081019061266191906140f7565b90509392505050565b7f08f74ea46ef7894f65eabfb5e6e695de773a000b47c529ab559178069b226401600660009054906101000a900473ffffffffffffffffffffffffffffffffffffffff16826040516126bd929190614b03565b60405180910390a180600660006101000a81548173ffffffffffffffffffffffffffffffffffffffff021916908373ffffffffffffffffffffffffffffffffffffffff16021790555050565b606061272f848484604051806060016040528060298152602001615f1460299139613533565b90509392505050565b606060405180602001604052806000815250905090565b6000612759611507565b612761611526565b7f000000000000000000000000000000000000000000000000000000000000000073ffffffffffffffffffffffffffffffffffffffff16638e539e8c856040518263ffffffff1660e01b81526004016127ba9190615098565b60206040518083038186803b1580156127d257600080fd5b505afa1580156127e6573d6000803e3d6000fd5b505050506040513d601f19601f8201168201806040525081019061280a91906140f7565b6128149190615594565b61281e9190615563565b9050919050565b6000639a802a6d60e01b630342018160e01b635f398a1460e01b7f79dd796f000000000000000000000000000000000000000000000000000000001818187bffffffffffffffffffffffffffffffffffffffffffffffffffffffff1916827bffffffffffffffffffffffffffffffffffffffffffffffffffffffff1916148061290b57507f79dd796f000000000000000000000000000000000000000000000000000000007bffffffffffffffffffffffffffffffffffffffffffffffffffffffff1916827bffffffffffffffffffffffffffffffffffffffffffffffffffffffff1916145b8061297357507f4e2312e0000000000000000000000000000000000000000000000000000000007bffffffffffffffffffffffffffffffffffffffffffffffffffffffff1916827bffffffffffffffffffffffffffffffffffffffffffffffffffffffff1916145b80612983575061298282613647565b5b9050919050565b60007f000000000000000000000000000000000000000000000000000000000000000073ffffffffffffffffffffffffffffffffffffffff163073ffffffffffffffffffffffffffffffffffffffff16148015612a0657507f000000000000000000000000000000000000000000000000000000000000000046145b15612a33577f00000000000000000000000000000000000000000000000000000000000000009050612aa1565b612a9e7f00000000000000000000000000000000000000000000000000000000000000007f00000000000000000000000000000000000000000000000000000000000000007f00000000000000000000000000000000000000000000000000000000000000006136b1565b90505b90565b60008282604051602001612ab9929190614ab1565b60405160208183030381529060405280519060200120905092915050565b6000807f7fffffffffffffffffffffffffffffff5d576e7357a4501ddfe92f46681b20a08360001c1115612b12576000600391509150612bdb565b601b8560ff1614158015612b2a5750601c8560ff1614155b15612b3c576000600491509150612bdb565b600060018787878760405160008152602001604052604051612b619493929190614da0565b6020604051602081039080840390855afa158015612b83573d6000803e3d6000fd5b505050602060405103519050600073ffffffffffffffffffffffffffffffffffffffff168173ffffffffffffffffffffffffffffffffffffffff161415612bd257600060019250925050612bdb565b80600092509250505b94509492505050565b60006004811115612c1e577f4e487b7100000000000000000000000000000000000000000000000000000000600052602160045260246000fd5b816004811115612c57577f4e487b7100000000000000000000000000000000000000000000000000000000600052602160045260246000fd5b1415612c6257612f32565b60016004811115612c9c577f4e487b7100000000000000000000000000000000000000000000000000000000600052602160045260246000fd5b816004811115612cd5577f4e487b7100000000000000000000000000000000000000000000000000000000600052602160045260246000fd5b1415612d16576040517f08c379a0000000000000000000000000000000000000000000000000000000008152600401612d0d90614e58565b60405180910390fd5b60026004811115612d50577f4e487b7100000000000000000000000000000000000000000000000000000000600052602160045260246000fd5b816004811115612d89577f4e487b7100000000000000000000000000000000000000000000000000000000600052602160045260246000fd5b1415612dca576040517f08c379a0000000000000000000000000000000000000000000000000000000008152600401612dc190614eb8565b60405180910390fd5b60036004811115612e04577f4e487b7100000000000000000000000000000000000000000000000000000000600052602160045260246000fd5b816004811115612e3d577f4e487b7100000000000000000000000000000000000000000000000000000000600052602160045260246000fd5b1415612e7e576040517f08c379a0000000000000000000000000000000000000000000000000000000008152600401612e7590614ef8565b60405180910390fd5b600480811115612eb7577f4e487b7100000000000000000000000000000000000000000000000000000000600052602160045260246000fd5b816004811115612ef0577f4e487b7100000000000000000000000000000000000000000000000000000000600052602160045260246000fd5b1415612f31576040517f08c379a0000000000000000000000000000000000000000000000000000000008152600401612f2890614f98565b60405180910390fd5b5b50565b60006004600087815260200190815260200160002090508060030160008673ffffffffffffffffffffffffffffffffffffffff1673ffffffffffffffffffffffffffffffffffffffff16815260200190815260200160002060009054906101000a900460ff1615612fdb576040517f08c379a0000000000000000000000000000000000000000000000000000000008152600401612fd290614f18565b60405180910390fd5b60018160030160008773ffffffffffffffffffffffffffffffffffffffff1673ffffffffffffffffffffffffffffffffffffffff16815260200190815260200160002060006101000a81548160ff0219169083151502179055506000600281111561306f577f4e487b7100000000000000000000000000000000000000000000000000000000600052602160045260246000fd5b60ff168460ff16141561309c578281600001600082825461309091906154cf565b925050819055506131a6565b600160028111156130d6577f4e487b7100000000000000000000000000000000000000000000000000000000600052602160045260246000fd5b60ff168460ff16141561310357828160010160008282546130f791906154cf565b925050819055506131a5565b60028081111561313c577f4e487b7100000000000000000000000000000000000000000000000000000000600052602160045260246000fd5b60ff168460ff161415613169578281600201600082825461315d91906154cf565b925050819055506131a4565b6040517f08c379a000000000000000000000000000000000000000000000000000000000815260040161319b90615018565b60405180910390fd5b5b5b505050505050565b60008160000160009054906101000a9004600f0b600f0b8260000160109054906101000a9004600f0b600f0b13159050919050565b60008260000160109054906101000a9004600f0b90508183600101600083600f0b600f0b815260200190815260200160002081905550600181018360000160106101000a8154816fffffffffffffffffffffffffffffffff0219169083600f0b6fffffffffffffffffffffffffffffffff160217905550505050565b600660009054906101000a900473ffffffffffffffffffffffffffffffffffffffff1673ffffffffffffffffffffffffffffffffffffffff1663e38335e5348686866000876040518763ffffffff1660e01b81526004016132c4959493929190614baf565b6000604051808303818588803b1580156132dd57600080fd5b505af11580156132f1573d6000803e3d6000fd5b50505050505050505050565b60008160000160006101000a8154816fffffffffffffffffffffffffffffffff0219169083600f0b6fffffffffffffffffffffffffffffffff16021790555060008160000160106101000a8154816fffffffffffffffffffffffffffffffff0219169083600f0b6fffffffffffffffffffffffffffffffff16021790555050565b6000806001600084815260200190815260200160002090508060020160009054906101000a900460ff16156133b757600791505061348e565b8060020160019054906101000a900460ff16156133d857600291505061348e565b60006133e3846111d5565b90506000811415613429576040517f08c379a000000000000000000000000000000000000000000000000000000000815260040161342090614ff8565b60405180910390fd5b43811061343b5760009250505061348e565b600061344685611722565b905043811061345b576001935050505061348e565b613464856136eb565b8015613475575061347485613732565b5b15613486576004935050505061348e565b600393505050505b919050565b600080826000015167ffffffffffffffff16149050919050565b600067ffffffffffffffff80168211156134fc576040517f08c379a00000000000000000000000000000000000000000000000000000000081526004016134f390614fb8565b60405180910390fd5b819050919050565b808260000160006101000a81548167ffffffffffffffff021916908367ffffffffffffffff1602179055505050565b606082471015613578576040517f08c379a000000000000000000000000000000000000000000000000000000000815260040161356f90614f38565b60405180910390fd5b6135818561375d565b6135c0576040517f08c379a00000000000000000000000000000000000000000000000000000000081526004016135b790615058565b60405180910390fd5b6000808673ffffffffffffffffffffffffffffffffffffffff1685876040516135e99190614a9a565b60006040518083038185875af1925050503d8060008114613626576040519150601f19603f3d011682016040523d82523d6000602084013e61362b565b606091505b509150915061363b828286613780565b92505050949350505050565b60007f01ffc9a7000000000000000000000000000000000000000000000000000000007bffffffffffffffffffffffffffffffffffffffffffffffffffffffff1916827bffffffffffffffffffffffffffffffffffffffffffffffffffffffff1916149050919050565b600083838346306040516020016136cc959493929190614cc3565b6040516020818303038152906040528051906020012090509392505050565b6000806004600084815260200190815260200160002090508060020154816001015461371791906154cf565b613728613723856111d5565b6119ce565b1115915050919050565b6000806004600084815260200190815260200160002090508060000154816001015411915050919050565b6000808273ffffffffffffffffffffffffffffffffffffffff163b119050919050565b60608315613790578290506137e0565b6000835111156137a35782518084602001fd5b816040517f08c379a00000000000000000000000000000000000000000000000000000000081526004016137d79190614e36565b60405180910390fd5b9392505050565b60006137fa6137f584615295565b615270565b9050808382526020820190508285602086028201111561381957600080fd5b60005b85811015613849578161382f88826139c1565b84526020840193506020830192505060018101905061381c565b5050509392505050565b6000613866613861846152c1565b615270565b9050808382526020820190508285602086028201111561388557600080fd5b60005b858110156138cf57813567ffffffffffffffff8111156138a757600080fd5b8086016138b48982613af2565b85526020850194506020840193505050600181019050613888565b5050509392505050565b60006138ec6138e7846152ed565b615270565b9050808382526020820190508285602086028201111561390b57600080fd5b60005b8581101561393b57816139218882613ba5565b84526020840193506020830192505060018101905061390e565b5050509392505050565b600061395861395384615319565b615270565b90508281526020810184848401111561397057600080fd5b61397b848285615764565b509392505050565b60006139966139918461534a565b615270565b9050828152602081018484840111156139ae57600080fd5b6139b9848285615764565b509392505050565b6000813590506139d081615e72565b92915050565b600082601f8301126139e757600080fd5b81356139f78482602086016137e7565b91505092915050565b600082601f830112613a1157600080fd5b8135613a21848260208601613853565b91505092915050565b600082601f830112613a3b57600080fd5b8135613a4b8482602086016138d9565b91505092915050565b600081519050613a6381615e89565b92915050565b600081359050613a7881615ea0565b92915050565b600081519050613a8d81615ea0565b92915050565b600081359050613aa281615eb7565b92915050565b60008083601f840112613aba57600080fd5b8235905067ffffffffffffffff811115613ad357600080fd5b602083019150836001820283011115613aeb57600080fd5b9250929050565b600082601f830112613b0357600080fd5b8135613b13848260208601613945565b91505092915050565b600081359050613b2b81615ece565b92915050565b60008083601f840112613b4357600080fd5b8235905067ffffffffffffffff811115613b5c57600080fd5b602083019150836001820283011115613b7457600080fd5b9250929050565b600082601f830112613b8c57600080fd5b8135613b9c848260208601613983565b91505092915050565b600081359050613bb481615ee5565b92915050565b600081519050613bc981615ee5565b92915050565b600081359050613bde81615efc565b92915050565b600080600080600060a08688031215613bfc57600080fd5b6000613c0a888289016139c1565b9550506020613c1b888289016139c1565b945050604086013567ffffffffffffffff811115613c3857600080fd5b613c4488828901613a2a565b935050606086013567ffffffffffffffff811115613c6157600080fd5b613c6d88828901613a2a565b925050608086013567ffffffffffffffff811115613c8a57600080fd5b613c9688828901613af2565b9150509295509295909350565b60008060008060808587031215613cb957600080fd5b6000613cc7878288016139c1565b9450506020613cd8878288016139c1565b9350506040613ce987828801613ba5565b925050606085013567ffffffffffffffff811115613d0657600080fd5b613d1287828801613af2565b91505092959194509250565b600080600080600060a08688031215613d3657600080fd5b6000613d44888289016139c1565b9550506020613d55888289016139c1565b9450506040613d6688828901613ba5565b9350506060613d7788828901613ba5565b925050608086013567ffffffffffffffff811115613d9457600080fd5b613da088828901613af2565b9150509295509295909350565b60008060408385031215613dc057600080fd5b6000613dce858286016139c1565b9250506020613ddf85828601613ba5565b9150509250929050565b60008060008060608587031215613dff57600080fd5b6000613e0d878288016139c1565b9450506020613e1e87828801613ba5565b935050604085013567ffffffffffffffff811115613e3b57600080fd5b613e4787828801613aa8565b925092505092959194509250565b600080600060608486031215613e6a57600080fd5b6000613e78868287016139c1565b9350506020613e8986828701613ba5565b925050604084013567ffffffffffffffff811115613ea657600080fd5b613eb286828701613af2565b9150509250925092565b60008060008060808587031215613ed257600080fd5b600085013567ffffffffffffffff811115613eec57600080fd5b613ef8878288016139d6565b945050602085013567ffffffffffffffff811115613f1557600080fd5b613f2187828801613a2a565b935050604085013567ffffffffffffffff811115613f3e57600080fd5b613f4a87828801613a00565b9250506060613f5b87828801613a69565b91505092959194509250565b60008060008060808587031215613f7d57600080fd5b600085013567ffffffffffffffff811115613f9757600080fd5b613fa3878288016139d6565b945050602085013567ffffffffffffffff811115613fc057600080fd5b613fcc87828801613a2a565b935050604085013567ffffffffffffffff811115613fe957600080fd5b613ff587828801613a00565b925050606085013567ffffffffffffffff81111561401257600080fd5b61401e87828801613b7b565b91505092959194509250565b60006020828403121561403c57600080fd5b600061404a84828501613a54565b91505092915050565b60006020828403121561406557600080fd5b600061407384828501613a7e565b91505092915050565b60006020828403121561408e57600080fd5b600061409c84828501613a93565b91505092915050565b6000602082840312156140b757600080fd5b60006140c584828501613b1c565b91505092915050565b6000602082840312156140e057600080fd5b60006140ee84828501613ba5565b91505092915050565b60006020828403121561410957600080fd5b600061411784828501613bba565b91505092915050565b6000806040838503121561413357600080fd5b600061414185828601613ba5565b9250506020614152858286016139c1565b9150509250929050565b6000806040838503121561416f57600080fd5b600061417d85828601613ba5565b925050602061418e85828601613bcf565b9150509250929050565b600080600080606085870312156141ae57600080fd5b60006141bc87828801613ba5565b94505060206141cd87828801613bcf565b935050604085013567ffffffffffffffff8111156141ea57600080fd5b6141f687828801613b31565b925092505092959194509250565b60008060008060006080868803121561421c57600080fd5b600061422a88828901613ba5565b955050602061423b88828901613bcf565b945050604086013567ffffffffffffffff81111561425857600080fd5b61426488828901613b31565b9350935050606086013567ffffffffffffffff81111561428357600080fd5b61428f88828901613af2565b9150509295509295909350565b60008060008060008060008060e0898b0312156142b857600080fd5b60006142c68b828c01613ba5565b98505060206142d78b828c01613bcf565b975050604089013567ffffffffffffffff8111156142f457600080fd5b6143008b828c01613b31565b9650965050606089013567ffffffffffffffff81111561431f57600080fd5b61432b8b828c01613af2565b945050608061433c8b828c01613bcf565b93505060a061434d8b828c01613a69565b92505060c061435e8b828c01613a69565b9150509295985092959890939650565b600080600080600060a0868803121561438657600080fd5b600061439488828901613ba5565b95505060206143a588828901613bcf565b94505060406143b688828901613bcf565b93505060606143c788828901613a69565b92505060806143d888828901613a69565b9150509295509295909350565b60006143f1838361443d565b60208301905092915050565b6000614409838361466a565b905092915050565b600061441d838361473a565b905092915050565b60006144318383614a45565b60208301905092915050565b61444681615622565b82525050565b61445581615622565b82525050565b6000614466826153bb565b6144708185615431565b935061447b8361537b565b8060005b838110156144ac57815161449388826143e5565b975061449e836153fd565b92505060018101905061447f565b5085935050505092915050565b60006144c4826153c6565b6144ce8185615442565b9350836020820285016144e08561538b565b8060005b8581101561451c57848403895281516144fd85826143fd565b94506145088361540a565b925060208a019950506001810190506144e4565b50829750879550505050505092915050565b6000614539826153d1565b6145438185615453565b9350836020820285016145558561539b565b8060005b8581101561459157848403895281516145728582614411565b945061457d83615417565b925060208a01995050600181019050614559565b50829750879550505050505092915050565b60006145ae826153dc565b6145b88185615464565b93506145c3836153ab565b8060005b838110156145f45781516145db8882614425565b97506145e683615424565b9250506001810190506145c7565b5085935050505092915050565b61460a81615646565b82525050565b61461981615652565b82525050565b61463061462b82615652565b615852565b82525050565b61463f8161565c565b82525050565b60006146518385615497565b935061465e838584615764565b82840190509392505050565b6000614675826153e7565b61467f8185615475565b935061468f818560208601615773565b61469881615947565b840191505092915050565b60006146ae826153e7565b6146b88185615486565b93506146c8818560208601615773565b6146d181615947565b840191505092915050565b60006146e7826153e7565b6146f18185615497565b9350614701818560208601615773565b80840191505092915050565b61471681615702565b82525050565b61472581615726565b82525050565b61473481615738565b82525050565b6000614745826153f2565b61474f81856154a2565b935061475f818560208601615773565b61476881615947565b840191505092915050565b600061477e826153f2565b61478881856154b3565b9350614798818560208601615773565b6147a181615947565b840191505092915050565b60006147b96018836154b3565b91506147c482615965565b602082019050919050565b60006147dc6018836154b3565b91506147e78261598e565b602082019050919050565b60006147ff6043836154b3565b915061480a826159b7565b606082019050919050565b6000614822601f836154b3565b915061482d82615a2c565b602082019050919050565b60006148456002836154c4565b915061485082615a55565b600282019050919050565b60006148686021836154b3565b915061487382615a7e565b604082019050919050565b600061488b6022836154b3565b915061489682615acd565b604082019050919050565b60006148ae6027836154b3565b91506148b982615b1c565b604082019050919050565b60006148d16026836154b3565b91506148dc82615b6b565b604082019050919050565b60006148f46023836154b3565b91506148ff82615bba565b604082019050919050565b60006149176018836154b3565b915061492282615c09565b602082019050919050565b600061493a6022836154b3565b915061494582615c32565b604082019050919050565b600061495d6026836154b3565b915061496882615c81565b604082019050919050565b60006149806021836154b3565b915061498b82615cd0565b604082019050919050565b60006149a3601d836154b3565b91506149ae82615d1f565b602082019050919050565b60006149c66035836154b3565b91506149d182615d48565b604082019050919050565b60006149e96021836154b3565b91506149f482615d97565b604082019050919050565b6000614a0c601d836154b3565b9150614a1782615de6565b602082019050919050565b6000614a2f6031836154b3565b9150614a3a82615e0f565b604082019050919050565b614a4e816156d7565b82525050565b614a5d816156d7565b82525050565b614a6c81615752565b82525050565b614a7b816156f5565b82525050565b6000614a8e828486614645565b91508190509392505050565b6000614aa682846146dc565b915081905092915050565b6000614abc82614838565b9150614ac8828561461f565b602082019150614ad8828461461f565b6020820191508190509392505050565b6000602082019050614afd600083018461444c565b92915050565b6000604082019050614b18600083018561444c565b614b25602083018461444c565b9392505050565b6000604082019050614b41600083018561444c565b614b4e6020830184614a54565b9392505050565b60006080820190508181036000830152614b6f818761445b565b90508181036020830152614b8381866145a3565b90508181036040830152614b9781856144b9565b9050614ba66060830184614610565b95945050505050565b600060a0820190508181036000830152614bc9818861445b565b90508181036020830152614bdd81876145a3565b90508181036040830152614bf181866144b9565b9050614c00606083018561472b565b614c0d6080830184614610565b9695505050505050565b600060c0820190508181036000830152614c31818961445b565b90508181036020830152614c4581886145a3565b90508181036040830152614c5981876144b9565b9050614c68606083018661472b565b614c756080830185614610565b614c8260a0830184614a54565b979650505050505050565b6000602082019050614ca26000830184614601565b92915050565b6000602082019050614cbd6000830184614610565b92915050565b600060a082019050614cd86000830188614610565b614ce56020830187614610565b614cf26040830186614610565b614cff6060830185614a54565b614d0c608083018461444c565b9695505050505050565b6000606082019050614d2b6000830186614610565b614d386020830185614a54565b614d456040830184614a72565b949350505050565b600060a082019050614d626000830188614610565b614d6f6020830187614a54565b614d7c6040830186614a72565b614d896060830185614610565b614d966080830184614610565b9695505050505050565b6000608082019050614db56000830187614610565b614dc26020830186614a72565b614dcf6040830185614610565b614ddc6060830184614610565b95945050505050565b6000602082019050614dfa6000830184614636565b92915050565b6000602082019050614e15600083018461470d565b92915050565b6000602082019050614e30600083018461471c565b92915050565b60006020820190508181036000830152614e508184614773565b905092915050565b60006020820190508181036000830152614e71816147ac565b9050919050565b60006020820190508181036000830152614e91816147cf565b9050919050565b60006020820190508181036000830152614eb1816147f2565b9050919050565b60006020820190508181036000830152614ed181614815565b9050919050565b60006020820190508181036000830152614ef18161485b565b9050919050565b60006020820190508181036000830152614f118161487e565b9050919050565b60006020820190508181036000830152614f31816148a1565b9050919050565b60006020820190508181036000830152614f51816148c4565b9050919050565b60006020820190508181036000830152614f71816148e7565b9050919050565b60006020820190508181036000830152614f918161490a565b9050919050565b60006020820190508181036000830152614fb18161492d565b9050919050565b60006020820190508181036000830152614fd181614950565b9050919050565b60006020820190508181036000830152614ff181614973565b9050919050565b6000602082019050818103600083015261501181614996565b9050919050565b60006020820190508181036000830152615031816149b9565b9050919050565b60006020820190508181036000830152615051816149dc565b9050919050565b60006020820190508181036000830152615071816149ff565b9050919050565b6000602082019050818103600083015261509181614a22565b9050919050565b60006020820190506150ad6000830184614a54565b92915050565b6000610120820190506150c9600083018c614a54565b6150d6602083018b61444c565b81810360408301526150e8818a61445b565b905081810360608301526150fc81896145a3565b90508181036080830152615110818861452e565b905081810360a083015261512481876144b9565b905061513360c0830186614a63565b61514060e0830185614a63565b8181036101008301526151538184614773565b90509a9950505050505050505050565b60006040820190506151786000830185614a54565b6151856020830184614a54565b9392505050565b60006060820190506151a16000830186614a54565b6151ae6020830185614a54565b6151bb6040830184614a54565b949350505050565b60006080820190506151d86000830187614a54565b6151e56020830186614a72565b6151f26040830185614a54565b81810360608301526152048184614773565b905095945050505050565b600060a0820190506152246000830188614a54565b6152316020830187614a72565b61523e6040830186614a54565b81810360608301526152508185614773565b9050818103608083015261526481846146a3565b90509695505050505050565b600061527a61528b565b905061528682826157d8565b919050565b6000604051905090565b600067ffffffffffffffff8211156152b0576152af615918565b5b602082029050602081019050919050565b600067ffffffffffffffff8211156152dc576152db615918565b5b602082029050602081019050919050565b600067ffffffffffffffff82111561530857615307615918565b5b602082029050602081019050919050565b600067ffffffffffffffff82111561533457615333615918565b5b61533d82615947565b9050602081019050919050565b600067ffffffffffffffff82111561536557615364615918565b5b61536e82615947565b9050602081019050919050565b6000819050602082019050919050565b6000819050602082019050919050565b6000819050602082019050919050565b6000819050602082019050919050565b600081519050919050565b600081519050919050565b600081519050919050565b600081519050919050565b600081519050919050565b600081519050919050565b6000602082019050919050565b6000602082019050919050565b6000602082019050919050565b6000602082019050919050565b600082825260208201905092915050565b600082825260208201905092915050565b600082825260208201905092915050565b600082825260208201905092915050565b600082825260208201905092915050565b600082825260208201905092915050565b600081905092915050565b600082825260208201905092915050565b600082825260208201905092915050565b600081905092915050565b60006154da826156d7565b91506154e5836156d7565b9250827fffffffffffffffffffffffffffffffffffffffffffffffffffffffffffffffff0382111561551a5761551961585c565b5b828201905092915050565b6000615530826156e1565b915061553b836156e1565b92508267ffffffffffffffff038211156155585761555761585c565b5b828201905092915050565b600061556e826156d7565b9150615579836156d7565b9250826155895761558861588b565b5b828204905092915050565b600061559f826156d7565b91506155aa836156d7565b9250817fffffffffffffffffffffffffffffffffffffffffffffffffffffffffffffffff04831182151516156155e3576155e261585c565b5b828202905092915050565b60006155f9826156d7565b9150615604836156d7565b9250828210156156175761561661585c565b5b828203905092915050565b600061562d826156b7565b9050919050565b600061563f826156b7565b9050919050565b60008115159050919050565b6000819050919050565b60007fffffffff0000000000000000000000000000000000000000000000000000000082169050919050565b600061569382615634565b9050919050565b60008190506156a882615e5e565b919050565b6000819050919050565b600073ffffffffffffffffffffffffffffffffffffffff82169050919050565b6000819050919050565b600067ffffffffffffffff82169050919050565b600060ff82169050919050565b600061570d82615714565b9050919050565b600061571f826156b7565b9050919050565b60006157318261569a565b9050919050565b600061574b615746836156ad565b615958565b9050919050565b600061575d826156e1565b9050919050565b82818337600083830152505050565b60005b83811015615791578082015181840152602081019050615776565b838111156157a0576000848401525b50505050565b600060028204905060018216806157be57607f821691505b602082108114156157d2576157d16158e9565b5b50919050565b6157e182615947565b810181811067ffffffffffffffff82111715615800576157ff615918565b5b80604052505050565b6000615814826156d7565b91507fffffffffffffffffffffffffffffffffffffffffffffffffffffffffffffffff8214156158475761584661585c565b5b600182019050919050565b6000819050919050565b7f4e487b7100000000000000000000000000000000000000000000000000000000600052601160045260246000fd5b7f4e487b7100000000000000000000000000000000000000000000000000000000600052601260045260246000fd5b7f4e487b7100000000000000000000000000000000000000000000000000000000600052602160045260246000fd5b7f4e487b7100000000000000000000000000000000000000000000000000000000600052602260045260246000fd5b7f4e487b7100000000000000000000000000000000000000000000000000000000600052604160045260246000fd5b6000601f19601f8301169050919050565b60008160001b9050919050565b7f45434453413a20696e76616c6964207369676e61747572650000000000000000600082015250565b7f476f7665726e6f723a206f6e6c79476f7665726e616e63650000000000000000600082015250565b7f476f7665726e6f72566f74657351756f72756d4672616374696f6e3a2071756f60008201527f72756d4e756d657261746f72206f7665722071756f72756d44656e6f6d696e6160208201527f746f720000000000000000000000000000000000000000000000000000000000604082015250565b7f45434453413a20696e76616c6964207369676e6174757265206c656e67746800600082015250565b7f1901000000000000000000000000000000000000000000000000000000000000600082015250565b7f476f7665726e6f723a20696e76616c69642070726f706f73616c206c656e677460008201527f6800000000000000000000000000000000000000000000000000000000000000602082015250565b7f45434453413a20696e76616c6964207369676e6174757265202773272076616c60008201527f7565000000000000000000000000000000000000000000000000000000000000602082015250565b7f476f7665726e6f72566f74696e6753696d706c653a20766f746520616c72656160008201527f6479206361737400000000000000000000000000000000000000000000000000602082015250565b7f416464726573733a20696e73756666696369656e742062616c616e636520666f60008201527f722063616c6c0000000000000000000000000000000000000000000000000000602082015250565b7f476f7665726e6f723a20766f7465206e6f742063757272656e746c792061637460008201527f6976650000000000000000000000000000000000000000000000000000000000602082015250565b7f476f7665726e6f723a20656d7074792070726f706f73616c0000000000000000600082015250565b7f45434453413a20696e76616c6964207369676e6174757265202776272076616c60008201527f7565000000000000000000000000000000000000000000000000000000000000602082015250565b7f53616665436173743a2076616c756520646f65736e27742066697420696e203660008201527f3420626974730000000000000000000000000000000000000000000000000000602082015250565b7f476f7665726e6f723a2070726f706f73616c206e6f742073756363657373667560008201527f6c00000000000000000000000000000000000000000000000000000000000000602082015250565b7f476f7665726e6f723a20756e6b6e6f776e2070726f706f73616c206964000000600082015250565b7f476f7665726e6f72566f74696e6753696d706c653a20696e76616c696420766160008201527f6c756520666f7220656e756d20566f7465547970650000000000000000000000602082015250565b7f476f7665726e6f723a2070726f706f73616c20616c726561647920657869737460008201527f7300000000000000000000000000000000000000000000000000000000000000602082015250565b7f416464726573733a2063616c6c20746f206e6f6e2d636f6e7472616374000000600082015250565b7f476f7665726e6f723a2070726f706f73657220766f7465732062656c6f77207060008201527f726f706f73616c207468726573686f6c64000000000000000000000000000000602082015250565b60088110615e6f57615e6e6158ba565b5b50565b615e7b81615622565b8114615e8657600080fd5b50565b615e9281615646565b8114615e9d57600080fd5b50565b615ea981615652565b8114615eb457600080fd5b50565b615ec08161565c565b8114615ecb57600080fd5b50565b615ed781615688565b8114615ee257600080fd5b50565b615eee816156d7565b8114615ef957600080fd5b50565b615f05816156f5565b8114615f1057600080fd5b5056fe416464726573733a206c6f772d6c6576656c2063616c6c20776974682076616c7565206661696c6564a26469706673582212203cdc5cd25aec9b70a4c050396f236131413c1d9849f3598b523a40e38c0958b364736f6c63430008040033",
  "linkReferences": {},
  "deployedLinkReferences": {}
}