{
  "_format": "hh-sol-artifact-1",
  "contractName": "SVToken",
  "sourceName": "contracts/SVToken.sol",
  "abi": [
    {
      "inputs": [],
      "stateMutability": "nonpayable",
      "type": "constructor"
    },
    {
      "anonymous": false,
      "inputs": [
        {
          "indexed": true,
          "internalType": "address",
          "name": "owner",
          "type": "address"
        },
        {
          "indexed": true,
          "internalType": "address",
          "name": "approved",
          "type": "address"
        },
        {
          "indexed": true,
          "internalType": "uint256",
          "name": "tokenId",
          "type": "uint256"
        }
      ],
      "name": "Approval",
      "type": "event"
    },
    {
      "anonymous": false,
      "inputs": [
        {
          "indexed": true,
          "internalType": "address",
          "name": "owner",
          "type": "address"
        },
        {
          "indexed": true,
          "internalType": "address",
          "name": "operator",
          "type": "address"
        },
        {
          "indexed": false,
          "internalType": "bool",
          "name": "approved",
          "type": "bool"
        }
      ],
      "name": "ApprovalForAll",
      "type": "event"
    },
    {
      "anonymous": false,
      "inputs": [
        {
          "indexed": true,
          "internalType": "address",
          "name": "delegator",
          "type": "address"
        },
        {
          "indexed": true,
          "internalType": "address",
          "name": "fromDelegate",
          "type": "address"
        },
        {
          "indexed": true,
          "internalType": "address",
          "name": "toDelegate",
          "type": "address"
        }
      ],
      "name": "DelegateChanged",
      "type": "event"
    },
    {
      "anonymous": false,
      "inputs": [
        {
          "indexed": true,
          "internalType": "address",
          "name": "delegate",
          "type": "address"
        },
        {
          "indexed": false,
          "internalType": "uint256",
          "name": "previousBalance",
          "type": "uint256"
        },
        {
          "indexed": false,
          "internalType": "uint256",
          "name": "newBalance",
          "type": "uint256"
        }
      ],
      "name": "DelegateVotesChanged",
      "type": "event"
    },
    {
      "anonymous": false,
      "inputs": [
        {
          "indexed": true,
          "internalType": "address",
          "name": "previousOwner",
          "type": "address"
        },
        {
          "indexed": true,
          "internalType": "address",
          "name": "newOwner",
          "type": "address"
        }
      ],
      "name": "OwnershipTransferred",
      "type": "event"
    },
    {
      "anonymous": false,
      "inputs": [
        {
          "indexed": false,
          "internalType": "address",
          "name": "account",
          "type": "address"
        }
      ],
      "name": "Paused",
      "type": "event"
    },
    {
      "anonymous": false,
      "inputs": [
        {
          "indexed": true,
          "internalType": "address",
          "name": "from",
          "type": "address"
        },
        {
          "indexed": true,
          "internalType": "address",
          "name": "to",
          "type": "address"
        },
        {
          "indexed": true,
          "internalType": "uint256",
          "name": "tokenId",
          "type": "uint256"
        }
      ],
      "name": "Transfer",
      "type": "event"
    },
    {
      "anonymous": false,
      "inputs": [
        {
          "indexed": false,
          "internalType": "address",
          "name": "account",
          "type": "address"
        }
      ],
      "name": "Unpaused",
      "type": "event"
    },
    {
      "inputs": [],
      "name": "DOMAIN_SEPARATOR",
      "outputs": [
        {
          "internalType": "bytes32",
          "name": "",
          "type": "bytes32"
        }
      ],
      "stateMutability": "view",
      "type": "function"
    },
    {
      "inputs": [
        {
          "internalType": "address",
          "name": "to",
          "type": "address"
        },
        {
          "internalType": "uint256",
          "name": "tokenId",
          "type": "uint256"
        }
      ],
      "name": "approve",
      "outputs": [],
      "stateMutability": "nonpayable",
      "type": "function"
    },
    {
      "inputs": [
        {
          "internalType": "address",
          "name": "owner",
          "type": "address"
        }
      ],
      "name": "balanceOf",
      "outputs": [
        {
          "internalType": "uint256",
          "name": "",
          "type": "uint256"
        }
      ],
      "stateMutability": "view",
      "type": "function"
    },
    {
      "inputs": [
        {
          "internalType": "uint256",
          "name": "tokenId",
          "type": "uint256"
        }
      ],
      "name": "burn",
      "outputs": [],
      "stateMutability": "nonpayable",
      "type": "function"
    },
    {
      "inputs": [
        {
          "internalType": "address",
          "name": "delegatee",
          "type": "address"
        }
      ],
      "name": "delegate",
      "outputs": [],
      "stateMutability": "nonpayable",
      "type": "function"
    },
    {
      "inputs": [
        {
          "internalType": "address",
          "name": "delegatee",
          "type": "address"
        },
        {
          "internalType": "uint256",
          "name": "nonce",
          "type": "uint256"
        },
        {
          "internalType": "uint256",
          "name": "expiry",
          "type": "uint256"
        },
        {
          "internalType": "uint8",
          "name": "v",
          "type": "uint8"
        },
        {
          "internalType": "bytes32",
          "name": "r",
          "type": "bytes32"
        },
        {
          "internalType": "bytes32",
          "name": "s",
          "type": "bytes32"
        }
      ],
      "name": "delegateBySig",
      "outputs": [],
      "stateMutability": "nonpayable",
      "type": "function"
    },
    {
      "inputs": [
        {
          "internalType": "address",
          "name": "account",
          "type": "address"
        }
      ],
      "name": "delegates",
      "outputs": [
        {
          "internalType": "address",
          "name": "",
          "type": "address"
        }
      ],
      "stateMutability": "view",
      "type": "function"
    },
    {
      "inputs": [
        {
          "internalType": "uint256",
          "name": "tokenId",
          "type": "uint256"
        }
      ],
      "name": "getApproved",
      "outputs": [
        {
          "internalType": "address",
          "name": "",
          "type": "address"
        }
      ],
      "stateMutability": "view",
      "type": "function"
    },
    {
      "inputs": [
        {
          "internalType": "uint256",
          "name": "blockNumber",
          "type": "uint256"
        }
      ],
      "name": "getPastTotalSupply",
      "outputs": [
        {
          "internalType": "uint256",
          "name": "",
          "type": "uint256"
        }
      ],
      "stateMutability": "view",
      "type": "function"
    },
    {
      "inputs": [
        {
          "internalType": "address",
          "name": "account",
          "type": "address"
        },
        {
          "internalType": "uint256",
          "name": "blockNumber",
          "type": "uint256"
        }
      ],
      "name": "getPastVotes",
      "outputs": [
        {
          "internalType": "uint256",
          "name": "",
          "type": "uint256"
        }
      ],
      "stateMutability": "view",
      "type": "function"
    },
    {
      "inputs": [
        {
          "internalType": "address",
          "name": "account",
          "type": "address"
        }
      ],
      "name": "getVotes",
      "outputs": [
        {
          "internalType": "uint256",
          "name": "",
          "type": "uint256"
        }
      ],
      "stateMutability": "view",
      "type": "function"
    },
    {
      "inputs": [
        {
          "internalType": "address",
          "name": "owner",
          "type": "address"
        },
        {
          "internalType": "address",
          "name": "operator",
          "type": "address"
        }
      ],
      "name": "isApprovedForAll",
      "outputs": [
        {
          "internalType": "bool",
          "name": "",
          "type": "bool"
        }
      ],
      "stateMutability": "view",
      "type": "function"
    },
    {
      "inputs": [],
      "name": "name",
      "outputs": [
        {
          "internalType": "string",
          "name": "",
          "type": "string"
        }
      ],
      "stateMutability": "view",
      "type": "function"
    },
    {
      "inputs": [
        {
          "internalType": "address",
          "name": "owner",
          "type": "address"
        }
      ],
      "name": "nonces",
      "outputs": [
        {
          "internalType": "uint256",
          "name": "",
          "type": "uint256"
        }
      ],
      "stateMutability": "view",
      "type": "function"
    },
    {
      "inputs": [],
      "name": "owner",
      "outputs": [
        {
          "internalType": "address",
          "name": "",
          "type": "address"
        }
      ],
      "stateMutability": "view",
      "type": "function"
    },
    {
      "inputs": [
        {
          "internalType": "uint256",
          "name": "tokenId",
          "type": "uint256"
        }
      ],
      "name": "ownerOf",
      "outputs": [
        {
          "internalType": "address",
          "name": "",
          "type": "address"
        }
      ],
      "stateMutability": "view",
      "type": "function"
    },
    {
      "inputs": [],
      "name": "pause",
      "outputs": [],
      "stateMutability": "nonpayable",
      "type": "function"
    },
    {
      "inputs": [],
      "name": "paused",
      "outputs": [
        {
          "internalType": "bool",
          "name": "",
          "type": "bool"
        }
      ],
      "stateMutability": "view",
      "type": "function"
    },
    {
      "inputs": [],
      "name": "renounceOwnership",
      "outputs": [],
      "stateMutability": "nonpayable",
      "type": "function"
    },
    {
      "inputs": [
        {
          "internalType": "address",
          "name": "to",
          "type": "address"
        },
        {
          "internalType": "string",
          "name": "uri",
          "type": "string"
        }
      ],
      "name": "safeMint",
      "outputs": [],
      "stateMutability": "nonpayable",
      "type": "function"
    },
    {
      "inputs": [
        {
          "internalType": "address",
          "name": "from",
          "type": "address"
        },
        {
          "internalType": "address",
          "name": "to",
          "type": "address"
        },
        {
          "internalType": "uint256",
          "name": "tokenId",
          "type": "uint256"
        }
      ],
      "name": "safeTransferFrom",
      "outputs": [],
      "stateMutability": "nonpayable",
      "type": "function"
    },
    {
      "inputs": [
        {
          "internalType": "address",
          "name": "from",
          "type": "address"
        },
        {
          "internalType": "address",
          "name": "to",
          "type": "address"
        },
        {
          "internalType": "uint256",
          "name": "tokenId",
          "type": "uint256"
        },
        {
          "internalType": "bytes",
          "name": "_data",
          "type": "bytes"
        }
      ],
      "name": "safeTransferFrom",
      "outputs": [],
      "stateMutability": "nonpayable",
      "type": "function"
    },
    {
      "inputs": [
        {
          "internalType": "address",
          "name": "operator",
          "type": "address"
        },
        {
          "internalType": "bool",
          "name": "approved",
          "type": "bool"
        }
      ],
      "name": "setApprovalForAll",
      "outputs": [],
      "stateMutability": "nonpayable",
      "type": "function"
    },
    {
      "inputs": [
        {
          "internalType": "bytes4",
          "name": "interfaceId",
          "type": "bytes4"
        }
      ],
      "name": "supportsInterface",
      "outputs": [
        {
          "internalType": "bool",
          "name": "",
          "type": "bool"
        }
      ],
      "stateMutability": "view",
      "type": "function"
    },
    {
      "inputs": [],
      "name": "symbol",
      "outputs": [
        {
          "internalType": "string",
          "name": "",
          "type": "string"
        }
      ],
      "stateMutability": "view",
      "type": "function"
    },
    {
      "inputs": [
        {
          "internalType": "uint256",
          "name": "index",
          "type": "uint256"
        }
      ],
      "name": "tokenByIndex",
      "outputs": [
        {
          "internalType": "uint256",
          "name": "",
          "type": "uint256"
        }
      ],
      "stateMutability": "view",
      "type": "function"
    },
    {
      "inputs": [
        {
          "internalType": "address",
          "name": "owner",
          "type": "address"
        },
        {
          "internalType": "uint256",
          "name": "index",
          "type": "uint256"
        }
      ],
      "name": "tokenOfOwnerByIndex",
      "outputs": [
        {
          "internalType": "uint256",
          "name": "",
          "type": "uint256"
        }
      ],
      "stateMutability": "view",
      "type": "function"
    },
    {
      "inputs": [
        {
          "internalType": "uint256",
          "name": "tokenId",
          "type": "uint256"
        }
      ],
      "name": "tokenURI",
      "outputs": [
        {
          "internalType": "string",
          "name": "",
          "type": "string"
        }
      ],
      "stateMutability": "view",
      "type": "function"
    },
    {
      "inputs": [],
      "name": "totalSupply",
      "outputs": [
        {
          "internalType": "uint256",
          "name": "",
          "type": "uint256"
        }
      ],
      "stateMutability": "view",
      "type": "function"
    },
    {
      "inputs": [
        {
          "internalType": "address",
          "name": "from",
          "type": "address"
        },
        {
          "internalType": "address",
          "name": "to",
          "type": "address"
        },
        {
          "internalType": "uint256",
          "name": "tokenId",
          "type": "uint256"
        }
      ],
      "name": "transferFrom",
      "outputs": [],
      "stateMutability": "nonpayable",
      "type": "function"
    },
    {
      "inputs": [
        {
          "internalType": "address",
          "name": "newOwner",
          "type": "address"
        }
      ],
      "name": "transferOwnership",
      "outputs": [],
      "stateMutability": "nonpayable",
      "type": "function"
    },
    {
      "inputs": [],
      "name": "unpause",
      "outputs": [],
      "stateMutability": "nonpayable",
      "type": "function"
    }
  ],
  "bytecode": "0x6101406040523480156200001257600080fd5b506040518060400160405280600781526020017f5356546f6b656e000000000000000000000000000000000000000000000000008152506040518060400160405280600181526020017f31000000000000000000000000000000000000000000000000000000000000008152506040518060400160405280600781526020017f5356546f6b656e000000000000000000000000000000000000000000000000008152506040518060400160405280600381526020017f53565400000000000000000000000000000000000000000000000000000000008152508160009080519060200190620001039291906200031f565b5080600190805190602001906200011c9291906200031f565b5050506000600b60006101000a81548160ff0219169083151502179055506200015a6200014e6200021560201b60201c565b6200021d60201b60201c565b60008280519060200120905060008280519060200120905060007f8b73c3c69bb8fe3d512ecc4cf759cc79239f7b179b0ffacaa9a75d522b39400f90508260e081815250508161010081815250504660a08181525050620001c3818484620002e360201b60201c565b608081815250503073ffffffffffffffffffffffffffffffffffffffff1660c08173ffffffffffffffffffffffffffffffffffffffff1660601b8152505080610120818152505050505050506200050c565b600033905090565b6000600b60019054906101000a900473ffffffffffffffffffffffffffffffffffffffff16905081600b60016101000a81548173ffffffffffffffffffffffffffffffffffffffff021916908373ffffffffffffffffffffffffffffffffffffffff1602179055508173ffffffffffffffffffffffffffffffffffffffff168173ffffffffffffffffffffffffffffffffffffffff167f8be0079c531659141344cd1fd0a4f28419497f9722a3daafe3b4186f6b6457e060405160405180910390a35050565b600083838346306040516020016200030095949392919062000402565b6040516020818303038152906040528051906020012090509392505050565b8280546200032d90620004a7565b90600052602060002090601f0160209004810192826200035157600085556200039d565b82601f106200036c57805160ff19168380011785556200039d565b828001600101855582156200039d579182015b828111156200039c5782518255916020019190600101906200037f565b5b509050620003ac9190620003b0565b5090565b5b80821115620003cb576000816000905550600101620003b1565b5090565b620003da816200045f565b82525050565b620003eb8162000473565b82525050565b620003fc816200049d565b82525050565b600060a082019050620004196000830188620003e0565b620004286020830187620003e0565b620004376040830186620003e0565b620004466060830185620003f1565b620004556080830184620003cf565b9695505050505050565b60006200046c826200047d565b9050919050565b6000819050919050565b600073ffffffffffffffffffffffffffffffffffffffff82169050919050565b6000819050919050565b60006002820490506001821680620004c057607f821691505b60208210811415620004d757620004d6620004dd565b5b50919050565b7f4e487b7100000000000000000000000000000000000000000000000000000000600052602260045260246000fd5b60805160a05160c05160601c60e0516101005161012051615c536200055f60003960006119dc01526000611a1e015260006119fd0152600061193201526000611988015260006119b10152615c536000f3fe608060405234801561001057600080fd5b50600436106101f05760003560e01c80636352211e1161010f5780639ab24eb0116100a2578063c87b56dd11610071578063c87b56dd146105b7578063d204c45e146105e7578063e985e9c514610603578063f2fde38b14610633576101f0565b80639ab24eb014610533578063a22cb46514610563578063b88d4fde1461057f578063c3cda5201461059b576101f0565b80638456cb59116100de5780638456cb59146104bd5780638da5cb5b146104c75780638e539e8c146104e557806395d89b4114610515576101f0565b80636352211e1461042357806370a0823114610453578063715018a6146104835780637ecebe001461048d576101f0565b80633a46b1a8116101875780634f6ccce7116101565780634f6ccce714610389578063587cde1e146103b95780635c19a95c146103e95780635c975abb14610405576101f0565b80633a46b1a8146103175780633f4ba83a1461034757806342842e0e1461035157806342966c681461036d576101f0565b806318160ddd116101c357806318160ddd1461028f57806323b872dd146102ad5780632f745c59146102c95780633644e515146102f9576101f0565b806301ffc9a7146101f557806306fdde0314610225578063081812fc14610243578063095ea7b314610273575b600080fd5b61020f600480360381019061020a919061427c565b61064f565b60405161021c9190614964565b60405180910390f35b61022d610661565b60405161023a9190614a77565b60405180910390f35b61025d600480360381019061025891906142ce565b6106f3565b60405161026a91906148fd565b60405180910390f35b61028d600480360381019061028891906141b7565b610778565b005b610297610890565b6040516102a49190614eb9565b60405180910390f35b6102c760048036038101906102c2919061405d565b61089d565b005b6102e360048036038101906102de91906141b7565b6108fd565b6040516102f09190614eb9565b60405180910390f35b6103016109a2565b60405161030e919061497f565b60405180910390f35b610331600480360381019061032c91906141b7565b6109b1565b60405161033e9190614eb9565b60405180910390f35b61034f610a0c565b005b61036b6004803603810190610366919061405d565b610a92565b005b610387600480360381019061038291906142ce565b610ab2565b005b6103a3600480360381019061039e91906142ce565b610b0e565b6040516103b09190614eb9565b60405180910390f35b6103d360048036038101906103ce9190613ff8565b610ba5565b6040516103e091906148fd565b60405180910390f35b61040360048036038101906103fe9190613ff8565b610c0e565b005b61040d610c28565b60405161041a9190614964565b60405180910390f35b61043d600480360381019061043891906142ce565b610c3f565b60405161044a91906148fd565b60405180910390f35b61046d60048036038101906104689190613ff8565b610cf1565b60405161047a9190614eb9565b60405180910390f35b61048b610da9565b005b6104a760048036038101906104a29190613ff8565b610e31565b6040516104b49190614eb9565b60405180910390f35b6104c5610e81565b005b6104cf610f07565b6040516104dc91906148fd565b60405180910390f35b6104ff60048036038101906104fa91906142ce565b610f31565b60405161050c9190614eb9565b60405180910390f35b61051d610f90565b60405161052a9190614a77565b60405180910390f35b61054d60048036038101906105489190613ff8565b611022565b60405161055a9190614eb9565b60405180910390f35b61057d60048036038101906105789190614127565b611072565b005b610599600480360381019061059491906140ac565b611088565b005b6105b560048036038101906105b091906141f3565b6110ea565b005b6105d160048036038101906105cc91906142ce565b6111ee565b6040516105de9190614a77565b60405180910390f35b61060160048036038101906105fc9190614163565b611200565b005b61061d60048036038101906106189190614021565b6112b6565b60405161062a9190614964565b60405180910390f35b61064d60048036038101906106489190613ff8565b61134a565b005b600061065a82611442565b9050919050565b6060600080546106709061514f565b80601f016020809104026020016040519081016040528092919081815260200182805461069c9061514f565b80156106e95780601f106106be576101008083540402835291602001916106e9565b820191906000526020600020905b8154815290600101906020018083116106cc57829003601f168201915b5050505050905090565b60006106fe826114bc565b61073d576040517f08c379a000000000000000000000000000000000000000000000000000000000815260040161073490614d99565b60405180910390fd5b6004600083815260200190815260200160002060009054906101000a900473ffffffffffffffffffffffffffffffffffffffff169050919050565b600061078382610c3f565b90508073ffffffffffffffffffffffffffffffffffffffff168373ffffffffffffffffffffffffffffffffffffffff1614156107f4576040517f08c379a00000000000000000000000000000000000000000000000000000000081526004016107eb90614e19565b60405180910390fd5b8073ffffffffffffffffffffffffffffffffffffffff16610813611528565b73ffffffffffffffffffffffffffffffffffffffff16148061084257506108418161083c611528565b6112b6565b5b610881576040517f08c379a000000000000000000000000000000000000000000000000000000000815260040161087890614c99565b60405180910390fd5b61088b8383611530565b505050565b6000600880549050905090565b6108ae6108a8611528565b826115e9565b6108ed576040517f08c379a00000000000000000000000000000000000000000000000000000000081526004016108e490614e39565b60405180910390fd5b6108f88383836116c7565b505050565b600061090883610cf1565b8210610949576040517f08c379a000000000000000000000000000000000000000000000000000000000815260040161094090614b19565b60405180910390fd5b600660008473ffffffffffffffffffffffffffffffffffffffff1673ffffffffffffffffffffffffffffffffffffffff168152602001908152602001600020600083815260200190815260200160002054905092915050565b60006109ac61192e565b905090565b6000610a0482600d60008673ffffffffffffffffffffffffffffffffffffffff1673ffffffffffffffffffffffffffffffffffffffff168152602001908152602001600020611a4890919063ffffffff16565b905092915050565b610a14611528565b73ffffffffffffffffffffffffffffffffffffffff16610a32610f07565b73ffffffffffffffffffffffffffffffffffffffff1614610a88576040517f08c379a0000000000000000000000000000000000000000000000000000000008152600401610a7f90614db9565b60405180910390fd5b610a90611bec565b565b610aad83838360405180602001604052806000815250611088565b505050565b610ac3610abd611528565b826115e9565b610b02576040517f08c379a0000000000000000000000000000000000000000000000000000000008152600401610af990614e99565b60405180910390fd5b610b0b81611c8e565b50565b6000610b18610890565b8210610b59576040517f08c379a0000000000000000000000000000000000000000000000000000000008152600401610b5090614e79565b60405180910390fd5b60088281548110610b93577f4e487b7100000000000000000000000000000000000000000000000000000000600052603260045260246000fd5b90600052602060002001549050919050565b6000600c60008373ffffffffffffffffffffffffffffffffffffffff1673ffffffffffffffffffffffffffffffffffffffff16815260200190815260200160002060009054906101000a900473ffffffffffffffffffffffffffffffffffffffff169050919050565b6000610c18611528565b9050610c248183611c9a565b5050565b6000600b60009054906101000a900460ff16905090565b6000806002600084815260200190815260200160002060009054906101000a900473ffffffffffffffffffffffffffffffffffffffff169050600073ffffffffffffffffffffffffffffffffffffffff168173ffffffffffffffffffffffffffffffffffffffff161415610ce8576040517f08c379a0000000000000000000000000000000000000000000000000000000008152600401610cdf90614cd9565b60405180910390fd5b80915050919050565b60008073ffffffffffffffffffffffffffffffffffffffff168273ffffffffffffffffffffffffffffffffffffffff161415610d62576040517f08c379a0000000000000000000000000000000000000000000000000000000008152600401610d5990614cb9565b60405180910390fd5b600360008373ffffffffffffffffffffffffffffffffffffffff1673ffffffffffffffffffffffffffffffffffffffff168152602001908152602001600020549050919050565b610db1611528565b73ffffffffffffffffffffffffffffffffffffffff16610dcf610f07565b73ffffffffffffffffffffffffffffffffffffffff1614610e25576040517f08c379a0000000000000000000000000000000000000000000000000000000008152600401610e1c90614db9565b60405180910390fd5b610e2f6000611dae565b565b6000610e7a600f60008473ffffffffffffffffffffffffffffffffffffffff1673ffffffffffffffffffffffffffffffffffffffff168152602001908152602001600020611e74565b9050919050565b610e89611528565b73ffffffffffffffffffffffffffffffffffffffff16610ea7610f07565b73ffffffffffffffffffffffffffffffffffffffff1614610efd576040517f08c379a0000000000000000000000000000000000000000000000000000000008152600401610ef490614db9565b60405180910390fd5b610f05611e82565b565b6000600b60019054906101000a900473ffffffffffffffffffffffffffffffffffffffff16905090565b6000438210610f75576040517f08c379a0000000000000000000000000000000000000000000000000000000008152600401610f6c90614d19565b60405180910390fd5b610f8982600e611a4890919063ffffffff16565b9050919050565b606060018054610f9f9061514f565b80601f0160208091040260200160405190810160405280929190818152602001828054610fcb9061514f565b80156110185780601f10610fed57610100808354040283529160200191611018565b820191906000526020600020905b815481529060010190602001808311610ffb57829003601f168201915b5050505050905090565b600061106b600d60008473ffffffffffffffffffffffffffffffffffffffff1673ffffffffffffffffffffffffffffffffffffffff168152602001908152602001600020611f25565b9050919050565b61108461107d611528565b8383611fe6565b5050565b611099611093611528565b836115e9565b6110d8576040517f08c379a00000000000000000000000000000000000000000000000000000000081526004016110cf90614e39565b60405180910390fd5b6110e484848484612153565b50505050565b8342111561112d576040517f08c379a000000000000000000000000000000000000000000000000000000000815260040161112490614c79565b60405180910390fd5b600061118f6111877fe48329057bfd03d55e49b547132e39cffd9c1820ad7b9d4c5307691425d15adf89898960405160200161116c949392919061499a565b604051602081830303815290604052805190602001206121af565b8585856121c9565b905061119a816121f4565b86146111db576040517f08c379a00000000000000000000000000000000000000000000000000000000081526004016111d290614ad9565b60405180910390fd5b6111e58188611c9a565b50505050505050565b60606111f982612252565b9050919050565b611208611528565b73ffffffffffffffffffffffffffffffffffffffff16611226610f07565b73ffffffffffffffffffffffffffffffffffffffff161461127c576040517f08c379a000000000000000000000000000000000000000000000000000000000815260040161127390614db9565b60405180910390fd5b60006112886010611e74565b905061129460106123a4565b61129e83826123ba565b6112a881836123d8565b6112b183610c0e565b505050565b6000600560008473ffffffffffffffffffffffffffffffffffffffff1673ffffffffffffffffffffffffffffffffffffffff16815260200190815260200160002060008373ffffffffffffffffffffffffffffffffffffffff1673ffffffffffffffffffffffffffffffffffffffff16815260200190815260200160002060009054906101000a900460ff16905092915050565b611352611528565b73ffffffffffffffffffffffffffffffffffffffff16611370610f07565b73ffffffffffffffffffffffffffffffffffffffff16146113c6576040517f08c379a00000000000000000000000000000000000000000000000000000000081526004016113bd90614db9565b60405180910390fd5b600073ffffffffffffffffffffffffffffffffffffffff168173ffffffffffffffffffffffffffffffffffffffff161415611436576040517f08c379a000000000000000000000000000000000000000000000000000000000815260040161142d90614b59565b60405180910390fd5b61143f81611dae565b50565b60007f780e9d63000000000000000000000000000000000000000000000000000000007bffffffffffffffffffffffffffffffffffffffffffffffffffffffff1916827bffffffffffffffffffffffffffffffffffffffffffffffffffffffff191614806114b557506114b48261244c565b5b9050919050565b60008073ffffffffffffffffffffffffffffffffffffffff166002600084815260200190815260200160002060009054906101000a900473ffffffffffffffffffffffffffffffffffffffff1673ffffffffffffffffffffffffffffffffffffffff1614159050919050565b600033905090565b816004600083815260200190815260200160002060006101000a81548173ffffffffffffffffffffffffffffffffffffffff021916908373ffffffffffffffffffffffffffffffffffffffff160217905550808273ffffffffffffffffffffffffffffffffffffffff166115a383610c3f565b73ffffffffffffffffffffffffffffffffffffffff167f8c5be1e5ebec7d5bd14f71427d1e84f3dd0314c0f7b2291e5b200ac8c7c3b92560405160405180910390a45050565b60006115f4826114bc565b611633576040517f08c379a000000000000000000000000000000000000000000000000000000000815260040161162a90614c19565b60405180910390fd5b600061163e83610c3f565b90508073ffffffffffffffffffffffffffffffffffffffff168473ffffffffffffffffffffffffffffffffffffffff161480611680575061167f81856112b6565b5b806116be57508373ffffffffffffffffffffffffffffffffffffffff166116a6846106f3565b73ffffffffffffffffffffffffffffffffffffffff16145b91505092915050565b8273ffffffffffffffffffffffffffffffffffffffff166116e782610c3f565b73ffffffffffffffffffffffffffffffffffffffff161461173d576040517f08c379a000000000000000000000000000000000000000000000000000000000815260040161173490614b79565b60405180910390fd5b600073ffffffffffffffffffffffffffffffffffffffff168273ffffffffffffffffffffffffffffffffffffffff1614156117ad576040517f08c379a00000000000000000000000000000000000000000000000000000000081526004016117a490614bb9565b60405180910390fd5b6117b883838361252e565b6117c3600082611530565b6001600360008573ffffffffffffffffffffffffffffffffffffffff1673ffffffffffffffffffffffffffffffffffffffff1681526020019081526020016000206000828254611813919061504e565b925050819055506001600360008473ffffffffffffffffffffffffffffffffffffffff1673ffffffffffffffffffffffffffffffffffffffff168152602001908152602001600020600082825461186a9190614fc7565b92505081905550816002600083815260200190815260200160002060006101000a81548173ffffffffffffffffffffffffffffffffffffffff021916908373ffffffffffffffffffffffffffffffffffffffff160217905550808273ffffffffffffffffffffffffffffffffffffffff168473ffffffffffffffffffffffffffffffffffffffff167fddf252ad1be2c89b69c2b068fc378daa952ba7f163c4a11628f55a4df523b3ef60405160405180910390a4611929838383612586565b505050565b60007f000000000000000000000000000000000000000000000000000000000000000073ffffffffffffffffffffffffffffffffffffffff163073ffffffffffffffffffffffffffffffffffffffff161480156119aa57507f000000000000000000000000000000000000000000000000000000000000000046145b156119d7577f00000000000000000000000000000000000000000000000000000000000000009050611a45565b611a427f00000000000000000000000000000000000000000000000000000000000000007f00000000000000000000000000000000000000000000000000000000000000007f0000000000000000000000000000000000000000000000000000000000000000612596565b90505b90565b6000438210611a8c576040517f08c379a0000000000000000000000000000000000000000000000000000000008152600401611a8390614c39565b60405180910390fd5b60008360000180549050905060005b81811015611b36576000611aaf82846125d0565b905084866000018281548110611aee577f4e487b7100000000000000000000000000000000000000000000000000000000600052603260045260246000fd5b9060005260206000200160000160009054906101000a900463ffffffff1663ffffffff161115611b2057809250611b30565b600181611b2d9190614fc7565b91505b50611a9b565b60008214611bc15784600001600183611b4f919061504e565b81548110611b86577f4e487b7100000000000000000000000000000000000000000000000000000000600052603260045260246000fd5b9060005260206000200160000160049054906101000a90047bffffffffffffffffffffffffffffffffffffffffffffffffffffffff16611bc4565b60005b7bffffffffffffffffffffffffffffffffffffffffffffffffffffffff169250505092915050565b611bf4610c28565b611c33576040517f08c379a0000000000000000000000000000000000000000000000000000000008152600401611c2a90614ab9565b60405180910390fd5b6000600b60006101000a81548160ff0219169083151502179055507f5db9ee0a495bf2e6ff9c91a7834c1ba4fdd244a5e8aa4e537bd38aeae4b073aa611c77611528565b604051611c8491906148fd565b60405180910390a1565b611c97816125f6565b50565b6000611ca583610ba5565b905081600c60008573ffffffffffffffffffffffffffffffffffffffff1673ffffffffffffffffffffffffffffffffffffffff16815260200190815260200160002060006101000a81548173ffffffffffffffffffffffffffffffffffffffff021916908373ffffffffffffffffffffffffffffffffffffffff1602179055508173ffffffffffffffffffffffffffffffffffffffff168173ffffffffffffffffffffffffffffffffffffffff168473ffffffffffffffffffffffffffffffffffffffff167f3134e8a2e6d97e929a7e54011ea5485d7d196dd5f0ba4d4ef95803e8e3fc257f60405160405180910390a4611da98183611da486612649565b61265b565b505050565b6000600b60019054906101000a900473ffffffffffffffffffffffffffffffffffffffff16905081600b60016101000a81548173ffffffffffffffffffffffffffffffffffffffff021916908373ffffffffffffffffffffffffffffffffffffffff1602179055508173ffffffffffffffffffffffffffffffffffffffff168173ffffffffffffffffffffffffffffffffffffffff167f8be0079c531659141344cd1fd0a4f28419497f9722a3daafe3b4186f6b6457e060405160405180910390a35050565b600081600001549050919050565b611e8a610c28565b15611eca576040517f08c379a0000000000000000000000000000000000000000000000000000000008152600401611ec190614c59565b60405180910390fd5b6001600b60006101000a81548160ff0219169083151502179055507f62e78cea01bee320cd4e420270b5ea74000d11b0c9f74754ebdbfc544b05a258611f0e611528565b604051611f1b91906148fd565b60405180910390a1565b6000808260000180549050905060008114611fbd5782600001600182611f4b919061504e565b81548110611f82577f4e487b7100000000000000000000000000000000000000000000000000000000600052603260045260246000fd5b9060005260206000200160000160049054906101000a90047bffffffffffffffffffffffffffffffffffffffffffffffffffffffff16611fc0565b60005b7bffffffffffffffffffffffffffffffffffffffffffffffffffffffff16915050919050565b8173ffffffffffffffffffffffffffffffffffffffff168373ffffffffffffffffffffffffffffffffffffffff161415612055576040517f08c379a000000000000000000000000000000000000000000000000000000000815260040161204c90614bd9565b60405180910390fd5b80600560008573ffffffffffffffffffffffffffffffffffffffff1673ffffffffffffffffffffffffffffffffffffffff16815260200190815260200160002060008473ffffffffffffffffffffffffffffffffffffffff1673ffffffffffffffffffffffffffffffffffffffff16815260200190815260200160002060006101000a81548160ff0219169083151502179055508173ffffffffffffffffffffffffffffffffffffffff168373ffffffffffffffffffffffffffffffffffffffff167f17307eab39ab6107e8899845ad3d59bd9653f200f220920489ca2b5937696c31836040516121469190614964565b60405180910390a3505050565b61215e8484846116c7565b61216a84848484612868565b6121a9576040517f08c379a00000000000000000000000000000000000000000000000000000000081526004016121a090614b39565b60405180910390fd5b50505050565b60006121c26121bc61192e565b836129ff565b9050919050565b60008060006121da87878787612a32565b915091506121e781612b3f565b8192505050949350505050565b600080600f60008473ffffffffffffffffffffffffffffffffffffffff1673ffffffffffffffffffffffffffffffffffffffff168152602001908152602001600020905061224181611e74565b915061224c816123a4565b50919050565b606061225d826114bc565b61229c576040517f08c379a000000000000000000000000000000000000000000000000000000000815260040161229390614d79565b60405180910390fd5b6000600a600084815260200190815260200160002080546122bc9061514f565b80601f01602080910402602001604051908101604052809291908181526020018280546122e89061514f565b80156123355780601f1061230a57610100808354040283529160200191612335565b820191906000526020600020905b81548152906001019060200180831161231857829003601f168201915b505050505090506000612346612e90565b905060008151141561235c57819250505061239f565b6000825111156123915780826040516020016123799291906148a2565b6040516020818303038152906040529250505061239f565b61239a84612ea7565b925050505b919050565b6001816000016000828254019250508190555050565b6123d4828260405180602001604052806000815250612f4e565b5050565b6123e1826114bc565b612420576040517f08c379a000000000000000000000000000000000000000000000000000000000815260040161241790614cf9565b60405180910390fd5b80600a60008481526020019081526020016000209080519060200190612447929190613db2565b505050565b60007f80ac58cd000000000000000000000000000000000000000000000000000000007bffffffffffffffffffffffffffffffffffffffffffffffffffffffff1916827bffffffffffffffffffffffffffffffffffffffffffffffffffffffff1916148061251757507f5b5e139f000000000000000000000000000000000000000000000000000000007bffffffffffffffffffffffffffffffffffffffffffffffffffffffff1916827bffffffffffffffffffffffffffffffffffffffffffffffffffffffff1916145b80612527575061252682612fa9565b5b9050919050565b612536610c28565b15612576576040517f08c379a000000000000000000000000000000000000000000000000000000000815260040161256d90614c59565b60405180910390fd5b612581838383613013565b505050565b612591838383613127565b505050565b600083838346306040516020016125b19594939291906149df565b6040516020818303038152906040528051906020012090509392505050565b600060028284186125e1919061501d565b8284166125ee9190614fc7565b905092915050565b6125ff81613143565b6000600a6000838152602001908152602001600020805461261f9061514f565b90501461264657600a600082815260200190815260200160002060006126459190613e38565b5b50565b600061265482610cf1565b9050919050565b8173ffffffffffffffffffffffffffffffffffffffff168373ffffffffffffffffffffffffffffffffffffffff16141580156126975750600081115b1561286357600073ffffffffffffffffffffffffffffffffffffffff168373ffffffffffffffffffffffffffffffffffffffff161461277f5760008061272861326084600d60008973ffffffffffffffffffffffffffffffffffffffff1673ffffffffffffffffffffffffffffffffffffffff1681526020019081526020016000206132769092919063ffffffff16565b915091508473ffffffffffffffffffffffffffffffffffffffff167fdec2bacdd2f05b59de34da9b523dff8be42e5e38e818c82fdb0bae774387a7248383604051612774929190614ed4565b60405180910390a250505b600073ffffffffffffffffffffffffffffffffffffffff168273ffffffffffffffffffffffffffffffffffffffff16146128625760008061280b6132a484600d60008873ffffffffffffffffffffffffffffffffffffffff1673ffffffffffffffffffffffffffffffffffffffff1681526020019081526020016000206132769092919063ffffffff16565b915091508373ffffffffffffffffffffffffffffffffffffffff167fdec2bacdd2f05b59de34da9b523dff8be42e5e38e818c82fdb0bae774387a7248383604051612857929190614ed4565b60405180910390a250505b5b505050565b60006128898473ffffffffffffffffffffffffffffffffffffffff166132ba565b156129f2578373ffffffffffffffffffffffffffffffffffffffff1663150b7a026128b2611528565b8786866040518563ffffffff1660e01b81526004016128d49493929190614918565b602060405180830381600087803b1580156128ee57600080fd5b505af192505050801561291f57506040513d601f19601f8201168201806040525081019061291c91906142a5565b60015b6129a2573d806000811461294f576040519150601f19603f3d011682016040523d82523d6000602084013e612954565b606091505b5060008151141561299a576040517f08c379a000000000000000000000000000000000000000000000000000000000815260040161299190614b39565b60405180910390fd5b805181602001fd5b63150b7a0260e01b7bffffffffffffffffffffffffffffffffffffffffffffffffffffffff1916817bffffffffffffffffffffffffffffffffffffffffffffffffffffffff1916149150506129f7565b600190505b949350505050565b60008282604051602001612a149291906148c6565b60405160208183030381529060405280519060200120905092915050565b6000807f7fffffffffffffffffffffffffffffff5d576e7357a4501ddfe92f46681b20a08360001c1115612a6d576000600391509150612b36565b601b8560ff1614158015612a855750601c8560ff1614155b15612a97576000600491509150612b36565b600060018787878760405160008152602001604052604051612abc9493929190614a32565b6020604051602081039080840390855afa158015612ade573d6000803e3d6000fd5b505050602060405103519050600073ffffffffffffffffffffffffffffffffffffffff168173ffffffffffffffffffffffffffffffffffffffff161415612b2d57600060019250925050612b36565b80600092509250505b94509492505050565b60006004811115612b79577f4e487b7100000000000000000000000000000000000000000000000000000000600052602160045260246000fd5b816004811115612bb2577f4e487b7100000000000000000000000000000000000000000000000000000000600052602160045260246000fd5b1415612bbd57612e8d565b60016004811115612bf7577f4e487b7100000000000000000000000000000000000000000000000000000000600052602160045260246000fd5b816004811115612c30577f4e487b7100000000000000000000000000000000000000000000000000000000600052602160045260246000fd5b1415612c71576040517f08c379a0000000000000000000000000000000000000000000000000000000008152600401612c6890614a99565b60405180910390fd5b60026004811115612cab577f4e487b7100000000000000000000000000000000000000000000000000000000600052602160045260246000fd5b816004811115612ce4577f4e487b7100000000000000000000000000000000000000000000000000000000600052602160045260246000fd5b1415612d25576040517f08c379a0000000000000000000000000000000000000000000000000000000008152600401612d1c90614af9565b60405180910390fd5b60036004811115612d5f577f4e487b7100000000000000000000000000000000000000000000000000000000600052602160045260246000fd5b816004811115612d98577f4e487b7100000000000000000000000000000000000000000000000000000000600052602160045260246000fd5b1415612dd9576040517f08c379a0000000000000000000000000000000000000000000000000000000008152600401612dd090614bf9565b60405180910390fd5b600480811115612e12577f4e487b7100000000000000000000000000000000000000000000000000000000600052602160045260246000fd5b816004811115612e4b577f4e487b7100000000000000000000000000000000000000000000000000000000600052602160045260246000fd5b1415612e8c576040517f08c379a0000000000000000000000000000000000000000000000000000000008152600401612e8390614d39565b60405180910390fd5b5b50565b606060405180602001604052806000815250905090565b6060612eb2826114bc565b612ef1576040517f08c379a0000000000000000000000000000000000000000000000000000000008152600401612ee890614df9565b60405180910390fd5b6000612efb612e90565b90506000815111612f1b5760405180602001604052806000815250612f46565b80612f25846132dd565b604051602001612f369291906148a2565b6040516020818303038152906040525b915050919050565b612f58838361348a565b612f656000848484612868565b612fa4576040517f08c379a0000000000000000000000000000000000000000000000000000000008152600401612f9b90614b39565b60405180910390fd5b505050565b60007f01ffc9a7000000000000000000000000000000000000000000000000000000007bffffffffffffffffffffffffffffffffffffffffffffffffffffffff1916827bffffffffffffffffffffffffffffffffffffffffffffffffffffffff1916149050919050565b61301e838383613664565b600073ffffffffffffffffffffffffffffffffffffffff168373ffffffffffffffffffffffffffffffffffffffff1614156130615761305c81613669565b6130a0565b8173ffffffffffffffffffffffffffffffffffffffff168373ffffffffffffffffffffffffffffffffffffffff161461309f5761309e83826136b2565b5b5b600073ffffffffffffffffffffffffffffffffffffffff168273ffffffffffffffffffffffffffffffffffffffff1614156130e3576130de8161381f565b613122565b8273ffffffffffffffffffffffffffffffffffffffff168273ffffffffffffffffffffffffffffffffffffffff1614613121576131208282613962565b5b5b505050565b613133838360016139e1565b61313e838383613aa1565b505050565b600061314e82610c3f565b905061315c8160008461252e565b613167600083611530565b6001600360008373ffffffffffffffffffffffffffffffffffffffff1673ffffffffffffffffffffffffffffffffffffffff16815260200190815260200160002060008282546131b7919061504e565b925050819055506002600083815260200190815260200160002060006101000a81549073ffffffffffffffffffffffffffffffffffffffff021916905581600073ffffffffffffffffffffffffffffffffffffffff168273ffffffffffffffffffffffffffffffffffffffff167fddf252ad1be2c89b69c2b068fc378daa952ba7f163c4a11628f55a4df523b3ef60405160405180910390a461325c81600084612586565b5050565b6000818361326e919061504e565b905092915050565b6000806132988561329361328988611f25565b868863ffffffff16565b613aa6565b91509150935093915050565b600081836132b29190614fc7565b905092915050565b6000808273ffffffffffffffffffffffffffffffffffffffff163b119050919050565b60606000821415613325576040518060400160405280600181526020017f30000000000000000000000000000000000000000000000000000000000000008152509050613485565b600082905060005b60008214613357578080613340906151b2565b915050600a82613350919061501d565b915061332d565b60008167ffffffffffffffff811115613399577f4e487b7100000000000000000000000000000000000000000000000000000000600052604160045260246000fd5b6040519080825280601f01601f1916602001820160405280156133cb5781602001600182028036833780820191505090505b5090505b6000851461347e576001826133e4919061504e565b9150600a856133f39190615205565b60306133ff9190614fc7565b60f81b81838151811061343b577f4e487b7100000000000000000000000000000000000000000000000000000000600052603260045260246000fd5b60200101907effffffffffffffffffffffffffffffffffffffffffffffffffffffffffffff1916908160001a905350600a85613477919061501d565b94506133cf565b8093505050505b919050565b600073ffffffffffffffffffffffffffffffffffffffff168273ffffffffffffffffffffffffffffffffffffffff1614156134fa576040517f08c379a00000000000000000000000000000000000000000000000000000000081526004016134f190614d59565b60405180910390fd5b613503816114bc565b15613543576040517f08c379a000000000000000000000000000000000000000000000000000000000815260040161353a90614b99565b60405180910390fd5b61354f6000838361252e565b6001600360008473ffffffffffffffffffffffffffffffffffffffff1673ffffffffffffffffffffffffffffffffffffffff168152602001908152602001600020600082825461359f9190614fc7565b92505081905550816002600083815260200190815260200160002060006101000a81548173ffffffffffffffffffffffffffffffffffffffff021916908373ffffffffffffffffffffffffffffffffffffffff160217905550808273ffffffffffffffffffffffffffffffffffffffff16600073ffffffffffffffffffffffffffffffffffffffff167fddf252ad1be2c89b69c2b068fc378daa952ba7f163c4a11628f55a4df523b3ef60405160405180910390a461366060008383612586565b5050565b505050565b6008805490506009600083815260200190815260200160002081905550600881908060018154018082558091505060019003906000526020600020016000909190919091505550565b600060016136bf84610cf1565b6136c9919061504e565b90506000600760008481526020019081526020016000205490508181146137ae576000600660008673ffffffffffffffffffffffffffffffffffffffff1673ffffffffffffffffffffffffffffffffffffffff168152602001908152602001600020600084815260200190815260200160002054905080600660008773ffffffffffffffffffffffffffffffffffffffff1673ffffffffffffffffffffffffffffffffffffffff168152602001908152602001600020600084815260200190815260200160002081905550816007600083815260200190815260200160002081905550505b6007600084815260200190815260200160002060009055600660008573ffffffffffffffffffffffffffffffffffffffff1673ffffffffffffffffffffffffffffffffffffffff16815260200190815260200160002060008381526020019081526020016000206000905550505050565b60006001600880549050613833919061504e565b9050600060096000848152602001908152602001600020549050600060088381548110613889577f4e487b7100000000000000000000000000000000000000000000000000000000600052603260045260246000fd5b9060005260206000200154905080600883815481106138d1577f4e487b7100000000000000000000000000000000000000000000000000000000600052603260045260246000fd5b906000526020600020018190555081600960008381526020019081526020016000208190555060096000858152602001908152602001600020600090556008805480613946577f4e487b7100000000000000000000000000000000000000000000000000000000600052603160045260246000fd5b6001900381819060005260206000200160009055905550505050565b600061396d83610cf1565b905081600660008573ffffffffffffffffffffffffffffffffffffffff1673ffffffffffffffffffffffffffffffffffffffff168152602001908152602001600020600083815260200190815260200160002081905550806007600084815260200190815260200160002081905550505050565b600073ffffffffffffffffffffffffffffffffffffffff168373ffffffffffffffffffffffffffffffffffffffff161415613a3157613a2e6132a482600e6132769092919063ffffffff16565b50505b600073ffffffffffffffffffffffffffffffffffffffff168273ffffffffffffffffffffffffffffffffffffffff161415613a8157613a7e61326082600e6132769092919063ffffffff16565b50505b613a9c613a8d84610ba5565b613a9684610ba5565b8361265b565b505050565b505050565b6000806000846000018054905090506000613ac086611f25565b9050600082118015613b3c57504386600001600184613adf919061504e565b81548110613b16577f4e487b7100000000000000000000000000000000000000000000000000000000600052603260045260246000fd5b9060005260206000200160000160009054906101000a900463ffffffff1663ffffffff16145b15613bf257613b4a85613cf4565b86600001600184613b5b919061504e565b81548110613b92577f4e487b7100000000000000000000000000000000000000000000000000000000600052603260045260246000fd5b9060005260206000200160000160046101000a8154817bffffffffffffffffffffffffffffffffffffffffffffffffffffffff02191690837bffffffffffffffffffffffffffffffffffffffffffffffffffffffff160217905550613ce5565b856000016040518060400160405280613c0a43613d5f565b63ffffffff168152602001613c1e88613cf4565b7bffffffffffffffffffffffffffffffffffffffffffffffffffffffff168152509080600181540180825580915050600190039060005260206000200160009091909190915060008201518160000160006101000a81548163ffffffff021916908363ffffffff16021790555060208201518160000160046101000a8154817bffffffffffffffffffffffffffffffffffffffffffffffffffffffff02191690837bffffffffffffffffffffffffffffffffffffffffffffffffffffffff16021790555050505b80859350935050509250929050565b60007bffffffffffffffffffffffffffffffffffffffffffffffffffffffff8016821115613d57576040517f08c379a0000000000000000000000000000000000000000000000000000000008152600401613d4e90614dd9565b60405180910390fd5b819050919050565b600063ffffffff8016821115613daa576040517f08c379a0000000000000000000000000000000000000000000000000000000008152600401613da190614e59565b60405180910390fd5b819050919050565b828054613dbe9061514f565b90600052602060002090601f016020900481019282613de05760008555613e27565b82601f10613df957805160ff1916838001178555613e27565b82800160010185558215613e27579182015b82811115613e26578251825591602001919060010190613e0b565b5b509050613e349190613e78565b5090565b508054613e449061514f565b6000825580601f10613e565750613e75565b601f016020900490600052602060002090810190613e749190613e78565b5b50565b5b80821115613e91576000816000905550600101613e79565b5090565b6000613ea8613ea384614f22565b614efd565b905082815260208101848484011115613ec057600080fd5b613ecb84828561510d565b509392505050565b6000613ee6613ee184614f53565b614efd565b905082815260208101848484011115613efe57600080fd5b613f0984828561510d565b509392505050565b600081359050613f2081615b93565b92915050565b600081359050613f3581615baa565b92915050565b600081359050613f4a81615bc1565b92915050565b600081359050613f5f81615bd8565b92915050565b600081519050613f7481615bd8565b92915050565b600082601f830112613f8b57600080fd5b8135613f9b848260208601613e95565b91505092915050565b600082601f830112613fb557600080fd5b8135613fc5848260208601613ed3565b91505092915050565b600081359050613fdd81615bef565b92915050565b600081359050613ff281615c06565b92915050565b60006020828403121561400a57600080fd5b600061401884828501613f11565b91505092915050565b6000806040838503121561403457600080fd5b600061404285828601613f11565b925050602061405385828601613f11565b9150509250929050565b60008060006060848603121561407257600080fd5b600061408086828701613f11565b935050602061409186828701613f11565b92505060406140a286828701613fce565b9150509250925092565b600080600080608085870312156140c257600080fd5b60006140d087828801613f11565b94505060206140e187828801613f11565b93505060406140f287828801613fce565b925050606085013567ffffffffffffffff81111561410f57600080fd5b61411b87828801613f7a565b91505092959194509250565b6000806040838503121561413a57600080fd5b600061414885828601613f11565b925050602061415985828601613f26565b9150509250929050565b6000806040838503121561417657600080fd5b600061418485828601613f11565b925050602083013567ffffffffffffffff8111156141a157600080fd5b6141ad85828601613fa4565b9150509250929050565b600080604083850312156141ca57600080fd5b60006141d885828601613f11565b92505060206141e985828601613fce565b9150509250929050565b60008060008060008060c0878903121561420c57600080fd5b600061421a89828a01613f11565b965050602061422b89828a01613fce565b955050604061423c89828a01613fce565b945050606061424d89828a01613fe3565b935050608061425e89828a01613f3b565b92505060a061426f89828a01613f3b565b9150509295509295509295565b60006020828403121561428e57600080fd5b600061429c84828501613f50565b91505092915050565b6000602082840312156142b757600080fd5b60006142c584828501613f65565b91505092915050565b6000602082840312156142e057600080fd5b60006142ee84828501613fce565b91505092915050565b61430081615082565b82525050565b61430f81615094565b82525050565b61431e816150a0565b82525050565b614335614330826150a0565b6151fb565b82525050565b600061434682614f84565b6143508185614f9a565b935061436081856020860161511c565b614369816152f2565b840191505092915050565b600061437f82614f8f565b6143898185614fab565b935061439981856020860161511c565b6143a2816152f2565b840191505092915050565b60006143b882614f8f565b6143c28185614fbc565b93506143d281856020860161511c565b80840191505092915050565b60006143eb601883614fab565b91506143f682615303565b602082019050919050565b600061440e601483614fab565b91506144198261532c565b602082019050919050565b6000614431601483614fab565b915061443c82615355565b602082019050919050565b6000614454601f83614fab565b915061445f8261537e565b602082019050919050565b6000614477602b83614fab565b9150614482826153a7565b604082019050919050565b600061449a603283614fab565b91506144a5826153f6565b604082019050919050565b60006144bd602683614fab565b91506144c882615445565b604082019050919050565b60006144e0602583614fab565b91506144eb82615494565b604082019050919050565b6000614503601c83614fab565b915061450e826154e3565b602082019050919050565b6000614526600283614fbc565b91506145318261550c565b600282019050919050565b6000614549602483614fab565b915061455482615535565b604082019050919050565b600061456c601983614fab565b915061457782615584565b602082019050919050565b600061458f602283614fab565b915061459a826155ad565b604082019050919050565b60006145b2602c83614fab565b91506145bd826155fc565b604082019050919050565b60006145d5602083614fab565b91506145e08261564b565b602082019050919050565b60006145f8601083614fab565b915061460382615674565b602082019050919050565b600061461b601883614fab565b91506146268261569d565b602082019050919050565b600061463e603883614fab565b9150614649826156c6565b604082019050919050565b6000614661602a83614fab565b915061466c82615715565b604082019050919050565b6000614684602983614fab565b915061468f82615764565b604082019050919050565b60006146a7602e83614fab565b91506146b2826157b3565b604082019050919050565b60006146ca601a83614fab565b91506146d582615802565b602082019050919050565b60006146ed602283614fab565b91506146f88261582b565b604082019050919050565b6000614710602083614fab565b915061471b8261587a565b602082019050919050565b6000614733603183614fab565b915061473e826158a3565b604082019050919050565b6000614756602c83614fab565b9150614761826158f2565b604082019050919050565b6000614779602083614fab565b915061478482615941565b602082019050919050565b600061479c602783614fab565b91506147a78261596a565b604082019050919050565b60006147bf602f83614fab565b91506147ca826159b9565b604082019050919050565b60006147e2602183614fab565b91506147ed82615a08565b604082019050919050565b6000614805603183614fab565b915061481082615a57565b604082019050919050565b6000614828602683614fab565b915061483382615aa6565b604082019050919050565b600061484b602c83614fab565b915061485682615af5565b604082019050919050565b600061486e603083614fab565b915061487982615b44565b604082019050919050565b61488d816150f6565b82525050565b61489c81615100565b82525050565b60006148ae82856143ad565b91506148ba82846143ad565b91508190509392505050565b60006148d182614519565b91506148dd8285614324565b6020820191506148ed8284614324565b6020820191508190509392505050565b600060208201905061491260008301846142f7565b92915050565b600060808201905061492d60008301876142f7565b61493a60208301866142f7565b6149476040830185614884565b8181036060830152614959818461433b565b905095945050505050565b60006020820190506149796000830184614306565b92915050565b60006020820190506149946000830184614315565b92915050565b60006080820190506149af6000830187614315565b6149bc60208301866142f7565b6149c96040830185614884565b6149d66060830184614884565b95945050505050565b600060a0820190506149f46000830188614315565b614a016020830187614315565b614a0e6040830186614315565b614a1b6060830185614884565b614a2860808301846142f7565b9695505050505050565b6000608082019050614a476000830187614315565b614a546020830186614893565b614a616040830185614315565b614a6e6060830184614315565b95945050505050565b60006020820190508181036000830152614a918184614374565b905092915050565b60006020820190508181036000830152614ab2816143de565b9050919050565b60006020820190508181036000830152614ad281614401565b9050919050565b60006020820190508181036000830152614af281614424565b9050919050565b60006020820190508181036000830152614b1281614447565b9050919050565b60006020820190508181036000830152614b328161446a565b9050919050565b60006020820190508181036000830152614b528161448d565b9050919050565b60006020820190508181036000830152614b72816144b0565b9050919050565b60006020820190508181036000830152614b92816144d3565b9050919050565b60006020820190508181036000830152614bb2816144f6565b9050919050565b60006020820190508181036000830152614bd28161453c565b9050919050565b60006020820190508181036000830152614bf28161455f565b9050919050565b60006020820190508181036000830152614c1281614582565b9050919050565b60006020820190508181036000830152614c32816145a5565b9050919050565b60006020820190508181036000830152614c52816145c8565b9050919050565b60006020820190508181036000830152614c72816145eb565b9050919050565b60006020820190508181036000830152614c928161460e565b9050919050565b60006020820190508181036000830152614cb281614631565b9050919050565b60006020820190508181036000830152614cd281614654565b9050919050565b60006020820190508181036000830152614cf281614677565b9050919050565b60006020820190508181036000830152614d128161469a565b9050919050565b60006020820190508181036000830152614d32816146bd565b9050919050565b60006020820190508181036000830152614d52816146e0565b9050919050565b60006020820190508181036000830152614d7281614703565b9050919050565b60006020820190508181036000830152614d9281614726565b9050919050565b60006020820190508181036000830152614db281614749565b9050919050565b60006020820190508181036000830152614dd28161476c565b9050919050565b60006020820190508181036000830152614df28161478f565b9050919050565b60006020820190508181036000830152614e12816147b2565b9050919050565b60006020820190508181036000830152614e32816147d5565b9050919050565b60006020820190508181036000830152614e52816147f8565b9050919050565b60006020820190508181036000830152614e728161481b565b9050919050565b60006020820190508181036000830152614e928161483e565b9050919050565b60006020820190508181036000830152614eb281614861565b9050919050565b6000602082019050614ece6000830184614884565b92915050565b6000604082019050614ee96000830185614884565b614ef66020830184614884565b9392505050565b6000614f07614f18565b9050614f138282615181565b919050565b6000604051905090565b600067ffffffffffffffff821115614f3d57614f3c6152c3565b5b614f46826152f2565b9050602081019050919050565b600067ffffffffffffffff821115614f6e57614f6d6152c3565b5b614f77826152f2565b9050602081019050919050565b600081519050919050565b600081519050919050565b600082825260208201905092915050565b600082825260208201905092915050565b600081905092915050565b6000614fd2826150f6565b9150614fdd836150f6565b9250827fffffffffffffffffffffffffffffffffffffffffffffffffffffffffffffffff0382111561501257615011615236565b5b828201905092915050565b6000615028826150f6565b9150615033836150f6565b92508261504357615042615265565b5b828204905092915050565b6000615059826150f6565b9150615064836150f6565b92508282101561507757615076615236565b5b828203905092915050565b600061508d826150d6565b9050919050565b60008115159050919050565b6000819050919050565b60007fffffffff0000000000000000000000000000000000000000000000000000000082169050919050565b600073ffffffffffffffffffffffffffffffffffffffff82169050919050565b6000819050919050565b600060ff82169050919050565b82818337600083830152505050565b60005b8381101561513a57808201518184015260208101905061511f565b83811115615149576000848401525b50505050565b6000600282049050600182168061516757607f821691505b6020821081141561517b5761517a615294565b5b50919050565b61518a826152f2565b810181811067ffffffffffffffff821117156151a9576151a86152c3565b5b80604052505050565b60006151bd826150f6565b91507fffffffffffffffffffffffffffffffffffffffffffffffffffffffffffffffff8214156151f0576151ef615236565b5b600182019050919050565b6000819050919050565b6000615210826150f6565b915061521b836150f6565b92508261522b5761522a615265565b5b828206905092915050565b7f4e487b7100000000000000000000000000000000000000000000000000000000600052601160045260246000fd5b7f4e487b7100000000000000000000000000000000000000000000000000000000600052601260045260246000fd5b7f4e487b7100000000000000000000000000000000000000000000000000000000600052602260045260246000fd5b7f4e487b7100000000000000000000000000000000000000000000000000000000600052604160045260246000fd5b6000601f19601f8301169050919050565b7f45434453413a20696e76616c6964207369676e61747572650000000000000000600082015250565b7f5061757361626c653a206e6f7420706175736564000000000000000000000000600082015250565b7f566f7465733a20696e76616c6964206e6f6e6365000000000000000000000000600082015250565b7f45434453413a20696e76616c6964207369676e6174757265206c656e67746800600082015250565b7f455243373231456e756d657261626c653a206f776e657220696e646578206f7560008201527f74206f6620626f756e6473000000000000000000000000000000000000000000602082015250565b7f4552433732313a207472616e7366657220746f206e6f6e20455243373231526560008201527f63656976657220696d706c656d656e7465720000000000000000000000000000602082015250565b7f4f776e61626c653a206e6577206f776e657220697320746865207a65726f206160008201527f6464726573730000000000000000000000000000000000000000000000000000602082015250565b7f4552433732313a207472616e736665722066726f6d20696e636f72726563742060008201527f6f776e6572000000000000000000000000000000000000000000000000000000602082015250565b7f4552433732313a20746f6b656e20616c7265616479206d696e74656400000000600082015250565b7f1901000000000000000000000000000000000000000000000000000000000000600082015250565b7f4552433732313a207472616e7366657220746f20746865207a65726f2061646460008201527f7265737300000000000000000000000000000000000000000000000000000000602082015250565b7f4552433732313a20617070726f766520746f2063616c6c657200000000000000600082015250565b7f45434453413a20696e76616c6964207369676e6174757265202773272076616c60008201527f7565000000000000000000000000000000000000000000000000000000000000602082015250565b7f4552433732313a206f70657261746f7220717565727920666f72206e6f6e657860008201527f697374656e7420746f6b656e0000000000000000000000000000000000000000602082015250565b7f436865636b706f696e74733a20626c6f636b206e6f7420796574206d696e6564600082015250565b7f5061757361626c653a2070617573656400000000000000000000000000000000600082015250565b7f566f7465733a207369676e617475726520657870697265640000000000000000600082015250565b7f4552433732313a20617070726f76652063616c6c6572206973206e6f74206f7760008201527f6e6572206e6f7220617070726f76656420666f7220616c6c0000000000000000602082015250565b7f4552433732313a2062616c616e636520717565727920666f7220746865207a6560008201527f726f206164647265737300000000000000000000000000000000000000000000602082015250565b7f4552433732313a206f776e657220717565727920666f72206e6f6e657869737460008201527f656e7420746f6b656e0000000000000000000000000000000000000000000000602082015250565b7f45524337323155524953746f726167653a2055524920736574206f66206e6f6e60008201527f6578697374656e7420746f6b656e000000000000000000000000000000000000602082015250565b7f566f7465733a20626c6f636b206e6f7420796574206d696e6564000000000000600082015250565b7f45434453413a20696e76616c6964207369676e6174757265202776272076616c60008201527f7565000000000000000000000000000000000000000000000000000000000000602082015250565b7f4552433732313a206d696e7420746f20746865207a65726f2061646472657373600082015250565b7f45524337323155524953746f726167653a2055524920717565727920666f722060008201527f6e6f6e6578697374656e7420746f6b656e000000000000000000000000000000602082015250565b7f4552433732313a20617070726f76656420717565727920666f72206e6f6e657860008201527f697374656e7420746f6b656e0000000000000000000000000000000000000000602082015250565b7f4f776e61626c653a2063616c6c6572206973206e6f7420746865206f776e6572600082015250565b7f53616665436173743a2076616c756520646f65736e27742066697420696e203260008201527f3234206269747300000000000000000000000000000000000000000000000000602082015250565b7f4552433732314d657461646174613a2055524920717565727920666f72206e6f60008201527f6e6578697374656e7420746f6b656e0000000000000000000000000000000000602082015250565b7f4552433732313a20617070726f76616c20746f2063757272656e74206f776e6560008201527f7200000000000000000000000000000000000000000000000000000000000000602082015250565b7f4552433732313a207472616e736665722063616c6c6572206973206e6f74206f60008201527f776e6572206e6f7220617070726f766564000000000000000000000000000000602082015250565b7f53616665436173743a2076616c756520646f65736e27742066697420696e203360008201527f3220626974730000000000000000000000000000000000000000000000000000602082015250565b7f455243373231456e756d657261626c653a20676c6f62616c20696e646578206f60008201527f7574206f6620626f756e64730000000000000000000000000000000000000000602082015250565b7f4552433732314275726e61626c653a2063616c6c6572206973206e6f74206f7760008201527f6e6572206e6f7220617070726f76656400000000000000000000000000000000602082015250565b615b9c81615082565b8114615ba757600080fd5b50565b615bb381615094565b8114615bbe57600080fd5b50565b615bca816150a0565b8114615bd557600080fd5b50565b615be1816150aa565b8114615bec57600080fd5b50565b615bf8816150f6565b8114615c0357600080fd5b50565b615c0f81615100565b8114615c1a57600080fd5b5056fea264697066735822122000bea01f7c9b41d1a42a8f5aaffa2fb15335514ba52bf40129660063408b7a0e64736f6c63430008040033",
  "linkReferences": {},
  "deployedLinkReferences": {}
}