{
  "_format": "hh-sol-artifact-1",
  "contractName": "SVToken",
  "sourceName": "contracts/SVToken.sol",
  "abi": [
    {
      "inputs": [],
      "stateMutability": "nonpayable",
      "type": "constructor"
    },
    {
      "anonymous": false,
      "inputs": [
        {
          "indexed": true,
          "internalType": "address",
          "name": "owner",
          "type": "address"
        },
        {
          "indexed": true,
          "internalType": "address",
          "name": "approved",
          "type": "address"
        },
        {
          "indexed": true,
          "internalType": "uint256",
          "name": "tokenId",
          "type": "uint256"
        }
      ],
      "name": "Approval",
      "type": "event"
    },
    {
      "anonymous": false,
      "inputs": [
        {
          "indexed": true,
          "internalType": "address",
          "name": "owner",
          "type": "address"
        },
        {
          "indexed": true,
          "internalType": "address",
          "name": "operator",
          "type": "address"
        },
        {
          "indexed": false,
          "internalType": "bool",
          "name": "approved",
          "type": "bool"
        }
      ],
      "name": "ApprovalForAll",
      "type": "event"
    },
    {
      "anonymous": false,
      "inputs": [
        {
          "indexed": true,
          "internalType": "address",
          "name": "delegator",
          "type": "address"
        },
        {
          "indexed": true,
          "internalType": "address",
          "name": "fromDelegate",
          "type": "address"
        },
        {
          "indexed": true,
          "internalType": "address",
          "name": "toDelegate",
          "type": "address"
        }
      ],
      "name": "DelegateChanged",
      "type": "event"
    },
    {
      "anonymous": false,
      "inputs": [
        {
          "indexed": true,
          "internalType": "address",
          "name": "delegate",
          "type": "address"
        },
        {
          "indexed": false,
          "internalType": "uint256",
          "name": "previousBalance",
          "type": "uint256"
        },
        {
          "indexed": false,
          "internalType": "uint256",
          "name": "newBalance",
          "type": "uint256"
        }
      ],
      "name": "DelegateVotesChanged",
      "type": "event"
    },
    {
      "anonymous": false,
      "inputs": [
        {
          "indexed": true,
          "internalType": "address",
          "name": "previousOwner",
          "type": "address"
        },
        {
          "indexed": true,
          "internalType": "address",
          "name": "newOwner",
          "type": "address"
        }
      ],
      "name": "OwnershipTransferred",
      "type": "event"
    },
    {
      "anonymous": false,
      "inputs": [
        {
          "indexed": false,
          "internalType": "address",
          "name": "account",
          "type": "address"
        }
      ],
      "name": "Paused",
      "type": "event"
    },
    {
      "anonymous": false,
      "inputs": [
        {
          "indexed": true,
          "internalType": "address",
          "name": "from",
          "type": "address"
        },
        {
          "indexed": true,
          "internalType": "address",
          "name": "to",
          "type": "address"
        },
        {
          "indexed": true,
          "internalType": "uint256",
          "name": "tokenId",
          "type": "uint256"
        }
      ],
      "name": "Transfer",
      "type": "event"
    },
    {
      "anonymous": false,
      "inputs": [
        {
          "indexed": false,
          "internalType": "address",
          "name": "account",
          "type": "address"
        }
      ],
      "name": "Unpaused",
      "type": "event"
    },
    {
      "inputs": [],
      "name": "DOMAIN_SEPARATOR",
      "outputs": [
        {
          "internalType": "bytes32",
          "name": "",
          "type": "bytes32"
        }
      ],
      "stateMutability": "view",
      "type": "function"
    },
    {
      "inputs": [
        {
          "internalType": "address",
          "name": "to",
          "type": "address"
        },
        {
          "internalType": "uint256",
          "name": "tokenId",
          "type": "uint256"
        }
      ],
      "name": "approve",
      "outputs": [],
      "stateMutability": "nonpayable",
      "type": "function"
    },
    {
      "inputs": [
        {
          "internalType": "address",
          "name": "owner",
          "type": "address"
        }
      ],
      "name": "balanceOf",
      "outputs": [
        {
          "internalType": "uint256",
          "name": "",
          "type": "uint256"
        }
      ],
      "stateMutability": "view",
      "type": "function"
    },
    {
      "inputs": [
        {
          "internalType": "uint256",
          "name": "tokenId",
          "type": "uint256"
        }
      ],
      "name": "burn",
      "outputs": [],
      "stateMutability": "nonpayable",
      "type": "function"
    },
    {
      "inputs": [
        {
          "internalType": "address",
          "name": "delegatee",
          "type": "address"
        }
      ],
      "name": "delegate",
      "outputs": [],
      "stateMutability": "nonpayable",
      "type": "function"
    },
    {
      "inputs": [
        {
          "internalType": "address",
          "name": "delegatee",
          "type": "address"
        },
        {
          "internalType": "uint256",
          "name": "nonce",
          "type": "uint256"
        },
        {
          "internalType": "uint256",
          "name": "expiry",
          "type": "uint256"
        },
        {
          "internalType": "uint8",
          "name": "v",
          "type": "uint8"
        },
        {
          "internalType": "bytes32",
          "name": "r",
          "type": "bytes32"
        },
        {
          "internalType": "bytes32",
          "name": "s",
          "type": "bytes32"
        }
      ],
      "name": "delegateBySig",
      "outputs": [],
      "stateMutability": "nonpayable",
      "type": "function"
    },
    {
      "inputs": [
        {
          "internalType": "address",
          "name": "account",
          "type": "address"
        }
      ],
      "name": "delegates",
      "outputs": [
        {
          "internalType": "address",
          "name": "",
          "type": "address"
        }
      ],
      "stateMutability": "view",
      "type": "function"
    },
    {
      "inputs": [
        {
          "internalType": "uint256",
          "name": "tokenId",
          "type": "uint256"
        }
      ],
      "name": "getApproved",
      "outputs": [
        {
          "internalType": "address",
          "name": "",
          "type": "address"
        }
      ],
      "stateMutability": "view",
      "type": "function"
    },
    {
      "inputs": [
        {
          "internalType": "uint256",
          "name": "blockNumber",
          "type": "uint256"
        }
      ],
      "name": "getPastTotalSupply",
      "outputs": [
        {
          "internalType": "uint256",
          "name": "",
          "type": "uint256"
        }
      ],
      "stateMutability": "view",
      "type": "function"
    },
    {
      "inputs": [
        {
          "internalType": "address",
          "name": "account",
          "type": "address"
        },
        {
          "internalType": "uint256",
          "name": "blockNumber",
          "type": "uint256"
        }
      ],
      "name": "getPastVotes",
      "outputs": [
        {
          "internalType": "uint256",
          "name": "",
          "type": "uint256"
        }
      ],
      "stateMutability": "view",
      "type": "function"
    },
    {
      "inputs": [
        {
          "internalType": "address",
          "name": "account",
          "type": "address"
        }
      ],
      "name": "getVotes",
      "outputs": [
        {
          "internalType": "uint256",
          "name": "",
          "type": "uint256"
        }
      ],
      "stateMutability": "view",
      "type": "function"
    },
    {
      "inputs": [
        {
          "internalType": "address",
          "name": "owner",
          "type": "address"
        },
        {
          "internalType": "address",
          "name": "operator",
          "type": "address"
        }
      ],
      "name": "isApprovedForAll",
      "outputs": [
        {
          "internalType": "bool",
          "name": "",
          "type": "bool"
        }
      ],
      "stateMutability": "view",
      "type": "function"
    },
    {
      "inputs": [],
      "name": "name",
      "outputs": [
        {
          "internalType": "string",
          "name": "",
          "type": "string"
        }
      ],
      "stateMutability": "view",
      "type": "function"
    },
    {
      "inputs": [
        {
          "internalType": "address",
          "name": "owner",
          "type": "address"
        }
      ],
      "name": "nonces",
      "outputs": [
        {
          "internalType": "uint256",
          "name": "",
          "type": "uint256"
        }
      ],
      "stateMutability": "view",
      "type": "function"
    },
    {
      "inputs": [],
      "name": "owner",
      "outputs": [
        {
          "internalType": "address",
          "name": "",
          "type": "address"
        }
      ],
      "stateMutability": "view",
      "type": "function"
    },
    {
      "inputs": [
        {
          "internalType": "uint256",
          "name": "tokenId",
          "type": "uint256"
        }
      ],
      "name": "ownerOf",
      "outputs": [
        {
          "internalType": "address",
          "name": "",
          "type": "address"
        }
      ],
      "stateMutability": "view",
      "type": "function"
    },
    {
      "inputs": [],
      "name": "pause",
      "outputs": [],
      "stateMutability": "nonpayable",
      "type": "function"
    },
    {
      "inputs": [],
      "name": "paused",
      "outputs": [
        {
          "internalType": "bool",
          "name": "",
          "type": "bool"
        }
      ],
      "stateMutability": "view",
      "type": "function"
    },
    {
      "inputs": [],
      "name": "renounceOwnership",
      "outputs": [],
      "stateMutability": "nonpayable",
      "type": "function"
    },
    {
      "inputs": [
        {
          "internalType": "address",
          "name": "to",
          "type": "address"
        },
        {
          "internalType": "string",
          "name": "tokenLanguage",
          "type": "string"
        },
        {
          "internalType": "string",
          "name": "tokenTitle",
          "type": "string"
        },
        {
          "internalType": "string",
          "name": "tokenContent",
          "type": "string"
        }
      ],
      "name": "safeMint",
      "outputs": [],
      "stateMutability": "nonpayable",
      "type": "function"
    },
    {
      "inputs": [
        {
          "internalType": "address",
          "name": "from",
          "type": "address"
        },
        {
          "internalType": "address",
          "name": "to",
          "type": "address"
        },
        {
          "internalType": "uint256",
          "name": "tokenId",
          "type": "uint256"
        }
      ],
      "name": "safeTransferFrom",
      "outputs": [],
      "stateMutability": "nonpayable",
      "type": "function"
    },
    {
      "inputs": [
        {
          "internalType": "address",
          "name": "from",
          "type": "address"
        },
        {
          "internalType": "address",
          "name": "to",
          "type": "address"
        },
        {
          "internalType": "uint256",
          "name": "tokenId",
          "type": "uint256"
        },
        {
          "internalType": "bytes",
          "name": "_data",
          "type": "bytes"
        }
      ],
      "name": "safeTransferFrom",
      "outputs": [],
      "stateMutability": "nonpayable",
      "type": "function"
    },
    {
      "inputs": [
        {
          "internalType": "address",
          "name": "operator",
          "type": "address"
        },
        {
          "internalType": "bool",
          "name": "approved",
          "type": "bool"
        }
      ],
      "name": "setApprovalForAll",
      "outputs": [],
      "stateMutability": "nonpayable",
      "type": "function"
    },
    {
      "inputs": [
        {
          "internalType": "bytes4",
          "name": "interfaceId",
          "type": "bytes4"
        }
      ],
      "name": "supportsInterface",
      "outputs": [
        {
          "internalType": "bool",
          "name": "",
          "type": "bool"
        }
      ],
      "stateMutability": "view",
      "type": "function"
    },
    {
      "inputs": [],
      "name": "symbol",
      "outputs": [
        {
          "internalType": "string",
          "name": "",
          "type": "string"
        }
      ],
      "stateMutability": "view",
      "type": "function"
    },
    {
      "inputs": [
        {
          "internalType": "uint256",
          "name": "index",
          "type": "uint256"
        }
      ],
      "name": "tokenByIndex",
      "outputs": [
        {
          "internalType": "uint256",
          "name": "",
          "type": "uint256"
        }
      ],
      "stateMutability": "view",
      "type": "function"
    },
    {
      "inputs": [
        {
          "internalType": "address",
          "name": "owner",
          "type": "address"
        },
        {
          "internalType": "uint256",
          "name": "index",
          "type": "uint256"
        }
      ],
      "name": "tokenOfOwnerByIndex",
      "outputs": [
        {
          "internalType": "uint256",
          "name": "",
          "type": "uint256"
        }
      ],
      "stateMutability": "view",
      "type": "function"
    },
    {
      "inputs": [
        {
          "internalType": "uint256",
          "name": "tokenId",
          "type": "uint256"
        }
      ],
      "name": "tokenURI",
      "outputs": [
        {
          "internalType": "string",
          "name": "",
          "type": "string"
        }
      ],
      "stateMutability": "view",
      "type": "function"
    },
    {
      "inputs": [],
      "name": "totalSupply",
      "outputs": [
        {
          "internalType": "uint256",
          "name": "",
          "type": "uint256"
        }
      ],
      "stateMutability": "view",
      "type": "function"
    },
    {
      "inputs": [
        {
          "internalType": "address",
          "name": "from",
          "type": "address"
        },
        {
          "internalType": "address",
          "name": "to",
          "type": "address"
        },
        {
          "internalType": "uint256",
          "name": "tokenId",
          "type": "uint256"
        }
      ],
      "name": "transferFrom",
      "outputs": [],
      "stateMutability": "nonpayable",
      "type": "function"
    },
    {
      "inputs": [
        {
          "internalType": "address",
          "name": "newOwner",
          "type": "address"
        }
      ],
      "name": "transferOwnership",
      "outputs": [],
      "stateMutability": "nonpayable",
      "type": "function"
    },
    {
      "inputs": [],
      "name": "unpause",
      "outputs": [],
      "stateMutability": "nonpayable",
      "type": "function"
    }
  ],
  "bytecode": "0x6101406040523480156200001257600080fd5b506040518060400160405280600781526020017f5356546f6b656e000000000000000000000000000000000000000000000000008152506040518060400160405280600181526020017f31000000000000000000000000000000000000000000000000000000000000008152506040518060400160405280600781526020017f5356546f6b656e000000000000000000000000000000000000000000000000008152506040518060400160405280600381526020017f53565400000000000000000000000000000000000000000000000000000000008152508160009080519060200190620001039291906200031f565b5080600190805190602001906200011c9291906200031f565b5050506000600b60006101000a81548160ff0219169083151502179055506200015a6200014e6200021560201b60201c565b6200021d60201b60201c565b60008280519060200120905060008280519060200120905060007f8b73c3c69bb8fe3d512ecc4cf759cc79239f7b179b0ffacaa9a75d522b39400f90508260e081815250508161010081815250504660a08181525050620001c3818484620002e360201b60201c565b608081815250503073ffffffffffffffffffffffffffffffffffffffff1660c08173ffffffffffffffffffffffffffffffffffffffff1660601b8152505080610120818152505050505050506200050c565b600033905090565b6000600b60019054906101000a900473ffffffffffffffffffffffffffffffffffffffff16905081600b60016101000a81548173ffffffffffffffffffffffffffffffffffffffff021916908373ffffffffffffffffffffffffffffffffffffffff1602179055508173ffffffffffffffffffffffffffffffffffffffff168173ffffffffffffffffffffffffffffffffffffffff167f8be0079c531659141344cd1fd0a4f28419497f9722a3daafe3b4186f6b6457e060405160405180910390a35050565b600083838346306040516020016200030095949392919062000402565b6040516020818303038152906040528051906020012090509392505050565b8280546200032d90620004a7565b90600052602060002090601f0160209004810192826200035157600085556200039d565b82601f106200036c57805160ff19168380011785556200039d565b828001600101855582156200039d579182015b828111156200039c5782518255916020019190600101906200037f565b5b509050620003ac9190620003b0565b5090565b5b80821115620003cb576000816000905550600101620003b1565b5090565b620003da816200045f565b82525050565b620003eb8162000473565b82525050565b620003fc816200049d565b82525050565b600060a082019050620004196000830188620003e0565b620004286020830187620003e0565b620004376040830186620003e0565b620004466060830185620003f1565b620004556080830184620003cf565b9695505050505050565b60006200046c826200047d565b9050919050565b6000819050919050565b600073ffffffffffffffffffffffffffffffffffffffff82169050919050565b6000819050919050565b60006002820490506001821680620004c057607f821691505b60208210811415620004d757620004d6620004dd565b5b50919050565b7f4e487b7100000000000000000000000000000000000000000000000000000000600052602260045260246000fd5b60805160a05160c05160601c60e0516101005161012051615e5c6200055f6000396000611ab701526000611af901526000611ad801526000611a0d01526000611a6301526000611a8c0152615e5c6000f3fe608060405234801561001057600080fd5b50600436106101f05760003560e01c80635c975abb1161010f57806395d89b41116100a2578063c3cda52011610071578063c3cda520146105b7578063c87b56dd146105d3578063e985e9c514610603578063f2fde38b14610633576101f0565b806395d89b41146105315780639ab24eb01461054f578063a22cb4651461057f578063b88d4fde1461059b576101f0565b80637ecebe00116100de5780637ecebe00146104a95780638456cb59146104d95780638da5cb5b146104e35780638e539e8c14610501576101f0565b80635c975abb146104215780636352211e1461043f57806370a082311461046f578063715018a61461049f576101f0565b80633644e5151161018757806342966c681161015657806342966c68146103895780634f6ccce7146103a5578063587cde1e146103d55780635c19a95c14610405576101f0565b80633644e515146103155780633a46b1a8146103335780633f4ba83a1461036357806342842e0e1461036d576101f0565b8063095ea7b3116101c3578063095ea7b31461028f57806318160ddd146102ab57806323b872dd146102c95780632f745c59146102e5576101f0565b806301ffc9a7146101f557806303a80dfb1461022557806306fdde0314610241578063081812fc1461025f575b600080fd5b61020f600480360381019061020a91906142f8565b61064f565b60405161021c9190614ac9565b60405180910390f35b61023f600480360381019061023a9190614188565b610661565b005b61024961073c565b6040516102569190614bdc565b60405180910390f35b6102796004803603810190610274919061434a565b6107ce565b6040516102869190614a62565b60405180910390f35b6102a960048036038101906102a49190614233565b610853565b005b6102b361096b565b6040516102c0919061501e565b60405180910390f35b6102e360048036038101906102de9190614082565b610978565b005b6102ff60048036038101906102fa9190614233565b6109d8565b60405161030c919061501e565b60405180910390f35b61031d610a7d565b60405161032a9190614ae4565b60405180910390f35b61034d60048036038101906103489190614233565b610a8c565b60405161035a919061501e565b60405180910390f35b61036b610ae7565b005b61038760048036038101906103829190614082565b610b6d565b005b6103a3600480360381019061039e919061434a565b610b8d565b005b6103bf60048036038101906103ba919061434a565b610be9565b6040516103cc919061501e565b60405180910390f35b6103ef60048036038101906103ea919061401d565b610c80565b6040516103fc9190614a62565b60405180910390f35b61041f600480360381019061041a919061401d565b610ce9565b005b610429610d03565b6040516104369190614ac9565b60405180910390f35b6104596004803603810190610454919061434a565b610d1a565b6040516104669190614a62565b60405180910390f35b6104896004803603810190610484919061401d565b610dcc565b604051610496919061501e565b60405180910390f35b6104a7610e84565b005b6104c360048036038101906104be919061401d565b610f0c565b6040516104d0919061501e565b60405180910390f35b6104e1610f5c565b005b6104eb610fe2565b6040516104f89190614a62565b60405180910390f35b61051b6004803603810190610516919061434a565b61100c565b604051610528919061501e565b60405180910390f35b61053961106b565b6040516105469190614bdc565b60405180910390f35b6105696004803603810190610564919061401d565b6110fd565b604051610576919061501e565b60405180910390f35b6105996004803603810190610594919061414c565b61114d565b005b6105b560048036038101906105b091906140d1565b611163565b005b6105d160048036038101906105cc919061426f565b6111c5565b005b6105ed60048036038101906105e8919061434a565b6112c9565b6040516105fa9190614bdc565b60405180910390f35b61061d60048036038101906106189190614046565b6112db565b60405161062a9190614ac9565b60405180910390f35b61064d6004803603810190610648919061401d565b61136f565b005b600061065a82611467565b9050919050565b6106696114e1565b73ffffffffffffffffffffffffffffffffffffffff16610687610fe2565b73ffffffffffffffffffffffffffffffffffffffff16146106dd576040517f08c379a00000000000000000000000000000000000000000000000000000000081526004016106d490614f1e565b60405180910390fd5b60006106e960106114e9565b90506106f560106114f7565b6106ff858261150d565b61072c8185858560405160200161071893929190614a05565b60405160208183030381529060405261152b565b61073585610ce9565b5050505050565b60606000805461074b906152b4565b80601f0160208091040260200160405190810160405280929190818152602001828054610777906152b4565b80156107c45780601f10610799576101008083540402835291602001916107c4565b820191906000526020600020905b8154815290600101906020018083116107a757829003601f168201915b5050505050905090565b60006107d98261159f565b610818576040517f08c379a000000000000000000000000000000000000000000000000000000000815260040161080f90614efe565b60405180910390fd5b6004600083815260200190815260200160002060009054906101000a900473ffffffffffffffffffffffffffffffffffffffff169050919050565b600061085e82610d1a565b90508073ffffffffffffffffffffffffffffffffffffffff168373ffffffffffffffffffffffffffffffffffffffff1614156108cf576040517f08c379a00000000000000000000000000000000000000000000000000000000081526004016108c690614f7e565b60405180910390fd5b8073ffffffffffffffffffffffffffffffffffffffff166108ee6114e1565b73ffffffffffffffffffffffffffffffffffffffff16148061091d575061091c816109176114e1565b6112db565b5b61095c576040517f08c379a000000000000000000000000000000000000000000000000000000000815260040161095390614dfe565b60405180910390fd5b610966838361160b565b505050565b6000600880549050905090565b6109896109836114e1565b826116c4565b6109c8576040517f08c379a00000000000000000000000000000000000000000000000000000000081526004016109bf90614f9e565b60405180910390fd5b6109d38383836117a2565b505050565b60006109e383610dcc565b8210610a24576040517f08c379a0000000000000000000000000000000000000000000000000000000008152600401610a1b90614c7e565b60405180910390fd5b600660008473ffffffffffffffffffffffffffffffffffffffff1673ffffffffffffffffffffffffffffffffffffffff168152602001908152602001600020600083815260200190815260200160002054905092915050565b6000610a87611a09565b905090565b6000610adf82600d60008673ffffffffffffffffffffffffffffffffffffffff1673ffffffffffffffffffffffffffffffffffffffff168152602001908152602001600020611b2390919063ffffffff16565b905092915050565b610aef6114e1565b73ffffffffffffffffffffffffffffffffffffffff16610b0d610fe2565b73ffffffffffffffffffffffffffffffffffffffff1614610b63576040517f08c379a0000000000000000000000000000000000000000000000000000000008152600401610b5a90614f1e565b60405180910390fd5b610b6b611cc7565b565b610b8883838360405180602001604052806000815250611163565b505050565b610b9e610b986114e1565b826116c4565b610bdd576040517f08c379a0000000000000000000000000000000000000000000000000000000008152600401610bd490614ffe565b60405180910390fd5b610be681611d69565b50565b6000610bf361096b565b8210610c34576040517f08c379a0000000000000000000000000000000000000000000000000000000008152600401610c2b90614fde565b60405180910390fd5b60088281548110610c6e577f4e487b7100000000000000000000000000000000000000000000000000000000600052603260045260246000fd5b90600052602060002001549050919050565b6000600c60008373ffffffffffffffffffffffffffffffffffffffff1673ffffffffffffffffffffffffffffffffffffffff16815260200190815260200160002060009054906101000a900473ffffffffffffffffffffffffffffffffffffffff169050919050565b6000610cf36114e1565b9050610cff8183611d75565b5050565b6000600b60009054906101000a900460ff16905090565b6000806002600084815260200190815260200160002060009054906101000a900473ffffffffffffffffffffffffffffffffffffffff169050600073ffffffffffffffffffffffffffffffffffffffff168173ffffffffffffffffffffffffffffffffffffffff161415610dc3576040517f08c379a0000000000000000000000000000000000000000000000000000000008152600401610dba90614e3e565b60405180910390fd5b80915050919050565b60008073ffffffffffffffffffffffffffffffffffffffff168273ffffffffffffffffffffffffffffffffffffffff161415610e3d576040517f08c379a0000000000000000000000000000000000000000000000000000000008152600401610e3490614e1e565b60405180910390fd5b600360008373ffffffffffffffffffffffffffffffffffffffff1673ffffffffffffffffffffffffffffffffffffffff168152602001908152602001600020549050919050565b610e8c6114e1565b73ffffffffffffffffffffffffffffffffffffffff16610eaa610fe2565b73ffffffffffffffffffffffffffffffffffffffff1614610f00576040517f08c379a0000000000000000000000000000000000000000000000000000000008152600401610ef790614f1e565b60405180910390fd5b610f0a6000611e89565b565b6000610f55600f60008473ffffffffffffffffffffffffffffffffffffffff1673ffffffffffffffffffffffffffffffffffffffff1681526020019081526020016000206114e9565b9050919050565b610f646114e1565b73ffffffffffffffffffffffffffffffffffffffff16610f82610fe2565b73ffffffffffffffffffffffffffffffffffffffff1614610fd8576040517f08c379a0000000000000000000000000000000000000000000000000000000008152600401610fcf90614f1e565b60405180910390fd5b610fe0611f4f565b565b6000600b60019054906101000a900473ffffffffffffffffffffffffffffffffffffffff16905090565b6000438210611050576040517f08c379a000000000000000000000000000000000000000000000000000000000815260040161104790614e7e565b60405180910390fd5b61106482600e611b2390919063ffffffff16565b9050919050565b60606001805461107a906152b4565b80601f01602080910402602001604051908101604052809291908181526020018280546110a6906152b4565b80156110f35780601f106110c8576101008083540402835291602001916110f3565b820191906000526020600020905b8154815290600101906020018083116110d657829003601f168201915b5050505050905090565b6000611146600d60008473ffffffffffffffffffffffffffffffffffffffff1673ffffffffffffffffffffffffffffffffffffffff168152602001908152602001600020611ff2565b9050919050565b61115f6111586114e1565b83836120b3565b5050565b61117461116e6114e1565b836116c4565b6111b3576040517f08c379a00000000000000000000000000000000000000000000000000000000081526004016111aa90614f9e565b60405180910390fd5b6111bf84848484612220565b50505050565b83421115611208576040517f08c379a00000000000000000000000000000000000000000000000000000000081526004016111ff90614dde565b60405180910390fd5b600061126a6112627fe48329057bfd03d55e49b547132e39cffd9c1820ad7b9d4c5307691425d15adf8989896040516020016112479493929190614aff565b6040516020818303038152906040528051906020012061227c565b858585612296565b9050611275816122c1565b86146112b6576040517f08c379a00000000000000000000000000000000000000000000000000000000081526004016112ad90614c3e565b60405180910390fd5b6112c08188611d75565b50505050505050565b60606112d48261231f565b9050919050565b6000600560008473ffffffffffffffffffffffffffffffffffffffff1673ffffffffffffffffffffffffffffffffffffffff16815260200190815260200160002060008373ffffffffffffffffffffffffffffffffffffffff1673ffffffffffffffffffffffffffffffffffffffff16815260200190815260200160002060009054906101000a900460ff16905092915050565b6113776114e1565b73ffffffffffffffffffffffffffffffffffffffff16611395610fe2565b73ffffffffffffffffffffffffffffffffffffffff16146113eb576040517f08c379a00000000000000000000000000000000000000000000000000000000081526004016113e290614f1e565b60405180910390fd5b600073ffffffffffffffffffffffffffffffffffffffff168173ffffffffffffffffffffffffffffffffffffffff16141561145b576040517f08c379a000000000000000000000000000000000000000000000000000000000815260040161145290614cbe565b60405180910390fd5b61146481611e89565b50565b60007f780e9d63000000000000000000000000000000000000000000000000000000007bffffffffffffffffffffffffffffffffffffffffffffffffffffffff1916827bffffffffffffffffffffffffffffffffffffffffffffffffffffffff191614806114da57506114d982612471565b5b9050919050565b600033905090565b600081600001549050919050565b6001816000016000828254019250508190555050565b611527828260405180602001604052806000815250612553565b5050565b6115348261159f565b611573576040517f08c379a000000000000000000000000000000000000000000000000000000000815260040161156a90614e5e565b60405180910390fd5b80600a6000848152602001908152602001600020908051906020019061159a929190613dd7565b505050565b60008073ffffffffffffffffffffffffffffffffffffffff166002600084815260200190815260200160002060009054906101000a900473ffffffffffffffffffffffffffffffffffffffff1673ffffffffffffffffffffffffffffffffffffffff1614159050919050565b816004600083815260200190815260200160002060006101000a81548173ffffffffffffffffffffffffffffffffffffffff021916908373ffffffffffffffffffffffffffffffffffffffff160217905550808273ffffffffffffffffffffffffffffffffffffffff1661167e83610d1a565b73ffffffffffffffffffffffffffffffffffffffff167f8c5be1e5ebec7d5bd14f71427d1e84f3dd0314c0f7b2291e5b200ac8c7c3b92560405160405180910390a45050565b60006116cf8261159f565b61170e576040517f08c379a000000000000000000000000000000000000000000000000000000000815260040161170590614d7e565b60405180910390fd5b600061171983610d1a565b90508073ffffffffffffffffffffffffffffffffffffffff168473ffffffffffffffffffffffffffffffffffffffff16148061175b575061175a81856112db565b5b8061179957508373ffffffffffffffffffffffffffffffffffffffff16611781846107ce565b73ffffffffffffffffffffffffffffffffffffffff16145b91505092915050565b8273ffffffffffffffffffffffffffffffffffffffff166117c282610d1a565b73ffffffffffffffffffffffffffffffffffffffff1614611818576040517f08c379a000000000000000000000000000000000000000000000000000000000815260040161180f90614cde565b60405180910390fd5b600073ffffffffffffffffffffffffffffffffffffffff168273ffffffffffffffffffffffffffffffffffffffff161415611888576040517f08c379a000000000000000000000000000000000000000000000000000000000815260040161187f90614d1e565b60405180910390fd5b6118938383836125ae565b61189e60008261160b565b6001600360008573ffffffffffffffffffffffffffffffffffffffff1673ffffffffffffffffffffffffffffffffffffffff16815260200190815260200160002060008282546118ee91906151b3565b925050819055506001600360008473ffffffffffffffffffffffffffffffffffffffff1673ffffffffffffffffffffffffffffffffffffffff1681526020019081526020016000206000828254611945919061512c565b92505081905550816002600083815260200190815260200160002060006101000a81548173ffffffffffffffffffffffffffffffffffffffff021916908373ffffffffffffffffffffffffffffffffffffffff160217905550808273ffffffffffffffffffffffffffffffffffffffff168473ffffffffffffffffffffffffffffffffffffffff167fddf252ad1be2c89b69c2b068fc378daa952ba7f163c4a11628f55a4df523b3ef60405160405180910390a4611a04838383612606565b505050565b60007f000000000000000000000000000000000000000000000000000000000000000073ffffffffffffffffffffffffffffffffffffffff163073ffffffffffffffffffffffffffffffffffffffff16148015611a8557507f000000000000000000000000000000000000000000000000000000000000000046145b15611ab2577f00000000000000000000000000000000000000000000000000000000000000009050611b20565b611b1d7f00000000000000000000000000000000000000000000000000000000000000007f00000000000000000000000000000000000000000000000000000000000000007f0000000000000000000000000000000000000000000000000000000000000000612616565b90505b90565b6000438210611b67576040517f08c379a0000000000000000000000000000000000000000000000000000000008152600401611b5e90614d9e565b60405180910390fd5b60008360000180549050905060005b81811015611c11576000611b8a8284612650565b905084866000018281548110611bc9577f4e487b7100000000000000000000000000000000000000000000000000000000600052603260045260246000fd5b9060005260206000200160000160009054906101000a900463ffffffff1663ffffffff161115611bfb57809250611c0b565b600181611c08919061512c565b91505b50611b76565b60008214611c9c5784600001600183611c2a91906151b3565b81548110611c61577f4e487b7100000000000000000000000000000000000000000000000000000000600052603260045260246000fd5b9060005260206000200160000160049054906101000a90047bffffffffffffffffffffffffffffffffffffffffffffffffffffffff16611c9f565b60005b7bffffffffffffffffffffffffffffffffffffffffffffffffffffffff169250505092915050565b611ccf610d03565b611d0e576040517f08c379a0000000000000000000000000000000000000000000000000000000008152600401611d0590614c1e565b60405180910390fd5b6000600b60006101000a81548160ff0219169083151502179055507f5db9ee0a495bf2e6ff9c91a7834c1ba4fdd244a5e8aa4e537bd38aeae4b073aa611d526114e1565b604051611d5f9190614a62565b60405180910390a1565b611d7281612676565b50565b6000611d8083610c80565b905081600c60008573ffffffffffffffffffffffffffffffffffffffff1673ffffffffffffffffffffffffffffffffffffffff16815260200190815260200160002060006101000a81548173ffffffffffffffffffffffffffffffffffffffff021916908373ffffffffffffffffffffffffffffffffffffffff1602179055508173ffffffffffffffffffffffffffffffffffffffff168173ffffffffffffffffffffffffffffffffffffffff168473ffffffffffffffffffffffffffffffffffffffff167f3134e8a2e6d97e929a7e54011ea5485d7d196dd5f0ba4d4ef95803e8e3fc257f60405160405180910390a4611e848183611e7f866126c9565b6126db565b505050565b6000600b60019054906101000a900473ffffffffffffffffffffffffffffffffffffffff16905081600b60016101000a81548173ffffffffffffffffffffffffffffffffffffffff021916908373ffffffffffffffffffffffffffffffffffffffff1602179055508173ffffffffffffffffffffffffffffffffffffffff168173ffffffffffffffffffffffffffffffffffffffff167f8be0079c531659141344cd1fd0a4f28419497f9722a3daafe3b4186f6b6457e060405160405180910390a35050565b611f57610d03565b15611f97576040517f08c379a0000000000000000000000000000000000000000000000000000000008152600401611f8e90614dbe565b60405180910390fd5b6001600b60006101000a81548160ff0219169083151502179055507f62e78cea01bee320cd4e420270b5ea74000d11b0c9f74754ebdbfc544b05a258611fdb6114e1565b604051611fe89190614a62565b60405180910390a1565b600080826000018054905090506000811461208a578260000160018261201891906151b3565b8154811061204f577f4e487b7100000000000000000000000000000000000000000000000000000000600052603260045260246000fd5b9060005260206000200160000160049054906101000a90047bffffffffffffffffffffffffffffffffffffffffffffffffffffffff1661208d565b60005b7bffffffffffffffffffffffffffffffffffffffffffffffffffffffff16915050919050565b8173ffffffffffffffffffffffffffffffffffffffff168373ffffffffffffffffffffffffffffffffffffffff161415612122576040517f08c379a000000000000000000000000000000000000000000000000000000000815260040161211990614d3e565b60405180910390fd5b80600560008573ffffffffffffffffffffffffffffffffffffffff1673ffffffffffffffffffffffffffffffffffffffff16815260200190815260200160002060008473ffffffffffffffffffffffffffffffffffffffff1673ffffffffffffffffffffffffffffffffffffffff16815260200190815260200160002060006101000a81548160ff0219169083151502179055508173ffffffffffffffffffffffffffffffffffffffff168373ffffffffffffffffffffffffffffffffffffffff167f17307eab39ab6107e8899845ad3d59bd9653f200f220920489ca2b5937696c31836040516122139190614ac9565b60405180910390a3505050565b61222b8484846117a2565b612237848484846128e8565b612276576040517f08c379a000000000000000000000000000000000000000000000000000000000815260040161226d90614c9e565b60405180910390fd5b50505050565b600061228f612289611a09565b83612a7f565b9050919050565b60008060006122a787878787612ab2565b915091506122b481612bbf565b8192505050949350505050565b600080600f60008473ffffffffffffffffffffffffffffffffffffffff1673ffffffffffffffffffffffffffffffffffffffff168152602001908152602001600020905061230e816114e9565b9150612319816114f7565b50919050565b606061232a8261159f565b612369576040517f08c379a000000000000000000000000000000000000000000000000000000000815260040161236090614ede565b60405180910390fd5b6000600a60008481526020019081526020016000208054612389906152b4565b80601f01602080910402602001604051908101604052809291908181526020018280546123b5906152b4565b80156124025780601f106123d757610100808354040283529160200191612402565b820191906000526020600020905b8154815290600101906020018083116123e557829003601f168201915b505050505090506000612413612f10565b905060008151141561242957819250505061246c565b60008251111561245e5780826040516020016124469291906149aa565b6040516020818303038152906040529250505061246c565b61246784612f27565b925050505b919050565b60007f80ac58cd000000000000000000000000000000000000000000000000000000007bffffffffffffffffffffffffffffffffffffffffffffffffffffffff1916827bffffffffffffffffffffffffffffffffffffffffffffffffffffffff1916148061253c57507f5b5e139f000000000000000000000000000000000000000000000000000000007bffffffffffffffffffffffffffffffffffffffffffffffffffffffff1916827bffffffffffffffffffffffffffffffffffffffffffffffffffffffff1916145b8061254c575061254b82612fce565b5b9050919050565b61255d8383613038565b61256a60008484846128e8565b6125a9576040517f08c379a00000000000000000000000000000000000000000000000000000000081526004016125a090614c9e565b60405180910390fd5b505050565b6125b6610d03565b156125f6576040517f08c379a00000000000000000000000000000000000000000000000000000000081526004016125ed90614dbe565b60405180910390fd5b612601838383613212565b505050565b612611838383613326565b505050565b60008383834630604051602001612631959493929190614b44565b6040516020818303038152906040528051906020012090509392505050565b600060028284186126619190615182565b82841661266e919061512c565b905092915050565b61267f81613342565b6000600a6000838152602001908152602001600020805461269f906152b4565b9050146126c657600a600082815260200190815260200160002060006126c59190613e5d565b5b50565b60006126d482610dcc565b9050919050565b8173ffffffffffffffffffffffffffffffffffffffff168373ffffffffffffffffffffffffffffffffffffffff16141580156127175750600081115b156128e357600073ffffffffffffffffffffffffffffffffffffffff168373ffffffffffffffffffffffffffffffffffffffff16146127ff576000806127a861345f84600d60008973ffffffffffffffffffffffffffffffffffffffff1673ffffffffffffffffffffffffffffffffffffffff1681526020019081526020016000206134759092919063ffffffff16565b915091508473ffffffffffffffffffffffffffffffffffffffff167fdec2bacdd2f05b59de34da9b523dff8be42e5e38e818c82fdb0bae774387a72483836040516127f4929190615039565b60405180910390a250505b600073ffffffffffffffffffffffffffffffffffffffff168273ffffffffffffffffffffffffffffffffffffffff16146128e25760008061288b6134a384600d60008873ffffffffffffffffffffffffffffffffffffffff1673ffffffffffffffffffffffffffffffffffffffff1681526020019081526020016000206134759092919063ffffffff16565b915091508373ffffffffffffffffffffffffffffffffffffffff167fdec2bacdd2f05b59de34da9b523dff8be42e5e38e818c82fdb0bae774387a72483836040516128d7929190615039565b60405180910390a250505b5b505050565b60006129098473ffffffffffffffffffffffffffffffffffffffff166134b9565b15612a72578373ffffffffffffffffffffffffffffffffffffffff1663150b7a026129326114e1565b8786866040518563ffffffff1660e01b81526004016129549493929190614a7d565b602060405180830381600087803b15801561296e57600080fd5b505af192505050801561299f57506040513d601f19601f8201168201806040525081019061299c9190614321565b60015b612a22573d80600081146129cf576040519150601f19603f3d011682016040523d82523d6000602084013e6129d4565b606091505b50600081511415612a1a576040517f08c379a0000000000000000000000000000000000000000000000000000000008152600401612a1190614c9e565b60405180910390fd5b805181602001fd5b63150b7a0260e01b7bffffffffffffffffffffffffffffffffffffffffffffffffffffffff1916817bffffffffffffffffffffffffffffffffffffffffffffffffffffffff191614915050612a77565b600190505b949350505050565b60008282604051602001612a949291906149ce565b60405160208183030381529060405280519060200120905092915050565b6000807f7fffffffffffffffffffffffffffffff5d576e7357a4501ddfe92f46681b20a08360001c1115612aed576000600391509150612bb6565b601b8560ff1614158015612b055750601c8560ff1614155b15612b17576000600491509150612bb6565b600060018787878760405160008152602001604052604051612b3c9493929190614b97565b6020604051602081039080840390855afa158015612b5e573d6000803e3d6000fd5b505050602060405103519050600073ffffffffffffffffffffffffffffffffffffffff168173ffffffffffffffffffffffffffffffffffffffff161415612bad57600060019250925050612bb6565b80600092509250505b94509492505050565b60006004811115612bf9577f4e487b7100000000000000000000000000000000000000000000000000000000600052602160045260246000fd5b816004811115612c32577f4e487b7100000000000000000000000000000000000000000000000000000000600052602160045260246000fd5b1415612c3d57612f0d565b60016004811115612c77577f4e487b7100000000000000000000000000000000000000000000000000000000600052602160045260246000fd5b816004811115612cb0577f4e487b7100000000000000000000000000000000000000000000000000000000600052602160045260246000fd5b1415612cf1576040517f08c379a0000000000000000000000000000000000000000000000000000000008152600401612ce890614bfe565b60405180910390fd5b60026004811115612d2b577f4e487b7100000000000000000000000000000000000000000000000000000000600052602160045260246000fd5b816004811115612d64577f4e487b7100000000000000000000000000000000000000000000000000000000600052602160045260246000fd5b1415612da5576040517f08c379a0000000000000000000000000000000000000000000000000000000008152600401612d9c90614c5e565b60405180910390fd5b60036004811115612ddf577f4e487b7100000000000000000000000000000000000000000000000000000000600052602160045260246000fd5b816004811115612e18577f4e487b7100000000000000000000000000000000000000000000000000000000600052602160045260246000fd5b1415612e59576040517f08c379a0000000000000000000000000000000000000000000000000000000008152600401612e5090614d5e565b60405180910390fd5b600480811115612e92577f4e487b7100000000000000000000000000000000000000000000000000000000600052602160045260246000fd5b816004811115612ecb577f4e487b7100000000000000000000000000000000000000000000000000000000600052602160045260246000fd5b1415612f0c576040517f08c379a0000000000000000000000000000000000000000000000000000000008152600401612f0390614e9e565b60405180910390fd5b5b50565b606060405180602001604052806000815250905090565b6060612f328261159f565b612f71576040517f08c379a0000000000000000000000000000000000000000000000000000000008152600401612f6890614f5e565b60405180910390fd5b6000612f7b612f10565b90506000815111612f9b5760405180602001604052806000815250612fc6565b80612fa5846134dc565b604051602001612fb69291906149aa565b6040516020818303038152906040525b915050919050565b60007f01ffc9a7000000000000000000000000000000000000000000000000000000007bffffffffffffffffffffffffffffffffffffffffffffffffffffffff1916827bffffffffffffffffffffffffffffffffffffffffffffffffffffffff1916149050919050565b600073ffffffffffffffffffffffffffffffffffffffff168273ffffffffffffffffffffffffffffffffffffffff1614156130a8576040517f08c379a000000000000000000000000000000000000000000000000000000000815260040161309f90614ebe565b60405180910390fd5b6130b18161159f565b156130f1576040517f08c379a00000000000000000000000000000000000000000000000000000000081526004016130e890614cfe565b60405180910390fd5b6130fd600083836125ae565b6001600360008473ffffffffffffffffffffffffffffffffffffffff1673ffffffffffffffffffffffffffffffffffffffff168152602001908152602001600020600082825461314d919061512c565b92505081905550816002600083815260200190815260200160002060006101000a81548173ffffffffffffffffffffffffffffffffffffffff021916908373ffffffffffffffffffffffffffffffffffffffff160217905550808273ffffffffffffffffffffffffffffffffffffffff16600073ffffffffffffffffffffffffffffffffffffffff167fddf252ad1be2c89b69c2b068fc378daa952ba7f163c4a11628f55a4df523b3ef60405160405180910390a461320e60008383612606565b5050565b61321d838383613689565b600073ffffffffffffffffffffffffffffffffffffffff168373ffffffffffffffffffffffffffffffffffffffff1614156132605761325b8161368e565b61329f565b8173ffffffffffffffffffffffffffffffffffffffff168373ffffffffffffffffffffffffffffffffffffffff161461329e5761329d83826136d7565b5b5b600073ffffffffffffffffffffffffffffffffffffffff168273ffffffffffffffffffffffffffffffffffffffff1614156132e2576132dd81613844565b613321565b8273ffffffffffffffffffffffffffffffffffffffff168273ffffffffffffffffffffffffffffffffffffffff16146133205761331f8282613987565b5b5b505050565b61333283836001613a06565b61333d838383613ac6565b505050565b600061334d82610d1a565b905061335b816000846125ae565b61336660008361160b565b6001600360008373ffffffffffffffffffffffffffffffffffffffff1673ffffffffffffffffffffffffffffffffffffffff16815260200190815260200160002060008282546133b691906151b3565b925050819055506002600083815260200190815260200160002060006101000a81549073ffffffffffffffffffffffffffffffffffffffff021916905581600073ffffffffffffffffffffffffffffffffffffffff168273ffffffffffffffffffffffffffffffffffffffff167fddf252ad1be2c89b69c2b068fc378daa952ba7f163c4a11628f55a4df523b3ef60405160405180910390a461345b81600084612606565b5050565b6000818361346d91906151b3565b905092915050565b6000806134978561349261348888611ff2565b868863ffffffff16565b613acb565b91509150935093915050565b600081836134b1919061512c565b905092915050565b6000808273ffffffffffffffffffffffffffffffffffffffff163b119050919050565b60606000821415613524576040518060400160405280600181526020017f30000000000000000000000000000000000000000000000000000000000000008152509050613684565b600082905060005b6000821461355657808061353f90615317565b915050600a8261354f9190615182565b915061352c565b60008167ffffffffffffffff811115613598577f4e487b7100000000000000000000000000000000000000000000000000000000600052604160045260246000fd5b6040519080825280601f01601f1916602001820160405280156135ca5781602001600182028036833780820191505090505b5090505b6000851461367d576001826135e391906151b3565b9150600a856135f2919061536a565b60306135fe919061512c565b60f81b81838151811061363a577f4e487b7100000000000000000000000000000000000000000000000000000000600052603260045260246000fd5b60200101907effffffffffffffffffffffffffffffffffffffffffffffffffffffffffffff1916908160001a905350600a856136769190615182565b94506135ce565b8093505050505b919050565b505050565b6008805490506009600083815260200190815260200160002081905550600881908060018154018082558091505060019003906000526020600020016000909190919091505550565b600060016136e484610dcc565b6136ee91906151b3565b90506000600760008481526020019081526020016000205490508181146137d3576000600660008673ffffffffffffffffffffffffffffffffffffffff1673ffffffffffffffffffffffffffffffffffffffff168152602001908152602001600020600084815260200190815260200160002054905080600660008773ffffffffffffffffffffffffffffffffffffffff1673ffffffffffffffffffffffffffffffffffffffff168152602001908152602001600020600084815260200190815260200160002081905550816007600083815260200190815260200160002081905550505b6007600084815260200190815260200160002060009055600660008573ffffffffffffffffffffffffffffffffffffffff1673ffffffffffffffffffffffffffffffffffffffff16815260200190815260200160002060008381526020019081526020016000206000905550505050565b6000600160088054905061385891906151b3565b90506000600960008481526020019081526020016000205490506000600883815481106138ae577f4e487b7100000000000000000000000000000000000000000000000000000000600052603260045260246000fd5b9060005260206000200154905080600883815481106138f6577f4e487b7100000000000000000000000000000000000000000000000000000000600052603260045260246000fd5b90600052602060002001819055508160096000838152602001908152602001600020819055506009600085815260200190815260200160002060009055600880548061396b577f4e487b7100000000000000000000000000000000000000000000000000000000600052603160045260246000fd5b6001900381819060005260206000200160009055905550505050565b600061399283610dcc565b905081600660008573ffffffffffffffffffffffffffffffffffffffff1673ffffffffffffffffffffffffffffffffffffffff168152602001908152602001600020600083815260200190815260200160002081905550806007600084815260200190815260200160002081905550505050565b600073ffffffffffffffffffffffffffffffffffffffff168373ffffffffffffffffffffffffffffffffffffffff161415613a5657613a536134a382600e6134759092919063ffffffff16565b50505b600073ffffffffffffffffffffffffffffffffffffffff168273ffffffffffffffffffffffffffffffffffffffff161415613aa657613aa361345f82600e6134759092919063ffffffff16565b50505b613ac1613ab284610c80565b613abb84610c80565b836126db565b505050565b505050565b6000806000846000018054905090506000613ae586611ff2565b9050600082118015613b6157504386600001600184613b0491906151b3565b81548110613b3b577f4e487b7100000000000000000000000000000000000000000000000000000000600052603260045260246000fd5b9060005260206000200160000160009054906101000a900463ffffffff1663ffffffff16145b15613c1757613b6f85613d19565b86600001600184613b8091906151b3565b81548110613bb7577f4e487b7100000000000000000000000000000000000000000000000000000000600052603260045260246000fd5b9060005260206000200160000160046101000a8154817bffffffffffffffffffffffffffffffffffffffffffffffffffffffff02191690837bffffffffffffffffffffffffffffffffffffffffffffffffffffffff160217905550613d0a565b856000016040518060400160405280613c2f43613d84565b63ffffffff168152602001613c4388613d19565b7bffffffffffffffffffffffffffffffffffffffffffffffffffffffff168152509080600181540180825580915050600190039060005260206000200160009091909190915060008201518160000160006101000a81548163ffffffff021916908363ffffffff16021790555060208201518160000160046101000a8154817bffffffffffffffffffffffffffffffffffffffffffffffffffffffff02191690837bffffffffffffffffffffffffffffffffffffffffffffffffffffffff16021790555050505b80859350935050509250929050565b60007bffffffffffffffffffffffffffffffffffffffffffffffffffffffff8016821115613d7c576040517f08c379a0000000000000000000000000000000000000000000000000000000008152600401613d7390614f3e565b60405180910390fd5b819050919050565b600063ffffffff8016821115613dcf576040517f08c379a0000000000000000000000000000000000000000000000000000000008152600401613dc690614fbe565b60405180910390fd5b819050919050565b828054613de3906152b4565b90600052602060002090601f016020900481019282613e055760008555613e4c565b82601f10613e1e57805160ff1916838001178555613e4c565b82800160010185558215613e4c579182015b82811115613e4b578251825591602001919060010190613e30565b5b509050613e599190613e9d565b5090565b508054613e69906152b4565b6000825580601f10613e7b5750613e9a565b601f016020900490600052602060002090810190613e999190613e9d565b5b50565b5b80821115613eb6576000816000905550600101613e9e565b5090565b6000613ecd613ec884615087565b615062565b905082815260208101848484011115613ee557600080fd5b613ef0848285615272565b509392505050565b6000613f0b613f06846150b8565b615062565b905082815260208101848484011115613f2357600080fd5b613f2e848285615272565b509392505050565b600081359050613f4581615d9c565b92915050565b600081359050613f5a81615db3565b92915050565b600081359050613f6f81615dca565b92915050565b600081359050613f8481615de1565b92915050565b600081519050613f9981615de1565b92915050565b600082601f830112613fb057600080fd5b8135613fc0848260208601613eba565b91505092915050565b600082601f830112613fda57600080fd5b8135613fea848260208601613ef8565b91505092915050565b60008135905061400281615df8565b92915050565b60008135905061401781615e0f565b92915050565b60006020828403121561402f57600080fd5b600061403d84828501613f36565b91505092915050565b6000806040838503121561405957600080fd5b600061406785828601613f36565b925050602061407885828601613f36565b9150509250929050565b60008060006060848603121561409757600080fd5b60006140a586828701613f36565b93505060206140b686828701613f36565b92505060406140c786828701613ff3565b9150509250925092565b600080600080608085870312156140e757600080fd5b60006140f587828801613f36565b945050602061410687828801613f36565b935050604061411787828801613ff3565b925050606085013567ffffffffffffffff81111561413457600080fd5b61414087828801613f9f565b91505092959194509250565b6000806040838503121561415f57600080fd5b600061416d85828601613f36565b925050602061417e85828601613f4b565b9150509250929050565b6000806000806080858703121561419e57600080fd5b60006141ac87828801613f36565b945050602085013567ffffffffffffffff8111156141c957600080fd5b6141d587828801613fc9565b935050604085013567ffffffffffffffff8111156141f257600080fd5b6141fe87828801613fc9565b925050606085013567ffffffffffffffff81111561421b57600080fd5b61422787828801613fc9565b91505092959194509250565b6000806040838503121561424657600080fd5b600061425485828601613f36565b925050602061426585828601613ff3565b9150509250929050565b60008060008060008060c0878903121561428857600080fd5b600061429689828a01613f36565b96505060206142a789828a01613ff3565b95505060406142b889828a01613ff3565b94505060606142c989828a01614008565b93505060806142da89828a01613f60565b92505060a06142eb89828a01613f60565b9150509295509295509295565b60006020828403121561430a57600080fd5b600061431884828501613f75565b91505092915050565b60006020828403121561433357600080fd5b600061434184828501613f8a565b91505092915050565b60006020828403121561435c57600080fd5b600061436a84828501613ff3565b91505092915050565b61437c816151e7565b82525050565b61438b816151f9565b82525050565b61439a81615205565b82525050565b6143b16143ac82615205565b615360565b82525050565b60006143c2826150e9565b6143cc81856150ff565b93506143dc818560208601615281565b6143e581615457565b840191505092915050565b60006143fb826150f4565b6144058185615110565b9350614415818560208601615281565b61441e81615457565b840191505092915050565b6000614434826150f4565b61443e8185615121565b935061444e818560208601615281565b80840191505092915050565b6000614467601883615110565b915061447282615468565b602082019050919050565b600061448a601483615110565b915061449582615491565b602082019050919050565b60006144ad601483615110565b91506144b8826154ba565b602082019050919050565b60006144d0601f83615110565b91506144db826154e3565b602082019050919050565b60006144f3602b83615110565b91506144fe8261550c565b604082019050919050565b6000614516603283615110565b91506145218261555b565b604082019050919050565b6000614539602683615110565b9150614544826155aa565b604082019050919050565b600061455c602583615110565b9150614567826155f9565b604082019050919050565b600061457f601c83615110565b915061458a82615648565b602082019050919050565b60006145a2600283615121565b91506145ad82615671565b600282019050919050565b60006145c5602483615110565b91506145d08261569a565b604082019050919050565b60006145e8601983615110565b91506145f3826156e9565b602082019050919050565b600061460b602283615110565b915061461682615712565b604082019050919050565b600061462e602c83615110565b915061463982615761565b604082019050919050565b6000614651602083615110565b915061465c826157b0565b602082019050919050565b6000614674601083615110565b915061467f826157d9565b602082019050919050565b6000614697601883615110565b91506146a282615802565b602082019050919050565b60006146ba603883615110565b91506146c58261582b565b604082019050919050565b60006146dd602a83615110565b91506146e88261587a565b604082019050919050565b6000614700602983615110565b915061470b826158c9565b604082019050919050565b6000614723602e83615110565b915061472e82615918565b604082019050919050565b6000614746600283615121565b915061475182615967565b600282019050919050565b6000614769601a83615110565b915061477482615990565b602082019050919050565b600061478c602283615110565b9150614797826159b9565b604082019050919050565b60006147af600c83615121565b91506147ba82615a08565b600c82019050919050565b60006147d2602083615110565b91506147dd82615a31565b602082019050919050565b60006147f5603183615110565b915061480082615a5a565b604082019050919050565b6000614818600e83615121565b915061482382615aa9565b600e82019050919050565b600061483b602c83615110565b915061484682615ad2565b604082019050919050565b600061485e602083615110565b915061486982615b21565b602082019050919050565b6000614881602783615110565b915061488c82615b4a565b604082019050919050565b60006148a4602f83615110565b91506148af82615b99565b604082019050919050565b60006148c7600d83615121565b91506148d282615be8565b600d82019050919050565b60006148ea602183615110565b91506148f582615c11565b604082019050919050565b600061490d603183615110565b915061491882615c60565b604082019050919050565b6000614930602683615110565b915061493b82615caf565b604082019050919050565b6000614953602c83615110565b915061495e82615cfe565b604082019050919050565b6000614976603083615110565b915061498182615d4d565b604082019050919050565b6149958161525b565b82525050565b6149a481615265565b82525050565b60006149b68285614429565b91506149c28284614429565b91508190509392505050565b60006149d982614595565b91506149e582856143a0565b6020820191506149f582846143a0565b6020820191508190509392505050565b6000614a10826148ba565b9150614a1c8286614429565b9150614a27826147a2565b9150614a338285614429565b9150614a3e8261480b565b9150614a4a8284614429565b9150614a5582614739565b9150819050949350505050565b6000602082019050614a776000830184614373565b92915050565b6000608082019050614a926000830187614373565b614a9f6020830186614373565b614aac604083018561498c565b8181036060830152614abe81846143b7565b905095945050505050565b6000602082019050614ade6000830184614382565b92915050565b6000602082019050614af96000830184614391565b92915050565b6000608082019050614b146000830187614391565b614b216020830186614373565b614b2e604083018561498c565b614b3b606083018461498c565b95945050505050565b600060a082019050614b596000830188614391565b614b666020830187614391565b614b736040830186614391565b614b80606083018561498c565b614b8d6080830184614373565b9695505050505050565b6000608082019050614bac6000830187614391565b614bb9602083018661499b565b614bc66040830185614391565b614bd36060830184614391565b95945050505050565b60006020820190508181036000830152614bf681846143f0565b905092915050565b60006020820190508181036000830152614c178161445a565b9050919050565b60006020820190508181036000830152614c378161447d565b9050919050565b60006020820190508181036000830152614c57816144a0565b9050919050565b60006020820190508181036000830152614c77816144c3565b9050919050565b60006020820190508181036000830152614c97816144e6565b9050919050565b60006020820190508181036000830152614cb781614509565b9050919050565b60006020820190508181036000830152614cd78161452c565b9050919050565b60006020820190508181036000830152614cf78161454f565b9050919050565b60006020820190508181036000830152614d1781614572565b9050919050565b60006020820190508181036000830152614d37816145b8565b9050919050565b60006020820190508181036000830152614d57816145db565b9050919050565b60006020820190508181036000830152614d77816145fe565b9050919050565b60006020820190508181036000830152614d9781614621565b9050919050565b60006020820190508181036000830152614db781614644565b9050919050565b60006020820190508181036000830152614dd781614667565b9050919050565b60006020820190508181036000830152614df78161468a565b9050919050565b60006020820190508181036000830152614e17816146ad565b9050919050565b60006020820190508181036000830152614e37816146d0565b9050919050565b60006020820190508181036000830152614e57816146f3565b9050919050565b60006020820190508181036000830152614e7781614716565b9050919050565b60006020820190508181036000830152614e978161475c565b9050919050565b60006020820190508181036000830152614eb78161477f565b9050919050565b60006020820190508181036000830152614ed7816147c5565b9050919050565b60006020820190508181036000830152614ef7816147e8565b9050919050565b60006020820190508181036000830152614f178161482e565b9050919050565b60006020820190508181036000830152614f3781614851565b9050919050565b60006020820190508181036000830152614f5781614874565b9050919050565b60006020820190508181036000830152614f7781614897565b9050919050565b60006020820190508181036000830152614f97816148dd565b9050919050565b60006020820190508181036000830152614fb781614900565b9050919050565b60006020820190508181036000830152614fd781614923565b9050919050565b60006020820190508181036000830152614ff781614946565b9050919050565b6000602082019050818103600083015261501781614969565b9050919050565b6000602082019050615033600083018461498c565b92915050565b600060408201905061504e600083018561498c565b61505b602083018461498c565b9392505050565b600061506c61507d565b905061507882826152e6565b919050565b6000604051905090565b600067ffffffffffffffff8211156150a2576150a1615428565b5b6150ab82615457565b9050602081019050919050565b600067ffffffffffffffff8211156150d3576150d2615428565b5b6150dc82615457565b9050602081019050919050565b600081519050919050565b600081519050919050565b600082825260208201905092915050565b600082825260208201905092915050565b600081905092915050565b60006151378261525b565b91506151428361525b565b9250827fffffffffffffffffffffffffffffffffffffffffffffffffffffffffffffffff038211156151775761517661539b565b5b828201905092915050565b600061518d8261525b565b91506151988361525b565b9250826151a8576151a76153ca565b5b828204905092915050565b60006151be8261525b565b91506151c98361525b565b9250828210156151dc576151db61539b565b5b828203905092915050565b60006151f28261523b565b9050919050565b60008115159050919050565b6000819050919050565b60007fffffffff0000000000000000000000000000000000000000000000000000000082169050919050565b600073ffffffffffffffffffffffffffffffffffffffff82169050919050565b6000819050919050565b600060ff82169050919050565b82818337600083830152505050565b60005b8381101561529f578082015181840152602081019050615284565b838111156152ae576000848401525b50505050565b600060028204905060018216806152cc57607f821691505b602082108114156152e0576152df6153f9565b5b50919050565b6152ef82615457565b810181811067ffffffffffffffff8211171561530e5761530d615428565b5b80604052505050565b60006153228261525b565b91507fffffffffffffffffffffffffffffffffffffffffffffffffffffffffffffffff8214156153555761535461539b565b5b600182019050919050565b6000819050919050565b60006153758261525b565b91506153808361525b565b9250826153905761538f6153ca565b5b828206905092915050565b7f4e487b7100000000000000000000000000000000000000000000000000000000600052601160045260246000fd5b7f4e487b7100000000000000000000000000000000000000000000000000000000600052601260045260246000fd5b7f4e487b7100000000000000000000000000000000000000000000000000000000600052602260045260246000fd5b7f4e487b7100000000000000000000000000000000000000000000000000000000600052604160045260246000fd5b6000601f19601f8301169050919050565b7f45434453413a20696e76616c6964207369676e61747572650000000000000000600082015250565b7f5061757361626c653a206e6f7420706175736564000000000000000000000000600082015250565b7f566f7465733a20696e76616c6964206e6f6e6365000000000000000000000000600082015250565b7f45434453413a20696e76616c6964207369676e6174757265206c656e67746800600082015250565b7f455243373231456e756d657261626c653a206f776e657220696e646578206f7560008201527f74206f6620626f756e6473000000000000000000000000000000000000000000602082015250565b7f4552433732313a207472616e7366657220746f206e6f6e20455243373231526560008201527f63656976657220696d706c656d656e7465720000000000000000000000000000602082015250565b7f4f776e61626c653a206e6577206f776e657220697320746865207a65726f206160008201527f6464726573730000000000000000000000000000000000000000000000000000602082015250565b7f4552433732313a207472616e736665722066726f6d20696e636f72726563742060008201527f6f776e6572000000000000000000000000000000000000000000000000000000602082015250565b7f4552433732313a20746f6b656e20616c7265616479206d696e74656400000000600082015250565b7f1901000000000000000000000000000000000000000000000000000000000000600082015250565b7f4552433732313a207472616e7366657220746f20746865207a65726f2061646460008201527f7265737300000000000000000000000000000000000000000000000000000000602082015250565b7f4552433732313a20617070726f766520746f2063616c6c657200000000000000600082015250565b7f45434453413a20696e76616c6964207369676e6174757265202773272076616c60008201527f7565000000000000000000000000000000000000000000000000000000000000602082015250565b7f4552433732313a206f70657261746f7220717565727920666f72206e6f6e657860008201527f697374656e7420746f6b656e0000000000000000000000000000000000000000602082015250565b7f436865636b706f696e74733a20626c6f636b206e6f7420796574206d696e6564600082015250565b7f5061757361626c653a2070617573656400000000000000000000000000000000600082015250565b7f566f7465733a207369676e617475726520657870697265640000000000000000600082015250565b7f4552433732313a20617070726f76652063616c6c6572206973206e6f74206f7760008201527f6e6572206e6f7220617070726f76656420666f7220616c6c0000000000000000602082015250565b7f4552433732313a2062616c616e636520717565727920666f7220746865207a6560008201527f726f206164647265737300000000000000000000000000000000000000000000602082015250565b7f4552433732313a206f776e657220717565727920666f72206e6f6e657869737460008201527f656e7420746f6b656e0000000000000000000000000000000000000000000000602082015250565b7f45524337323155524953746f726167653a2055524920736574206f66206e6f6e60008201527f6578697374656e7420746f6b656e000000000000000000000000000000000000602082015250565b7f227d000000000000000000000000000000000000000000000000000000000000600082015250565b7f566f7465733a20626c6f636b206e6f7420796574206d696e6564000000000000600082015250565b7f45434453413a20696e76616c6964207369676e6174757265202776272076616c60008201527f7565000000000000000000000000000000000000000000000000000000000000602082015250565b7f222c20225469746c65223a220000000000000000000000000000000000000000600082015250565b7f4552433732313a206d696e7420746f20746865207a65726f2061646472657373600082015250565b7f45524337323155524953746f726167653a2055524920717565727920666f722060008201527f6e6f6e6578697374656e7420746f6b656e000000000000000000000000000000602082015250565b7f222c2022436f6e74656e74223a22000000000000000000000000000000000000600082015250565b7f4552433732313a20617070726f76656420717565727920666f72206e6f6e657860008201527f697374656e7420746f6b656e0000000000000000000000000000000000000000602082015250565b7f4f776e61626c653a2063616c6c6572206973206e6f7420746865206f776e6572600082015250565b7f53616665436173743a2076616c756520646f65736e27742066697420696e203260008201527f3234206269747300000000000000000000000000000000000000000000000000602082015250565b7f4552433732314d657461646174613a2055524920717565727920666f72206e6f60008201527f6e6578697374656e7420746f6b656e0000000000000000000000000000000000602082015250565b7f7b224c616e6775616765223a2200000000000000000000000000000000000000600082015250565b7f4552433732313a20617070726f76616c20746f2063757272656e74206f776e6560008201527f7200000000000000000000000000000000000000000000000000000000000000602082015250565b7f4552433732313a207472616e736665722063616c6c6572206973206e6f74206f60008201527f776e6572206e6f7220617070726f766564000000000000000000000000000000602082015250565b7f53616665436173743a2076616c756520646f65736e27742066697420696e203360008201527f3220626974730000000000000000000000000000000000000000000000000000602082015250565b7f455243373231456e756d657261626c653a20676c6f62616c20696e646578206f60008201527f7574206f6620626f756e64730000000000000000000000000000000000000000602082015250565b7f4552433732314275726e61626c653a2063616c6c6572206973206e6f74206f7760008201527f6e6572206e6f7220617070726f76656400000000000000000000000000000000602082015250565b615da5816151e7565b8114615db057600080fd5b50565b615dbc816151f9565b8114615dc757600080fd5b50565b615dd381615205565b8114615dde57600080fd5b50565b615dea8161520f565b8114615df557600080fd5b50565b615e018161525b565b8114615e0c57600080fd5b50565b615e1881615265565b8114615e2357600080fd5b5056fea264697066735822122088f654f38ca6c4aed44d9a0881164b510d25d7c24df103e5651ae1fee7e6558164736f6c63430008040033",
  "linkReferences": {},
  "deployedLinkReferences": {}
}